:100000000C9429010C945A010C945A010C945A0135
:100010000C945A010C945A010C945A010C945A01F4
:100020000C945A010C945A010C945A010C945A01E4
:100030000C945A010C944E060C945A010C945A01DB
:100040000C945A010C94E2070C945A010C945A0136
:100050000C945A010C945A010C945A010C940E07FA
:100060000C945A010C94D8060C94AE060C945A01C8
:100070000C945A010C945A010C945A010C945A0194
:100080000C94B4070C945A010C945A010C945A0124
:100090000C945A010C945A010C945A010C945A0174
:1000A0000C945A010C945A010C9486070C945A0132
:1000B0000C945A010C945A010C945A010C94580750
:1000C0000C945A010C945A010C945A010C945A0144
:1000D0000C945A010C945A010C945A010C945A0134
:1000E0000C945A010C94FA030C94AD030C94EC0399
:1000F0000C94CE030C94FE030C94A2020C94E60321
:100100000C94CB030C9454020C94DE030C94C703A0
:100110000C94C3030C9440020C94A8030C94F003B9
:100120000C94BF030C94D8030C9410080C94040294
:100130000C9431020C94DA020C94E2030C94F40354
:100140000C9427030C94D40300000A0B02090C0D35
:100150000E0807030401000000000000000000007A
:10016000000000000000000000000000000000008F
:10017000000000001211100000000000000000004C
:10018000000000000000000000000000000002006D
:10019000002200250028002B002E00310034000230
:1001A000010000050108010B0100002100240027C7
:1001B000002A002D00300033000101000004010777
:1001C000010A0105050505070508080808020202DD
:1001D000020A0A08080404040401010101010101E2
:1001E000010303030303030303040707070C0C0CB9
:1001F0000C0C0C0C0C020202020606060606060691
:10020000060B0B0B0B0B0B0B0B010210202008082D
:100210001020401020408002010201080402010168
:100220000204081020408080402010080402018051
:1002300004020180402010080402010804020101A8
:1002400002040810204080010204081020408000B1
:10025000100811241FBECFEFD1E2DEBFCDBF00E0FA
:100260000CBF12E0A0E0B2E0E2E0F9E100E00BBF79
:1002700002C007900D92AA38B107D9F723E0AAE887
:10028000B2E001C01D92AD3EB207E1F711E0C9E254
:10029000D1E000E006C021970109802FFE010E94F5
:1002A000770CC832D10780E00807A9F70E948708B9
:1002B0000C947F0C0C94000090E0FC01E75FFD4F74
:1002C00024918D539E4FFC018491882399F090E0F6
:1002D000880F991FFC01E755FE4FA591B491FC01D1
:1002E000E157FE4F859194918FB7F894EC91E22BF2
:1002F000EC938FBF08951F93CF93DF93EC01162FDC
:100300008881803308F04FC0862F0E945C0188816D
:10031000282F30E0F901EE0FFF1FE20FF31FEA5A1A
:10032000FC4F1F736081607C612B60839EE8998322
:1003300094E69A832CE0622F0E946B0C829FB0019E
:10034000112430E020E0AB01420F531FFA01EE0F01
:10035000FF1FE40FF51FEA5AFC4F908196FD16C06F
:100360002F5F3F4F2C30310571F7813009F5109226
:10037000800082E0809381001092850010928400BA
:10038000B19A80916F00826080936F00E8818E2F18
:1003900090E0FC01EE0FFF1FE80FF91FEA5AFC4F37
:1003A0008081806480838881DF91CF911F9108953F
:1003B000823061F410929000809391001092950029
:1003C0001092940088BB80937100E0CF833069F471
:1003D0001092A00082E08093A1001092A5001092DC
:1003E000A40089BB80937200D1CF8111CFCF10922E
:1003F000200182E0809321011092250110922401B6
:100400008ABB80937300C2CFAF92BF92CF92DF922C
:10041000EF92FF920F931F93CF93DF936C017B01B9
:100420008B01040F151FEB015E01AE18BF08C0174A
:10043000D10759F06991D601ED91FC910190F081BD
:10044000E02DC6011995892B79F7C501DF91CF9170
:100450001F910F91FF90EF90DF90CF90BF90AF90E2
:100460000895FC01538D448D252F30E0842F90E0BA
:10047000821B930B541710F0CF960895019708959F
:10048000FC01918D828D981761F0A28DAE0FBF2F68
:10049000B11D5D968C91928D9F5F9F73928F90E0BE
:1004A00008958FEF9FEF0895FC01918D828D98172D
:1004B00031F0828DE80FF11D858D90E008958FEF6A
:1004C0009FEF08952FB7F8948091B5029091B602EE
:1004D000A091B702B091B8022FBF8093C102909350
:1004E000C202A093C302B093C40289EB92E00E94BF
:1004F000540297FF26C02FB7F8948091B5029091CF
:10050000B602A091B702B091B8022FBF4091C102CC
:100510005091C2026091C3027091C402841B950B7A
:10052000A60BB70B4091BD025091BE026091BF0275
:100530007091C00284179507A607B707B0F28FEF36
:100540009FEF0895FC01918D228D892F90E0805CB2
:100550009F4F821B91098F739927089589EB92E031
:100560000E94A20221E0892B09F420E0822F089545
:10057000FC01A48DA80FB92FB11DA35ABF4F2C9118
:10058000848D90E001968F739927848FA689B7890F
:100590002C93A089B1898C91837080648C93938D06
:1005A000848D981306C00288F389E02D80818F7DA9
:1005B00080830895EF92FF920F931F93CF93DF9361
:1005C000EC0181E0888F9B8D8C8D98131AC0E8898F
:1005D000F989808185FF15C09FB7F894EE89FF895E
:1005E0006083E889F98980818370806480839FBFFC
:1005F00081E090E0DF91CF911F910F91FF90EF90FC
:100600000895F62E0B8D10E00F5F1F4F0F7311270B
:10061000E02E8C8D8E110CC00FB607FCFACFE88946
:10062000F989808185FFF5CFCE010E94B802F1CF14
:10063000EB8DEC0FFD2FF11DE35AFF4FF0829FB7BA
:10064000F8940B8FEA89FB8980818062CFCFCF93AA
:10065000DF93EC01888D8823B9F0AA89BB89E889EA
:10066000F9898C9185FD03C0808186FD0DC00FB690
:1006700007FCF7CF8C9185FFF2CF808185FFEDCF0E
:10068000CE010E94B802E9CFDF91CF91089580E0BA
:1006900090E0892B29F00E94AE0281110E94000097
:1006A00080E090E0892B49F080E090E0892B29F0F0
:1006B0000E94000081110E94000080E090E0892BE0
:1006C00049F080E090E0892B29F00E940000811120
:1006D0000E94000080E090E0892B49F080E090E0EB
:1006E000892B29F00E94000081110C9400000895CC
:1006F000282F30E0F901E85BFE4F9491F901E75FA4
:10070000FD4F44912D533E4FF9012491222309F4CA
:1007100035C0992311F191509231F8F4E92FF0E0AE
:100720008827EA56FC4F8F4F0C94770CC703CB03F6
:10073000A803BF03C303AD03CE03D403D803DE0372
:10074000E203E603EC03F003AD03F403FA03FE0354
:10075000809180008F7780938000E22FF0E0EE0F91
:10076000FF1FE157FE4FA591B4918FB7F894EC911C
:10077000611148C040954E234C938FBF08958091DE
:1007800080008F7DE8CF80918000877FE4CF84B5A3
:100790008F7784BDE2CF84B58F7DFBCF8091B00091
:1007A0008F778093B000D9CF8091B0008F7DF9CF43
:1007B000809190008F7780939000CFCF80919000B0
:1007C0008F7DF9CF80919000877FF5CF8091A00039
:1007D0008F778093A000C1CF8091A0008F7DF9CF4B
:1007E0008091A000877FF5CF809120018F77809343
:1007F0002001B3CF809120018F7DF9CF809120011E
:10080000877FF5CF4E2BB8CF9091000289130DC092
:10081000EEE8F1E0E4919FEF90930002E230E1F026
:1008200038F4EE2381F0E13089F060E00C94780335
:10083000E43049F110F1E530C1F7909173009D7FEC
:1008400090937300F2CF10926E00EFCF90916F00F3
:100850009D7F90936F00E9CF909170009D7F909362
:10086000700091E09093B0009091B100987F9460F7
:100870009093B1001092B300D8CF909171009D7FFA
:1008800090937100D2CF909172009D7F90937200EF
:10089000CCCF3FB7F89480918F0290919002A091B5
:1008A0009102B091920226B5A89B05C02F3F19F086
:1008B0000196A11DB11D3FBFBA2FA92F982F8827E0
:1008C000BC01CD01620F711D811D911D42E0660FBB
:1008D000771F881F991F4A95D1F708958F929F928D
:1008E000AF92BF92CF92DF92EF92FF920E944904A3
:1008F0004B015C0188EEC82E83E0D82EE12CF12C50
:100900000E944904681979098A099B09683E734065
:1009100081059105A8F321E0C21AD108E108F10888
:1009200088EE880E83E0981EA11CB11CC114D1046E
:10093000E104F10429F7FF90EF90DF90CF90BF9092
:10094000AF909F908F900895CF92DF92EF92FF9299
:10095000CF93DF93EC01603282E07807CCF5653B02
:10096000710514F064EB70E0898128E830E0281B01
:10097000310987FD3395220F331F220F331F690181
:10098000330FEE08FF088A8128E532E0281B310981
:1009900087FD3395220F331F220F331F032E000CC8
:1009A000440B550B2C193D094E095F09DB0177FFFC
:1009B00002C0B0E0A0E00E94320C24EB30E040E046
:1009C00050E00E94080CC20ED31EE41EF51EB601B4
:1009D000E881E03370F5298188E890E0821B910975
:1009E00027FD9395880F991F880F991F681779071E
:1009F0007CF02A8188E592E0821B910927FD93957E
:100A0000880F991F880F991F681779070CF4CB017D
:100A10000297880F991F4FB7F8942E2F30E0F901F5
:100A2000EE0FFF1FE20FF31FEA5AFC4F9283818300
:100A30004FBFDF91CF91FF90EF90DF90CF9008955F
:100A4000AF92BF92CF92DF92EF92FF920F931F93DC
:100A5000CF93DF936B017A01EC01C657DD4F2881FC
:100A60003CE0389F8001399F100D1124A090E603CF
:100A7000B12C27FF1FC0FB011182108288818F5F7C
:100A8000888388819801280F311D87FD3A95F601EA
:100A90002A153B051CF488818C30C4F1808191813A
:100AA000049680349C4908F473C0F60180819181DA
:100AB000049670C088819801280F311D87FD3A95F2
:100AC0002A153B05DCF68881A801480F511D87FDDA
:100AD0005A95FA01EE0FFF1FE40FF51FEA5AFC4F7B
:100AE000808186FFCBCF8881F801E80FF11D87FD5B
:100AF000FA95CF01EE0FFF1FE80FF91FEA5AFC4FDE
:100B0000808160E08F730E947803B8CF80819181EB
:100B10002881A801420F511D27FD5A959A01FA011B
:100B2000EE0FFF1FE20FF31FEA5AFC4F21813281C3
:100B3000820F931FF7019183808388819801280F8A
:100B4000311D87FD3A95F901EE0FFF1FE20FF31FEC
:100B5000EA5AFC4F808186FF22C08881080F111D50
:100B600087FD1A95F801EE0FFF1FE00FF11FEA5AFB
:100B7000FC4F808161E08F73DF91CF911F910F91C6
:100B8000FF90EF90DF90CF90BF90AF900C947803E0
:100B900080E49CE9F701918380838FEF8883DF9164
:100BA000CF911F910F91FF90EF90DF90CF90BF906A
:100BB000AF900895FC0101900020E9F73197AF0153
:100BC000481B590BBC0189EB92E00C9404028F92F4
:100BD0009F92AF92BF920F931F93CF93DF93CDB7A6
:100BE000DEB7A1970FB6F894DEBF0FBECDBF19A236
:100BF000423008F44AE08E010F5D1F4F842E912C85
:100C0000B12CA12CA50194010E943A0CE62FB90148
:100C1000CA01EA30F4F4E05DD801EE938D01232B94
:100C2000242B252B79F790E080E0109719F0CD0167
:100C30000E94DA05A1960FB6F894DEBF0FBECDBFB5
:100C4000DF91CF911F910F91BF90AF909F908F90A8
:100C50000895E95CE1CFCF92DF92EF92FF92CF93BC
:100C6000DF936B017C016DE289EB92E00E94DA0276
:100C7000EC0166277727CB016C197D098E099F0946
:100C80004AE00E94E7058C0F9D1FDF91CF91FF90F6
:100C9000EF90DF90CF9008950C94DA051F920F9299
:100CA0000FB60F9211240BB60F922F933F934F93D1
:100CB0005F936F937F938F939F93AF93BF93EF93C4
:100CC000FF938091A7029091A802A091A902B091F0
:100CD000AA02892B8A2B8B2BE1F190919602E0914D
:100CE0009702F09198028081892780838091A702E2
:100CF0009091A802A091A902B091AA021816190613
:100D00001A061B069CF48091A7029091A802A0915C
:100D1000A902B091AA020197A109B1098093A70283
:100D20009093A802A093A902B093AA02FF91EF9119
:100D3000BF91AF919F918F917F916F915F914F91F3
:100D40003F912F910F900BBE0F900FBE0F901F90F1
:100D50001895809100020E940404E8CF1F920F9220
:100D60000FB60F9211240BB60F922F933F934F9310
:100D70005F936F937F938F939F93AF93BF93EF9303
:100D8000FF9389EB92E00E94B802FF91EF91BF912F
:100D9000AF919F918F917F916F915F914F913F9113
:100DA0002F910F900BBE0F900FBE0F901F901895B4
:100DB0001F920F920FB60F9211240BB60F922F9322
:100DC0008F939F93EF93FF93E091C902F091CA0232
:100DD0008081E091CF02F091D00282FD1DC0908110
:100DE0008091D2028F5F8F732091D302821741F0DE
:100DF000E091D202F0E0E754FD4F958F8093D2024C
:100E0000FF91EF919F918F912F910F900BBE0F90BB
:100E10000FBE0F901F9018958081F2CF1F920F92F6
:100E20000FB60F9211242F933F938F939F93AF93FD
:100E3000BF938091B5029091B602A091B702B09194
:100E4000B80230918E0223E0230F2D3758F501961A
:100E5000A11DB11D20938E028093B5029093B6021E
:100E6000A093B702B093B80280918F029091900244
:100E7000A0919102B09192020196A11DB11D8093A3
:100E80008F0290939002A0939102B0939202BF912F
:100E9000AF919F918F913F912F910F900FBE0F9027
:100EA0001F90189526E8230F0296A11DB11DD2CFE1
:100EB0001F920F920FB60F9211240BB60F922F9321
:100EC0003F934F935F936F937F938F939F93AF93D2
:100ED000BF93EF93FF9348E251E064E271E090E04A
:100EE00080E00E942005FF91EF91BF91AF919F910B
:100EF0008F917F916F915F914F913F912F910F90C3
:100F00000BBE0F900FBE0F901F9018951F920F925F
:100F10000FB60F9211240BB60F922F933F934F935E
:100F20005F936F937F938F939F93AF93BF93EF9351
:100F3000FF9348EA50E064EA70E083E090E00E94AA
:100F40002005FF91EF91BF91AF919F918F917F917C
:100F50006F915F914F913F912F910F900BBE0F902A
:100F60000FBE0F901F9018951F920F920FB60F9201
:100F700011240BB60F922F933F934F935F936F9370
:100F80007F938F939F93AF93BF93EF93FF9348E922
:100F900050E064E970E082E090E00E942005FF915B
:100FA000EF91BF91AF919F918F917F916F915F91E1
:100FB0004F913F912F910F900BBE0F900FBE0F904E
:100FC0001F9018951F920F920FB60F9211240BB617
:100FD0000F922F933F934F935F936F937F938F93D2
:100FE0009F93AF93BF93EF93FF9348E850E064E87B
:100FF00070E081E090E00E942005FF91EF91BF91A9
:10100000AF919F918F917F916F915F914F913F91A0
:101010002F910F900BBE0F900FBE0F901F90189541
:101020001092BC021092BB0288EE93E0A0E0B0E008
:101030008093BD029093BE02A093BF02B093C00202
:1010400085E092E09093BA028093B90285EC90E03B
:101050009093C6028093C50284EC90E09093C802FE
:101060008093C70280EC90E09093CA028093C902FB
:1010700081EC90E09093CC028093CB0282EC90E0E4
:101080009093CE028093CD0286EC90E09093D002B4
:101090008093CF021092D2021092D3021092D40207
:1010A0001092D5028091E603803348F591E0980FC5
:1010B0009093E6038093EA0390E0FC01EE0FFF1F9C
:1010C000E80FF91FEA5AFC4F88EB9BE0928381837B
:1010D0008091E6038033B8F491E0980F9093E60393
:1010E0008093E70390E0FC01EE0FFF1FE80FF91F6C
:1010F000EA5AFC4F88EB9BE09283818308958FEF3F
:101100008093EA03E5CF8FEF8093E7030895789407
:1011100084B5826084BD84B5816084BD85B58260FC
:1011200085BD85B5816085BD80916E0081608093AD
:101130006E00109281008091810082608093810016
:101140008091810081608093810080918000816026
:10115000809380008091B10084608093B100809181
:10116000B00081608093B000809191008260809394
:101170009100809191008160809391008091900016
:101180008160809390008091A10082608093A10093
:101190008091A10081608093A1008091A000816076
:1011A0008093A00080912101826080932101809131
:1011B00021018160809321018091200181608093D1
:1011C000200180917A00846080937A0080917A0077
:1011D000826080937A0080917A00816080937A00A7
:1011E00080917A00806880937A001092C1008DE02F
:1011F0000E945C0189E00E945C018BE00E945C011E
:10120000E091C902F091CA0282E08083E091C502B8
:10121000F091C6021082E091C702F091C8028FECF3
:1012200080831092D102E091CD02F091CE0286E04F
:101230008083E091CB02F091CC0280818061808339
:10124000E091CB02F091CC02808188608083E091B4
:10125000CB02F091CC02808180688083E091CB0248
:10126000F091CC0280818F7D80836CE070E08AEE0B
:1012700093E00E947B016CE070E087EE93E00E94B7
:101280007B01CCE2D1E088248A94982C54017FE33E
:10129000272E7FE1372EEEEC4E2EE1E05E2EF4E1BC
:1012A0006F2EF2E07F2E89EB92E00E94A2021816C8
:1012B00019060CF055C00E946202FC0197FDECC0BB
:1012C0008D32910521F0C0970A9708F0DEC0C12C3D
:1012D000D12C760110E0E130F105D9F0ED32F105C5
:1012E00009F4D8C0CF01C0970A9798F4AAE0B0E0FB
:1012F000A70196010E94270C6F01FF0FEE08FF085F
:10130000C60ED71EE81EF91E80E3C81AD108E108F0
:10131000F10889EB92E00E9440020E946202FC0107
:10132000C0970A97C0F2E130F105A9F2112341F00C
:10133000F094E094D094C094C11CD11CE11CF11C29
:10134000D092B402C092B302B601DD0C880B990BA7
:1013500097FFA6C00E942B0683E192E00E94DA0567
:101360008091B3029091B402883C9105A1F461E0B0
:101370008DE00E94780384E192E00E944C0686E1B1
:1013800092E00E944C0684E192E00E944C06D093C9
:10139000B402C093B3028091B3029091B402893C2D
:1013A0009105A1F460E08DE00E94780384E192E071
:1013B0000E944C0686E292E00E944C0684E192E094
:1013C0000E944C06D093B402C093B302E090B302E3
:1013D000F090B402E5EBEE16F10430F5B7018AEEB9
:1013E00093E00E94A404B70187EE93E00E94A40456
:1013F00084E192E00E944C0686E392E00E944C0653
:101400006091B3027091B402072E000C880B990B07
:1014100097FF4AC00E942B0684E192E00E944C068E
:10142000D093B402C093B3028091B3029091B402FE
:101430008B3C910509F0A6C1809100028B30C1F56B
:10144000EEE8F1E0149117FD8AC18BE00E945C0187
:10145000112309F4FDC0123009F00EC18091B100D2
:10146000887F83608093B10089EF8093B30080927E
:10147000A7029092A802A092A902B092AA0280911B
:1014800070008260809370006AC189EB92E00E94D4
:10149000400211CF11E03DCFC12CD12C760150CFAD
:1014A0004AE00E94E70558CF4AE00E94E705B4CF22
:1014B0008F3F09F054C18BE080930002EEE8F1E029
:1014C0001491812F1F3F09F44AC1123009F464C0FE
:1014D00058F4112369F1113009F441C087FD3FC16F
:1014E0008BE00E945C01B7CF143009F494C008F47B
:1014F00074C0153099F7109220011092210180914B
:101500002101886080932101809121018160809375
:101510002101F2018491E82FF0E0EE0FFF1FE15767
:10152000FE4F85919491F3018491809393028DCF26
:1015300014BC15BC84B5826084BD85B5816085BD51
:10154000F2018491E82FF0E0EE0FFF1FE157FE4F0C
:1015500085919491F301849180939A0276CF1092B1
:1015600080001092810080918100886080938100CA
:1015700080918100816080938100F2018491E82F45
:10158000F0E0EE0FFF1FE157FE4F85919491F301BC
:1015900084918093990259CF1092B0001092B100BB
:1015A0008091B00082608093B0008091B100816032
:1015B0008093B100F2018491E82FF0E0EE0FFF1F5D
:1015C000E157FE4F859194919093980280939702F2
:1015D000F30184918093960238CF1092900010927C
:1015E000910080919100886080939100809191009A
:1015F000816080939100F2018491E82FF0E0EE0F7A
:10160000FF1FE157FE4F85919491F30184918093E0
:10161000950213E01ACF1092A0001092A1008091C1
:10162000A10088608093A1008091A10081608093D7
:10163000A100F2018491E82FF0E0EE0FFF1FE157C7
:10164000FE4F85919491F301849180939402FDCE95
:1016500085B5887F836085BD8CE787BD8092AF02AA
:101660009092B002A092B102B092B20280916E004C
:10167000826080936E0073C01130C1F4809181004C
:10168000887F816080938100309289002092880059
:101690008092AB029092AC02A092AD02B092AE02E8
:1016A00080916F00826080936F0059C01330C1F445
:1016B00080919100887F81608093910030929900A1
:1016C000209298008092A3029092A402A092A50278
:1016D000B092A602809171008260809371003FC039
:1016E0001430C1F48091A100887F81608093A100B3
:1016F0003092A9002092A80080929F029092A002AE
:10170000A092A102B092A2028091720082608093A6
:10171000720025C01530C1F480912101887F81605D
:1017200080932101309229012092280180929B020E
:1017300090929C02A0929D02B0929E0280917300B2
:101740008260809373000BC0123009F45FC00CF00C
:1017500052C0112309F458C0113009F495CF84E127
:1017600092E00E944C068BE492E00E944C060E949C
:101770006E048BE00E9404040E946E04D093B402B5
:10178000C093B3028091B3029091B4028C3C910556
:10179000A1F461E089E00E94780384E192E00E9474
:1017A0004C068CE592E00E944C0684E192E00E9497
:1017B0004C06D093B402C093B3028091B3029091CF
:1017C000B4028D3C9105A1F460E089E00E947803A9
:1017D00084E192E00E944C0682E792E00E944C066F
:1017E00084E192E00E944C06D093B402C093B3020D
:1017F0000E94470358CD143009F47ACF0CF45ECF21
:10180000153009F48FCFABCF8FE327CF8FE32DCEE9
:10181000052E97FB1EF400940E941F0C57FD07D065
:101820000E943A0C07FC03D04EF40C941F0C509508
:101830004095309521953F4F4F4F5F4F08959095BC
:101840008095709561957F4F8F4F9F4F08950E94AF
:101850005C0CA59F900DB49F900DA49F800D911DD1
:1018600011240895B7FF0C94270C0E94270C821BAB
:10187000930B0895A1E21A2EAA1BBB1BFD010DC0FC
:10188000AA1FBB1FEE1FFF1FA217B307E407F50730
:1018900020F0A21BB30BE40BF50B661F771F881F0C
:1018A000991F1A9469F760957095809590959B01A2
:1018B000AC01BD01CF010895A29FB001B39FC0014B
:1018C000A39F700D811D1124911DB29F700D811D6C
:1018D0001124911D0895991B79E004C0991F961752
:1018E00008F0961B881F7A95C9F780950895EE0F2A
:1018F000FF1F881F8BBF0790F691E02D1994F89475
:02190000FFCF17
:10190200FF00000000DA02040231022703A20240B3
:101912000254020D0A0046726F6E746C6967687435
:1019220073204F4E210046726F6E746C6967687443
:1019320073204F464600576865656C20616E676C80
:10194200652073657420746F3A200042757A7A6557
:1019520072207475726E6564206F6E0041726D69DB
:101962007475726573207475726E6564204F4E3A99
:10197200200041726D697475726573207475726EA0
:0A1982006564204F46463A2000003D
:00000001FF
