:100000000C9424010C9438010C9438010C943801A0
:100010000C9438010C9438010C9438010C9438017C
:100020000C9438010C9438010C9438010C9438016C
:100030000C9438010C9438010C9438010C9438015C
:100040000C9438010C9438010C9438010C9438014C
:100050000C9438010C9438010C9438010C94720201
:100060000C9438010C9438010C9438010C9438012C
:100070000C9438010C9438010C9438010C9438011C
:100080000C9438010C9438010C9438010C9438010C
:100090000C9438010C9438010C9438010C943801FC
:1000A0000C9438010C9438010C9438010C943801EC
:1000B0000C9438010C9438010C9438010C943801DC
:1000C0000C9438010C9438010C9438010C943801CC
:1000D0000C9438010C9438010C9438010C943801BC
:1000E0000C9438010C9492010C94BC010C94B8014E
:1000F0000C9481010C94A4010C94B7010C94AE01F2
:100100000C9477010C948C010C9485010C949C0147
:100110000C9489010C9496010C947D010C94A0011F
:100120000C94B2010C94AA010000200023002600C8
:1001300029002C002F0032000001000003010601FD
:10014000090100000A0B02090C0D0E080703040147
:10015000000000000000000000000000000000009F
:10016000000000000000000000000000000012116C
:10017000100000000000000000000000000000006F
:100180000000000000000000000022002500280000
:100190002B002E003100340002010000050108018F
:1001A0000B0100002100240027002A002D00300050
:1001B000330001010000040107010A0105050505DE
:1001C000070508080808020202020A0A08080404CF
:1001D00004040101010101010101030303030303FD
:1001E0000303040707070C0C0C0C0C0C0C0C02028C
:1001F000020206060606060606060B0B0B0B0B0B89
:100200000B0B010210202008081020401020408015
:1002100002010201080402010102040810204080CA
:100220008040201008040201800402018040201058
:1002300008040201080402010102040810204080A1
:10024000010204081020408011241FBECFEFD1E22C
:10025000DEBFCDBF00E00CBF22E0A0E0B2E001C0F5
:100260001D92A930B207E1F70E94BC020C94D203A0
:100270000C94000090E0FC01EE5FFD4F249184544B
:100280009E4FFC018491882399F090E0880F991F7C
:10029000FC01EE55FE4FA591B491FC01E857FE4FCD
:1002A000859194918FB7F894EC91E22BEC938FBFEA
:1002B00008958150823108F05AC0E82FF0E0882775
:1002C000EB59FE4F8F4F0C94CA03850189017701CA
:1002D0007D018101B7018C01920196019C01A00171
:1002E000A401AA01AE01B701B201B801BC0180911D
:1002F00080008F77809380000895809180008F7DAB
:10030000F9CF80918000877FF5CF84B58F7784BD4A
:10031000089584B58F7DFBCF8091B0008F77809357
:10032000B00008958091B0008F7DF9CF809190004A
:100330008F77809390000895809190008F7DF9CF02
:1003400080919000877FF5CF8091A0008F77809378
:10035000A00008958091A0008F7DF9CF8091A0002A
:10036000877FF5CF809120018F77809320010895BA
:10037000809120018F7DF9CF80912001877FF5CF7B
:10038000CF93DF93282F30E0F901EE5BFE4F84918D
:10039000F901EE5FFD4FD491F901E454FE4FC49191
:1003A000CC23A1F081110E945901EC2FF0E0EE0F57
:1003B000FF1FE85DFE4FA591B491EC91ED2381E024
:1003C00090E009F480E0DF91CF91089580E090E023
:1003D000FACF1F93CF93DF93282F30E0F901EE5B24
:1003E000FE4F8491F901EE5FFD4FD491F901E45481
:1003F000FE4FC491CC23A9F0162F81110E94590100
:10040000EC2FF0E0EE0FFF1FE857FE4FA591B491DF
:100410008FB7F894EC91111108C0D095DE23DC93CE
:100420008FBFDF91CF911F910895DE2BF8CF3FB79B
:10043000F8948091050290910602A0910702B09174
:10044000080226B5A89B05C02F3F19F00196A11DF3
:10045000B11D3FBFBA2FA92F982F8827BC01CD010E
:10046000620F711D811D911D42E0660F771F881F6D
:10047000991F4A95D1F708958F929F92AF92BF929C
:10048000CF92DF92EF92FF920E9417024B015C0124
:1004900088EEC82E83E0D82EE12CF12C0E941702A2
:1004A000681979098A099B09683E7340810591059D
:1004B000A8F321E0C21AD108E108F10888EE880EFD
:1004C00083E0981EA11CB11CC114D104E104F10405
:1004D00029F7FF90EF90DF90CF90BF90AF909F9063
:1004E0008F9008951F920F920FB60F9211242F93A1
:1004F0003F938F939F93AF93BF938091010290910D
:100500000202A0910302B09104023091000223E0A4
:10051000230F2D3758F50196A11DB11D2093000220
:100520008093010290930202A0930302B09304020D
:100530008091050290910602A0910702B0910802F5
:100540000196A11DB11D8093050290930602A09310
:100550000702B0930802BF91AF919F918F913F9195
:100560002F910F900FBE0F901F90189526E8230F24
:100570000296A11DB11DD2CF789484B5826084BD4E
:1005800084B5816084BD85B5826085BD85B5816097
:1005900085BD80916E00816080936E001092810015
:1005A00080918100826080938100809181008160D0
:1005B0008093810080918000816080938000809191
:1005C000B10084608093B1008091B000816080931D
:1005D000B0008091910082608093910080919100A1
:1005E0008160809391008091900081608093900061
:1005F0008091A10082608093A1008091A100816020
:100600008093A1008091A00081608093A0008091E0
:10061000210182608093210180912101816080937A
:1006200021018091200181608093200180917A00D6
:10063000846080937A0080917A00826080937A004F
:1006400080917A00816080937A0080917A0080683E
:1006500080937A001092C10081E00E943A0182E00A
:100660000E943A0183E00E943A0184E00E943A012C
:1006700085E00E943A0186E00E943A0187E00E94EC
:100680003A01C0E0D0E088E00E94C0016C0189E03E
:100690000E94C0017C018AE00E94C0018C01CA94C2
:1006A000CD2841F561E087E00E94E9010E943C020B
:1006B00061E086E00E94E9010E943C0261E085E081
:1006C0000E94E9010E943C0261E084E00E94E9018D
:1006D0000E943C0261E083E00E94E9010E943C022A
:1006E00061E082E00E94E9010E943C0261E081E059
:1006F0000E94E901EA94EF2841F561E081E00E945F
:10070000E9010E943C0261E082E00E94E9010E944E
:100710003C0261E083E00E94E9010E943C0261E04A
:1007200084E00E94E9010E943C0261E085E00E94B1
:10073000E9010E943C0261E086E00E94E9010E941A
:100740003C0261E087E00E94E90101301105E1F41B
:1007500060E081E00E94E90160E082E00E94E9013E
:1007600060E083E00E94E90160E084E00E94E9012A
:1007700060E085E00E94E90160E086E00E94E90116
:1007800060E087E00E94E901209709F47CCF0E9495
:10079000000079CFEE0FFF1F881F8BBF0790F691E7
:0807A000E02D1994F894FFCF3D
:00000001FF
