:100000000C9441010C9472010C9472010C947201D5
:100010000C9472010C9472010C9472010C94720194
:100020000C9472010C9472010C9472010C94720184
:100030000C9472010C9472010C9472010C94720174
:100040000C9472010C9472010C9472010C94720164
:100050000C9472010C9472010C9472010C94B80609
:100060000C9472010C9482060C9458060C94720144
:100070000C9472010C9472010C9472010C94720134
:100080000C9472010C9472010C9472010C94720124
:100090000C9472010C9472010C9472010C94720114
:1000A0000C9472010C9472010C9472010C94720104
:1000B0000C9472010C9472010C9472010C947201F4
:1000C0000C9472010C9472010C9472010C947201E4
:1000D0000C9472010C9472010C9472010C947201D4
:1000E0000C9472010C943C040C946B030C94CB03A1
:1000F0000C9490030C949E030C9459030C94860367
:100100000C947E030C9467030C9466020C94B30267
:100110000C946E030C94AB050C9466040C9474035D
:100120000C948C030C940E030C9465040C945F03E4
:100130000C942A020C9402070C949A030C949403D6
:100140000C94FC030C9407020C9463030C941602A9
:100150000C9478030C9499030C9482030C94380249
:1001600000002100240027002A002D003000330069
:1001700001010000040107010A010000220025001E
:1001800028002B002E003100340002010000050180
:1001900008010B01000020002300260029002C008C
:1001A0002F003200000100000301060109010505CE
:1001B0000505070508080808020202020A0A0808DD
:1001C000040404040101010101010101030303030B
:1001D00003030303040707070C0C0C0C0C0C0C0C9A
:1001E0000202020206060606060606060B0B0B0BAB
:1001F0000B0B0B0B010210202008081020401020D0
:1002000040800201020108040201010204081020DA
:1002100040808040201008040201800402018040D8
:100220002010080402010804020101020408102041
:100230004080010204081020408000000A0B0209DF
:100240000C0D0E0807030401000000000000000070
:10025000000000000000000000000000000000009E
:10026000000000000000121110000000000000005B
:10027000000000000000000000000000000000007E
:10028000020711241FBECFEFD1E2DEBFCDBF00E0D9
:100290000CBF12E0A0E0B2E0E4E7F7E100E00BBF42
:1002A00002C007900D92A639B107D9F723E0A6E95D
:1002B000B2E001C01D92A23DB207E1F711E0C1E436
:1002C000D1E000E006C021970109802FFE010E94C5
:1002D000960BC034D10780E00807A9F70E94BA073F
:1002E0000C94B80B0C94000096E0899FD001112467
:1002F000AD59BC4F90967C936E935F9791E0919629
:100300009C939197E091D003F091D1039091CF030A
:10031000992339F0309751F0811108C080917F0303
:100320001994309719F05C968C91FACF0895CF927A
:10033000DF92EF92FF920F931F9396E0899FF00157
:100340001124ED59FC4F11A2278D30A12130310528
:1003500051F178F02230310509F451C023303105D4
:1003600009F452C01F910F91FF90EF90DF90CF9052
:1003700008956623B9F361E070E00E9474012FB71D
:10038000F8948091AA029091AB02A091AC02B09136
:10039000AD022FBF8093BB039093BC03A093BD031A
:1003A000B093BE03DFCF9FB7F894C090AA02D0905D
:1003B000AB02E090AC02F090AD029FBF0091BB0396
:1003C0001091BC032091BD033091BE03C01AD10A25
:1003D000E20AF30A0091CD031091CE0330E020E051
:1003E0000C151D052E053F0550F462E070E01F91CD
:1003F0000F91FF90EF90DF90CF900C9474016111FA
:10040000B1CF63E070E0F3CF70E060E0F0CFFC01CB
:10041000538D448D252F30E0842F90E0821B930B69
:10042000541710F0CF96089501970895FC01918D0F
:10043000828D981761F0A28DAE0FBF2FB11D5D9612
:100440008C91928D9F5F9F73928F90E008958FEFB4
:100450009FEF0895FC01918D828D981731F0828D68
:10046000E80FF11D858D90E008958FEF9FEF0895BF
:10047000FC01918D228D892F90E0805C9F4F821B23
:1004800091098F7399270895FC01A48DA80FB92FA6
:10049000B11DA35ABF4F2C91848D90E001968F73AC
:1004A0009927848FA689B7892C93A089B1898C91CB
:1004B000837080648C93938D848D981306C002881A
:1004C000F389E02D80818F7D80830895EF92FF92E4
:1004D0000F931F93CF93DF93EC0181E0888F9B8D67
:1004E0008C8D98131AC0E889F989808185FF15C021
:1004F0009FB7F894EE89FF896083E889F989808144
:100500008370806480839FBF81E090E0DF91CF9112
:100510001F910F91FF90EF900895F62E0B8D10E034
:100520000F5F1F4F0F731127E02E8C8D8E110CC0A3
:100530000FB607FCFACFE889F989808185FFF5CFEE
:10054000CE010E944402F1CFEB8DEC0FFD2FF11D87
:10055000E35AFF4FF0829FB7F8940B8FEA89FB892B
:1005600080818062CFCFCF93DF93EC01888D882389
:10057000B9F0AA89BB89E889F9898C9185FD03C006
:10058000808186FD0DC00FB607FCF7CF8C9185FFEB
:10059000F2CF808185FFEDCFCE010E944402E9CFEA
:1005A000DF91CF9108958EEA92E00E94380221E017
:1005B000892B09F420E0822F089580E090E0892BB8
:1005C00029F00E94D30281110E94000080E090E097
:1005D000892B49F080E090E0892B29F00E940000EF
:1005E00081110E94000080E090E0892B49F080E0BA
:1005F00090E0892B29F00E94000081110E940000E8
:1006000080E090E0892B49F080E090E0892B29F090
:100610000E94000081110C9400000895AF92BF92D7
:10062000CF92DF92EF92FF920F931F93CF93DF93BE
:100630006C017B018B01040F151FEB015E01AE18ED
:10064000BF08C017D10759F06991D601ED91FC910F
:100650000190F081E02DC6011995892B79F7C5012C
:10066000DF91CF911F910F91FF90EF90DF90CF908E
:10067000BF90AF9008958150823108F05AC0E82FA2
:10068000F0E08827E95BFC4F8F4F0C94960B6703D3
:100690006B0359035F03630399036E0374037803C9
:1006A0007E03820386038C039003990394039A03C9
:1006B0009E03809180008F778093800008958091C1
:1006C00080008F7DF9CF80918000877FF5CF84B542
:1006D0008F7784BD089584B58F7DFBCF8091B00066
:1006E0008F778093B00008958091B0008F7DF9CF0F
:1006F000809190008F778093900008958091900072
:100700008F7DF9CF80919000877FF5CF8091A000F9
:100710008F778093A00008958091A0008F7DF9CFFE
:100720008091A000877FF5CF809120018F77809303
:1007300020010895809120018F7DF9CF80912001C3
:10074000877FF5CFCF93DF93282F30E0F901E65C68
:10075000FD4F8491F901EC50FE4FD491F901E2551F
:10076000FE4FC491CC23A1F081110E943B03EC2FDA
:10077000F0E0EE0FFF1FEC56FE4FA591B491EC9107
:10078000ED2381E090E009F480E0DF91CF910895BE
:1007900080E090E0FACF862F0C94A2031F93CF93B2
:1007A000DF93282F30E0F901E65CFD4F8491F901D9
:1007B000EC50FE4FD491F901E255FE4FC491CC2389
:1007C000A9F0162F81110E943B03EC2FF0E0EE0FF1
:1007D000FF1FE658FE4FA591B4918FB7F894EC91A6
:1007E000111108C0D095DE23DC938FBFDF91CF912C
:1007F0001F910895DE2BF8CF862F642F0C94CE0323
:10080000CF93DF9390E0FC01EC50FE4F2491825592
:100810009E4FFC0184918823C9F090E0880F991FB6
:10082000FC01E05AFE4FA591B491FC01E658FE4F41
:10083000C591D49161110DC09FB7F8948C9120950A
:1008400082238C938881282328839FBFDF91CF91B7
:100850000895623051F49FB7F8943C91822F8095AF
:1008600083238C93E8812E2BEFCF8FB7F894EC91F4
:100870002E2B2C938FBFEACF862F642F0C9400046D
:100880003FB7F8948091970290919802A0919902B5
:10089000B0919A0226B5A89B05C02F3F19F001968A
:1008A000A11DB11D3FBFBA2FA92F982F8827BC01CA
:1008B000CD01620F711D811D911D42E0660F771FF2
:1008C000881F991F4A95D1F70895089590E080E018
:1008D0000895CF93DF93EC0160E08E810E94CE03F8
:1008E00061E08E810E94CE0360E08E810E94CE0383
:1008F0008BE891E00197F1F7DF91CF910895CF92C6
:10090000DF92EF92FF920F931F93CF93DF936C01CF
:100910007C0187E0E80EF11CD0E0C0E0062F10E07B
:10092000B8010C2E02C0759567950A94E2F76170C4
:10093000F70181917F010E94CE032196C430D10539
:1009400079F7C601DF91CF911F910F91FF90EF9042
:10095000DF90CF900C946904CF92DF92EF92FF92D8
:100960000F931F93CF93DF93EC01F62E642F8C81AE
:100970000E94CE038D818F3F19F060E00E94CE036C
:100980000F2D10E08F8584FF25C06E0187E0C80E13
:10099000D11CF12CE12CB8010E2C02C07595679585
:1009A0000A94E2F76170F60181916F010E94CE0313
:1009B000FFEFEF1AFF0A88E0E816F10461F7CE01B5
:1009C000DF91CF911F910F91FF90EF90DF90CF902B
:1009D0000C946904B80184E0759567958A95E1F7F0
:1009E000CE010E947F046F2DCE01DF91CF911F9128
:1009F0000F91FF90EF90DF90CF900C947F0440E038
:100A0000682F8BE493E00C94AC04CF93DF93823097
:100A100029F490915A03986090935A0380935E034F
:100A200010925F0380E48093600380E18093610310
:100A300080E58093620361E080914F030E9400048F
:100A4000809150038F3F19F061E00E94000461E043
:100A5000809151030E940004CBE4D3E09E012B540B
:100A6000334080915A0384FD0BC084E090E02196CE
:100A70002817390744F461E08E810E940004EECF0C
:100A800088E090E0F4CF8BE39DE00197F1F760E020
:100A900080914F030E94CE0360E0809151030E9439
:100AA000CE03809150038F3F19F060E00E94CE0387
:100AB00080915A0384FD39C063E08BE493E00E9487
:100AC0007F04CBE4D6E4CE010197F1F763E08BE439
:100AD00093E00E947F042197F1F763E08BE493E0B9
:100AE0000E947F0483E592E00197F1F762E08BE4D6
:100AF00093E00E947F0480915A0380620E94FF0469
:100B000084E080935B038CE00E94FF0481E00E94FC
:100B1000FF048BE39FE10197F1F782E080935C0390
:100B200086E0DF91CF910C94FF0480620E94FF0465
:100B30008BE496E40197F1F780915A0380620E945A
:100B4000FF0483E592E00197F1F780915A038062F8
:100B50000E94FF04D0CF41E00E94AC0481E090E00D
:100B60000895FB0101900020E9F73197AF01461B82
:100B7000570BDC01ED91FC910280F381E02D19947B
:100B8000CF93DF93BC018EEA92E00E94B105EC01A5
:100B900060E472E08EEA92E00E94B1058C0F9D1F26
:100BA000DF91CF9108954F925F926F927F92AF92B3
:100BB000BF92CF92DF92EF92FF920F931F93CF934A
:100BC000DF93CDB7DEB7A1970FB6F894DEBF0FBEA7
:100BD000CDBF5C016A017B01F7FE47C0DC01ED91EE
:100BE000FC910190F081E02D6DE219958C01222796
:100BF0003327A9012C193D094E095F0919A2FE01ED
:100C0000B1967F019AE0492E512C612C712CCA01BA
:100C1000B901A30192010E94550B605DD7016E934B
:100C20007D01211531054105510589F790E080E0EE
:100C3000109721F0BD01C5010E94B105800F911FE1
:100C4000A1960FB6F894DEBF0FBECDBFDF91CF9156
:100C50001F910F91FF90EF90DF90CF90BF90AF90DA
:100C60007F906F905F904F900895AB01960119A20D
:100C70008E010F5D1F4F8AE0C82ED12CE12CF12C84
:100C8000CA01B901A70196010E94550B605DF801E8
:100C900062938F01211531054105510589F790E0D7
:100CA00080E0309769F2BF01C5010E94B105C8CF4D
:100CB0001F920F920FB60F9211240BB60F922F9323
:100CC0003F934F935F936F937F938F939F93AF93D4
:100CD000BF93EF93FF938EEA92E00E944402FF914C
:100CE000EF91BF91AF919F918F917F916F915F91A4
:100CF0004F913F912F910F900BBE0F900FBE0F9011
:100D00001F9018951F920F920FB60F9211240BB6D9
:100D10000F922F938F939F93EF93FF93E091BE02D7
:100D2000F091BF028081E091C402F091C50282FD82
:100D30001DC090818091C7028F5F8F732091C80280
:100D4000821741F0E091C702F0E0E255FD4F958F28
:100D50008093C702FF91EF919F918F912F910F90F8
:100D60000BBE0F900FBE0F901F9018958081F2CF91
:100D70001F920F920FB60F9211242F933F938F93D0
:100D80009F93AF93BF938091AA029091AB02A091E1
:100D9000AC02B091AD023091960223E0230F2D37C3
:100DA00058F50196A11DB11D209396028093AA02C9
:100DB0009093AB02A093AC02B093AD0280919702E6
:100DC00090919802A0919902B0919A020196A11D6A
:100DD000B11D8093970290939802A0939902B093CB
:100DE0009A02BF91AF919F918F913F912F910F9058
:100DF0000FBE0F901F90189526E8230F0296A11D95
:100E0000B11DD2CF1092B1021092B00288EE93E0E1
:100E1000A0E0B0E08093B2029093B302A093B4023A
:100E2000B093B5028CE192E09093AF028093AE0252
:100E300085EC90E09093BB028093BA0284EC90E042
:100E40009093BD028093BC0280EC90E09093BF022F
:100E50008093BE0281EC90E09093C1028093C00227
:100E600082EC90E09093C3028093C20286EC90E003
:100E70009093C5028093C4021092C7021092C802D8
:100E80001092C9021092CA0210926503109269036F
:100E90001092680310926A038AE392E090936403CD
:100EA00080936303EFE7F3E01082148213821582CC
:100EB000369683E0EB3BF807B9F784E092E0909335
:100EC000C6038093C50380E092E09093C8038093AB
:100ED000C70384E08093C9038093CA0388E092E04B
:100EE0009093C4038093C3038AE090E09093CC0373
:100EF0008093CB0384EF91E09093CE038093CD0356
:100F00001092D1031092D0031092BF031092C0032D
:100F10001092C1031092C2031092CF0310924E039D
:100F200010924D038EE292E090934C0380934B031A
:100F30008DE080934F038FEF809350038CE080937C
:100F400051038BE0809352038AE08093530389E03E
:100F50008093540388E080935503109256031092B7
:100F60005703109258031092590310925A0381E0CC
:100F70000C940505789484B5826084BD84B5816045
:100F800084BD85B5826085BD85B5816085BD809154
:100F90006E00816080936E001092810080918100CC
:100FA00082608093810080918100816080938100C4
:100FB000809180008160809380008091B100846086
:100FC0008093B1008091B00081608093B0008091E7
:100FD0009100826080939100809191008160809364
:100FE0009100809190008160809390008091A10099
:100FF00082608093A1008091A10081608093A10014
:101000008091A00081608093A00080912101826086
:101010008093210180912101816080932101809141
:10102000200181608093200180917A008460809308
:101030007A0080917A00826080937A0080917A00B1
:10104000816080937A0080917A00806880937A0032
:101050001092C10082E00E940505E0915E03E2303B
:1010600008F047C0E150F0E0E55BFC4F8489806800
:101070000E94FF04812C912C540183944FE9242E6B
:1010800043E0342E21E02093CF038FB7F8944091B2
:10109000AA025091AB026091AC027091AD028FBF79
:1010A0008091BF039091C003A091C103B091C2038E
:1010B000481B590B6A0B7B0B8091CB039091CC039F
:1010C000B0E0A0E084179507A607B70708F091C124
:1010D000C0E08091C903C81770F4E091C503F09196
:1010E000C603EC0FF11D62E080810E940004CF5F17
:1010F000F0CFE1E0B8CF512C8091CA03581608F028
:101100005FC0052D10E0E091C703F091C803E00F28
:10111000F11F61E080810E940004E091C703F0911B
:10112000C803E00FF11F60E080810E94CE03D5016B
:10113000C401052C04C0880F991FAA1FBB1F0A9465
:10114000D2F76C017C01E094F094412C8091C903AA
:101150004816F8F4C42DD0E0E091C503F091C60321
:10116000EC0FFD1F80810E94A2032496CC0FDD1F8F
:10117000CD59DC4F892B41F4888199818C299D2997
:10118000998388834394E2CF888199818E219F211E
:10119000F7CFE091C703F091C803E00FF11F61E0C2
:1011A00080810E94CE038091C7039091C803080FED
:1011B000191F60E0F80180810E94000453949CCFC5
:1011C000C3E6D3E08E01F801878D90A1892B31F41D
:1011D000148E2FEF3FEF368F258F11A20A5F1F4F1E
:1011E0002016310681F7F12C8091C903F81608F01A
:1011F00053C0E12CCF2CD12CCC0CDD1CA6014559C1
:101200005C4F6A012091CA03E21608F043C0F60160
:10121000608171810E2C02C0769567950A94E2F781
:10122000F29E900111242E0D311DE3E6F3E080E0E3
:10123000458D568D2417350709F425C28F5F3696E4
:101240008A30B1F760FF24C0E3E6F3E090E080E08D
:10125000448D411118C0E091C303F091C403E20F23
:10126000F31F608146E0489FF001499FF00D112473
:10127000ED59FC4F648F368F258F10A2178E61E0D9
:101280000E94970105C0019636968A30910501F7B4
:10129000E394B8CFF394A8CF80E099A19111892F5E
:1012A00026960C171D07C9F79FB7F8944091AA021C
:1012B0005091AB026091AC027091AD029FBF409320
:1012C000BF035093C0036093C1037093C20388238C
:1012D00009F48FC080918403882309F48AC0809127
:1012E000820390918303019709F083C0C0917F032B
:1012F000C093A902C11182C0C090A402D090A502DF
:10130000E090A602F090A7028091A8028823C9F07D
:101310008091A3028B3209F072C180919F0290915B
:10132000A002A091A102B091A2028C0D9D1DAE1D44
:10133000BF1D80939B0290939C02A0939D02B0934B
:101340009E02E1E080915E038111E0E0E195F0E032
:10135000E55BFC4F848980680E94FF04B701A60109
:101360008BE493E00E94D30541E06091A3028BE4FB
:1013700093E00E94AC0440919F025091A0026091C2
:10138000A1027091A2028BE493E00E94D3058091A8
:10139000A802882391F063E972E08BE493E00E9455
:1013A000B10540919B0250919C0260919D02709109
:1013B0009E028BE493E00E94D305E0915E03E2304D
:1013C00008F05FC1E150F0E0E55BFC4F8489806884
:1013D0000E94FF0440919B0250919C0260919D02EB
:1013E00070919E028BE493E00E94D3050E94DD027F
:1013F00049CE1092CF031092A9027ECF81E00E94C5
:10140000FF048BE39FE10197F1F7C053CA3008F066
:101410003FC063E472E08EEA92E00E94B105409121
:10142000A902042E000C550B40535109052E000C47
:10143000660B770B8EEA92E00E94D30560E472E0BF
:101440008EEA92E00E94B10520919B0230919C02AD
:1014500040919D0250919E02AAE0B0E00E949E0B36
:10146000AB01BC018091A902082E000C990BC0971A
:10147000092E000CAA0BBB0B840F951FA61FB71FCC
:1014800080939B0290939C02A0939D02B0939E0236
:101490008091A9028A3201F58BE492E00E94C00596
:1014A00010929F021092A0021092A1021092A2022A
:1014B0001092A4021092A5021092A6021092A70206
:1014C00010929B0210929C0210929D0210929E021A
:1014D0001092A3021092A8028091A9028332B9F45B
:1014E00089E592E00E94C00580919B0290919C0248
:1014F000A0919D02B0919E0280939F029093A002C2
:10150000A093A102B093A20251E05093A80280914F
:10151000A9029FEB980F943008F0EECE40919B0209
:1015200050919C0260919D0270919E024093A40292
:101530005093A5026093A6027093A70210929F0297
:101540001092A0021092A1021092A20210929B028D
:1015500010929C0210929D0210929E021092A8027C
:10156000813439F486E692E00E94C0058BE28093D4
:10157000A3028091A902823439F48FE692E00E949E
:10158000C0058DE28093A3028091A902833439F4CF
:101590008BE792E00E94C0059AE29093A3028091AB
:1015A000A902843439F48AE892E00E94C005EFE28F
:1015B000E093A3020E9440042B013C0184E6C82E64
:1015C000D12CE12CF12C0E94400464197509860984
:1015D0009709683E734081059105A8F3F1E0CF1AA1
:1015E000D108E108F10828EE420E23E0521E611CEA
:1015F000711CC114D104E104F10429F77DCE8D32B0
:1016000089F480919F029091A002A091A102B091D3
:10161000A202A7019601281B390B4A0B5B0BDA01CA
:10162000C90187CE8A32A9F420919F023091A0028D
:101630004091A1025091A202C701B6010E94450B40
:1016400060939B0270939C0280939D0290939E02F4
:1016500078CE8F3209F075CE20919F023091A00292
:101660004091A1025091A202C701B6010E94770BDE
:1016700020939B0230939C0240939D0250939E02C4
:1016800060CEE1E0A0CE6170FBCDDB018F939F9334
:101690000E949E0BBF91AF91A29F800D911DA39FB1
:1016A000900DB29F900D11240895A1E21A2EAA1B4D
:1016B000BB1BFD010DC0AA1FBB1FEE1FFF1FA21702
:1016C000B307E407F50720F0A21BB30BE40BF50BFF
:1016D000661F771F881F991F1A9469F76095709588
:1016E000809590959B01AC01BD01CF010895052E19
:1016F00097FB1EF400940E948E0B57FD07D00E94AA
:10170000550B07FC03D04EF40C948E0B509540956E
:10171000309521953F4F4F4F5F4F0895909580959D
:10172000709561957F4F8F4F9F4F0895EE0FFF1F6C
:10173000881F8BBF0790F691E02D19940E94A90B8A
:10174000A59F900DB49F900DA49F800D911D112415
:101750000895A29FB001B39FC001A39F700D811D8A
:101760001124911DB29F700D811D1124911D0895AA
:04177000F894FFCF1B
:10177400030201000706050437383944343536437B
:10178400313233422A3023410000000066020E0346
:101794000702B302380216022A0200000000AB0559
:1017A4000E0366046504000000003C04FC03CB0344
:1017B4000D0A00427574746F6E2000427574746F64
:1017C4006E2043616E63656C00427574746F6E20A5
:1017D400457175616C004164646974696F6E00538E
:1017E40075627472616374696F6E004D756C7469AF
:1017F400706C69636174696F6E00446576657369C2
:061804006F6E00203D00A4
:00000001FF
