:100000000C9440010C9471010C9471010C947101D9
:100010000C9471010C9471010C9471010C94710198
:100020000C9471010C9471010C9471010C94710188
:100030000C9471010C9471010C9471010C94710178
:100040000C9471010C94C50C0C9471010C94710109
:100050000C9471010C9471010C9471010C94F10BCE
:100060000C9471010C9471010C9471010C94710148
:100070000C9471010C9471010C9471010C94710138
:100080000C94970C0C9471010C9471010C947101F7
:100090000C9471010C9471010C9471010C94710118
:1000A0000C9471010C9471010C94690C0C94710105
:1000B0000C9471010C9471010C9471010C943B0C23
:1000C0000C9471010C9471010C9471010C947101E8
:1000D0000C9471010C9471010C9471010C947101D8
:1000E0000C9471010C9414020C940E020C943902BD
:1000F0000C941E020C9434020C943E020C942C02BC
:100100000C9476080C9430020C94CA040C94F901F7
:100110000C9407020C9426020C94FF010C940B0221
:100120000C944E050C94F3070C9422020C94B80422
:100130000C94B4040C94C6040C94AE010C94821379
:100140000C9418020C943A020C944F050C94030280
:100150000C947D100C94B1040C94B60600002100A0
:10016000240027002A002D00300033000101000088
:10017000040107010A0100002200250028002B00CD
:100180002E003100340002010000050108010B01BE
:10019000000020002300260029002C002F00320040
:1001A0000001000003010601090105050505070519
:1001B00008080808020202020A0A080804040404E3
:1001C000010101010101010103030303030303030F
:1001D000040707070C0C0C0C0C0C0C0C020202029E
:1001E00006060606060606060B0B0B0B0B0B0B0B87
:1001F0000102102020080810204010204080020139
:10020000020108040201010204081020408080401D
:10021000201008040201800402018040201008041C
:1002200002010804020101020408102040800102BA
:1002300004081020408000000A0B02090C0D0E0873
:10024000070304010000000000000000000000009F
:10025000000000000000000000000000000000009E
:10026000000012111000000000000000000000005B
:100270000000000000000000000000007D1082135C
:1002800011241FBECFEFD1E2DEBFCDBF00E00CBF17
:1002900013E0A0E0B2E0E6E6FCE200E00BBF02C043
:1002A00007900D92A639B107D9F726E0A6E9B3E089
:1002B00001C01D92A438B207E1F711E0CFE3D1E00D
:1002C00000E006C021970109802FFE010E94FA1369
:1002D000CE33D10780E00807A9F70E94F30C0C94F5
:1002E00021160C94000096E0899FD0011124A7509C
:1002F000BA4F90967C936E935F9791E091969C9302
:100300009197E0916606F0916706909165069923B2
:1003100039F0309751F0811108C080911506199479
:10032000309719F05C968C91FACF0895CF93DF93B4
:10033000009789F0EC01E091F505F091F605309712
:1003400031F06091F3057091F405CE011995D093C9
:10035000F405C093F305DF91CF910895AF92BF925A
:10036000CF92DF92EF92FF920F931F93CF93DF9381
:100370006C017B018B01040F151FEB015E01AE18B0
:10038000BF08C017D10759F06991D601ED91FC91D2
:100390000190F081E02DC6011995892B79F7C501EF
:1003A000DF91CF911F910F91FF90EF90DF90CF9051
:1003B000BF90AF9008958150823108F05AC0E82F65
:1003C000F0E08827E951FE4F8F4F0C94FA13070293
:1003D0000B02F901FF01030239020E021402180296
:1003E0001E02220226022C023002390234023A0294
:1003F0003E02809180008F778093800008958091E5
:1004000080008F7DF9CF80918000877FF5CF84B504
:100410008F7784BD089584B58F7DFBCF8091B00028
:100420008F778093B00008958091B0008F7DF9CFD1
:10043000809190008F778093900008958091900034
:100440008F7DF9CF80919000877FF5CF8091A000BC
:100450008F778093A00008958091A0008F7DF9CFC1
:100460008091A000877FF5CF809120018F778093C6
:1004700020010895809120018F7DF9CF8091200186
:10048000877FF5CFCF93DF93282F30E0F901EA5C27
:10049000FD4F8491F901E051FE4FD491F901E655E9
:1004A000FE4FC491CC23A1F081110E94DB01EC2FFF
:1004B000F0E0EE0FFF1FE057FE4FA591B491EC91D5
:1004C000ED2381E090E009F480E0DF91CF91089581
:1004D00080E090E0FACF1F93CF93DF93282F30E096
:1004E000F901EA5CFD4F8491F901E051FE4FD4918E
:1004F000F901E655FE4FC491CC23A9F0162F8111C6
:100500000E94DB01EC2FF0E0EE0FFF1FEA58FE4FD8
:10051000A591B4918FB7F894EC91111108C0D095C2
:10052000DE23DC938FBFDF91CF911F910895DE2BE7
:10053000F8CFCF93DF9390E0FC01E051FE4F249180
:1005400086559E4FFC0184918823C9F090E0880F66
:10055000991FFC01E45AFE4FA591B491FC01EA58A1
:10056000FE4FC591D49161110DC09FB7F8948C9145
:10057000209582238C938881282328839FBFDF9135
:10058000CF910895623051F49FB7F8943C91822F37
:10059000809583238C93E8812E2BEFCF8FB7F8942F
:1005A000EC912E2B2C938FBFEACF3FB7F89480911C
:1005B000A0039091A103A091A203B091A30326B53B
:1005C000A89B05C02F3F19F00196A11DB11D3FBF8B
:1005D000BA2FA92F982F8827BC01CD01620F711D5A
:1005E000811D911D42E0660F771F881F991F4A9554
:1005F000D1F708958F929F92AF92BF92CF92DF92E0
:10060000EF92FF924B015C010E94D5026B017C01CD
:100610000E94D5026C197D098E099F09683E7340BE
:1006200081059105A8F321E0821A9108A108B1087B
:1006300088EEC80E83E0D81EE11CF11C81149104E1
:10064000A104B10429F7FF90EF90DF90CF90BF9005
:10065000AF909F908F9008952FB7F89460919C036E
:1006600070919D0380919E0390919F032FBF0895E9
:100670000F931F93CF93DF93C82FD62F86E0C89F89
:10068000F0011124E750FA4F11A2878D90A181301B
:100690009105F1F058F082309105F1F1039709F4DA
:1006A00040C0DF91CF911F910F9108956623C9F348
:1006B00061E070E08C2F0E9473010E942C03609314
:1006C0005106709352068093530690935406E9CFD7
:1006D0000E942C030091510610915206209153065E
:1006E00030915406AB01BC01401B510B620B730BE4
:1006F0008091630690916406B0E0A0E084179507AE
:10070000A607B70748F462E070E08C2FDF91CF9125
:100710001F910F910C94730163E070E0D111C1CF70
:10072000F4CF70E060E0F1CF8F929F92AF92BF92D2
:10073000FF920F931F93CF93DF93FC01F0808FE222
:100740008F1508F44AC0828108E512E0081B1109E0
:1007500087FD1395000F111F000F111F8181C8E83D
:10076000D0E0C81BD10987FDD395CC0FDD1FCC0F7E
:10077000DD1F4E010D2E000CAA08BB089801012EAA
:10078000000C440B550B281939094A095B09DB0198
:100790000E94B51324EB30E040E050E00E948B1340
:1007A000820E931EA41EB51E8C169D062CF0E80129
:1007B000801691060CF4E4012297CC0FDD1F2FB7B1
:1007C000F8948F2D90E0FC01EE0FFF1FE80FF91F4A
:1007D000EC55FC4FD283C1832FBFDF91CF911F9186
:1007E0000F91FF90BF90AF909F908F900895AF9220
:1007F000BF92CF92DF92EF92FF920F931F93CF930E
:10080000DF936B017A01EC01C956DC4F28813CE093
:10081000389F8001399F100D1124A0909603B12CB0
:1008200027FF1FC0FB011182108288818F5F8883A0
:1008300088819801280F311D87FD3A95F6012A1508
:100840003B051CF488818C30C4F180819181049631
:1008500080349C4908F473C0F6018081918104962C
:1008600070C088819801280F311D87FD3A952A159F
:100870003B05DCF68881A801480F511D87FD5A957C
:10088000FA01EE0FFF1FE40FF51FEC55FC4F8081BE
:1008900086FFCBCF8881F801E80FF11D87FDFA951F
:1008A000CF01EE0FFF1FE80FF91FEC55FC4F8081C1
:1008B00060E08F730E946B02B8CF808191812881A4
:1008C000A801420F511D27FD5A959A01FA01EE0F1A
:1008D000FF1FE20FF31FEC55FC4F21813281820F85
:1008E000931FF7019183808388819801280F311D20
:1008F00087FD3A95F901EE0FFF1FE20FF31FEC554C
:10090000FC4F808186FF22C08881080F111D87FD62
:100910001A95F801EE0FFF1FE00FF11FEC55FC4F89
:10092000808161E08F73DF91CF911F910F91FF90D4
:10093000EF90DF90CF90BF90AF900C946B0280E46B
:100940009CE9F701918380838FEF8883DF91CF91BA
:100950001F910F91FF90EF90DF90CF90BF90AF90DD
:100960000895862F0C944202862F642F0C946B02FC
:10097000862F642F0C949902FC01808580FD04C0B1
:1009800082FB882780F9089580E00895862F642FE0
:100990000C949902FC0181850E94420221E0892B7E
:1009A00009F420E0822F0895CF92DF92EF92FF9218
:1009B0000F931F93CF93DF93EC0188858B7F8887FC
:1009C000CE010E94CA04182F888586958170181759
:1009D000B9F00E942C036A837B838C839D83888576
:1009E00092E089278887888582FB882780F9DF91B4
:1009F000CF911F910F91FF90EF90DF90CF900895CE
:100A00000E942C03CA80DB80EC80FD80AB01BC011E
:100A10004C195D096E097F098E819F81B0E0A0E0CD
:100A2000481759076A077B07F0F288858170181705
:100A3000D1F20E942C036A837B838C839D838885FB
:100A400091E08927846088870E942C030A851B8592
:100A50002C853D85601B710B820B930B6E877F8706
:100A6000888B998B0E942C036A877B878C879D8754
:100A7000BACFCF93DF93EC01698718860E94CA042E
:100A8000882319F08885836088870E942C036A83F5
:100A90007B838C839D83DF91CF910895089590E0AF
:100AA00080E00895AF92BF92CF92DF92EF92FF92D3
:100AB0000F931F93CF93DF937B01EC01CC0FDD1FCE
:100AC000C80FD91FC654DA4FB12CA12C94EBC92EF4
:100AD000D12C411105C084EBA82EB12CD12CC12CF6
:100AE00010E000E00E151F05FCF468EE73E080E0F6
:100AF00090E00E94FA0261E087E20E946B02B50179
:100B0000CE010E94940368EE73E080E090E00E94C2
:100B1000FA0260E087E20E946B02B601CE010E94F9
:100B200094030F5F1F4FDECFDF91CF911F910F9185
:100B3000FF90EF90DF90CF90BF90AF900895FB01B2
:100B400092878187DC0116967C936E931597238597
:100B50003485232B29F41B968D919C919487838750
:100B6000CF0108958F929F92AF92BF920F931F93E0
:100B7000CF93DF93CDB7DEB7A1970FB6F894DEBF62
:100B80000FBECDBF19A2423008F44AE08E010F5DBE
:100B90001F4F842E912CB12CA12CA50194010E94F1
:100BA000BD13E62FB901CA01EA3044F5E05DD80172
:100BB000EE938D01232B242B252B79F790E080E0F9
:100BC000109769F0FD0101900020E9F73197AF011E
:100BD0004A1B5B0BBD0188E696E00E94AE01A19620
:100BE0000FB6F894DEBF0FBECDBFDF91CF911F913E
:100BF0000F91BF90AF909F908F900895E95CD7CFF1
:100C0000009769F0FC0101900020E9F73197AF01EE
:100C1000481B590BBC0188E696E00C94AE0190E0AD
:100C200080E00895CF93DF93EC0160E08E810E9415
:100C30006B0261E08E810E946B0260E08E810E94F7
:100C40006B028BE891E00197F1F7DF91CF91089566
:100C5000CF92DF92EF92FF920F931F93CF93DF9388
:100C60006C017C0187E0E80EF11CD0E0C0E0062FAB
:100C700010E0B8010C2E02C0759567950A94E2F752
:100C80006170F70181917F010E946B022196C4304F
:100C9000D10579F7C601DF91CF911F910F91FF9098
:100CA000EF90DF90CF900C941206CF92DF92EF92EC
:100CB000FF920F931F93CF93DF93EC01F62E642FD7
:100CC0008C810E946B028D818F3F19F060E00E9441
:100CD0006B020F2D10E08F8584FF25C06E0187E029
:100CE000C80ED11CF12CE12CB8010E2C02C0759558
:100CF00067950A94E2F76170F60181916F010E9495
:100D00006B02FFEFEF1AFF0A88E0E816F10461F7C3
:100D1000CE01DF91CF911F910F91FF90EF90DF9067
:100D2000CF900C941206B80184E0759567958A956A
:100D3000E1F7CE010E9428066F2DCE01DF91CF9101
:100D40001F910F91FF90EF90DF90CF900C942806A9
:100D500040E0682F88E696E00C94550681E00E94FA
:100D6000A8068BE39FE10197F1F70895CF92DF92F8
:100D7000EF92FF927C010E94AE06F7018081918183
:100D800022E08C36920741F488E792E0FF90EF90E2
:100D9000DF90CF900C94000622E08733920719F47D
:100DA00082E492E0F3CF22E08435920719F484E5DF
:100DB00092E0ECCF22E08835920719F488E592E0C2
:100DC000E5CF22E08F35920719F48FE592E0DECF70
:100DD00022E08736920719F483E792E0D7CF22E02A
:100DE0008638920719F486E892E0D0CF22E0833962
:100DF000920719F483E992E0C9CF22E08F39920774
:100E000019F48FE992E0C2CF22E0843F920719F4EF
:100E100084E093E0BBCF22E08C3A920719F48BEB8D
:100E200092E0B4CF22E0813D920719F481ED92E087
:100E3000ADCF22E0883D920719F488ED92E0A6CF6D
:100E400022E0823E920719F482EE92E09FCF22E0E8
:100E50008F3E920719F48FEF92E098CF23E086310E
:100E6000920719F486E193E091CF23E08F31920746
:100E700019F48FE193E08ACF8B52934019F48BE2FF
:100E800093E084CF88E393E081CFCF93DF93613009
:100E900029F09091770698609093770660937B068F
:100EA00010927C0690E490937D0680937E06805C91
:100EB00080937F0661E080916C060E949902809188
:100EC0006D068F3F19F061E00E94990261E0809108
:100ED0006E060E949902C8E6D6E09E01285636406A
:100EE0008091770684FD0BC084E090E0219628175E
:100EF000390744F461E08E810E949902EECF88E0C8
:100F000090E0F4CF8BE39DE00197F1F760E08091F2
:100F10006C060E946B0260E080916E060E946B027C
:100F200080916D068F3F19F060E00E946B02809106
:100F3000770684FD34C063E088E696E00E942806C8
:100F4000CBE4D6E4CE010197F1F763E088E696E0C2
:100F50000E9428062197F1F763E088E696E00E9458
:100F6000280683E592E00197F1F762E088E696E0D3
:100F70000E9428068091770680620E94A80684E07D
:100F8000809378068CE00E94A8060E94AE0682E05C
:100F90008093790686E0DF91CF910C94A806806259
:100FA0000E94A8068BE496E40197F1F780917706FA
:100FB00080620E94A80683E592E00197F1F7809194
:100FC000770680620E94A806D5CF90917B0689178C
:100FD00010F08FEF890FE82FF0E0E859F94F84897E
:100FE00080680C94A80641E00E94550681E090E0DC
:100FF0000895CF92DF92EF92FF926C01990FEE0865
:10100000FF08F7FE16C041E06DE288E696E00E9418
:10101000550666277727CB016C197D098E099F0934
:101020004AE00E94B2050196FF90EF90DF90CF90CA
:1010300008954AE0C701B601FF90EF90DF90CF908E
:101040000C94B205FC0124813581232B39F421E075
:10105000FB018081882349F020E007C080819181D5
:101060000E94111621E0892BB9F7822F0895EF9283
:10107000FF920F931F93CF93DF93EC017B018A01C3
:1010800088819981009729F02A813B8124173507AF
:1010900088F4B8016F5F7F4F0E942715009791F089
:1010A000998388831B830A832C813D81232B11F430
:1010B000FC0110821D830C83B701888199810E94F5
:1010C0001A160CC088819981009711F00E949E1415
:1010D000198218821D821C821B821A82CE01DF9126
:1010E000CF911F910F91FF90EF9008952F923F9213
:1010F0004F925F926F927F928F929F92AF92BF9228
:10110000CF92DF92EF92FF920F931F93CF93DF93D3
:10111000CDB7DEB762970FB6F894DEBF0FBECDBF76
:1011200098878F830E94AE06EF81F8858081918138
:101130000E940006EF81F885608171811A82198210
:101140001C821B821E821D826115710561F0FB01EC
:1011500001900020E9F73197AF01461B570BCE01F4
:1011600001960E94370864E572E0CE0101960E9464
:101170002208811179C068E572E0CE0101960E94D3
:10118000220804E0E02EF12C811171C06FE572E0BD
:10119000CE0101960E94220815E0E12EF12C81116A
:1011A00066C066E872E0CE0101960E9422088111B5
:1011B00058C063E972E0CE0101960E942208EE2435
:1011C000E394F12C811153C06FE972E0CE010196D6
:1011D0000E942208A2E0EA2EF12C811148C061EDA4
:1011E00072E0CE0101960E942208F6E0EF2EF12C6B
:1011F00081113DC068ED72E0CE0101960E94220887
:10120000E7E0EE2EF12C811132C062EE72E0CE01E9
:1012100001960E94220878E0E72EF12C811127C068
:1012200066E173E0CE0101960E94220869E0E62E95
:10123000F12C81111CC06FE173E0CE0101960E9478
:1012400022085AE0E52EF12C811111C06BE273E007
:10125000CE0101960E9422089BE0E92EF12C81111B
:1012600006C0F12CE12C03C083E0E82EF12C4424CD
:101270004394512CC701880F991F880F991F9C0117
:10128000225E3A4F3C872B872E5F3F4F388B2F874C
:101290008B859C859E878D873A87298782E795E095
:1012A0000E94D4044114510439F50E94AE06EF8126
:1012B000F885808191810E94000689819A8100973A
:1012C00011F00E949E1462960FB6F894DEBF0FBE16
:1012D000CDBFDF91CF911F910F91FF90EF90DF90E5
:1012E000CF90BF90AF909F908F907F906F905F90C6
:1012F0004F903F902F9008950E94AE06EF81F885A1
:10130000808191810E94000681E00E94E50789E4C6
:1013100093E00E940006EF85F889808191810E9408
:10132000F90782E00E94E50781E593E00E9400064C
:10133000EB85FC85808191810E94F90783E00E9402
:10134000E507B12CA12CD12CC12C83E00E94E5072C
:1013500088EA95E00E94D4048EE495E00E94D404CB
:1013600082E795E00E94D4048EE495E00E94BC04DC
:10137000882349F10E94AE06EF81F8858081918132
:101380000E94000681E00E94E50789E493E00E9444
:101390000006E985FA85808191810E94F90782E043
:1013A0000E94E50781E593E00E940006ED85FE8539
:1013B000808191810E94F90783E00E94E507B12CAA
:1013C000A12CD12CC12C81E0809365060E942C03B6
:1013D00000915506109156062091570630915806F7
:1013E000AB01BC01401B510B620B730B809161067A
:1013F00090916206B0E0A0E084179507A607B707B2
:1014000008F067C110E080915F06181760F4E09162
:101410005B06F0915C06E10FF11D62E080810E94A5
:1014200099021F5FF0CF312C80916006381608F0CA
:1014300066C0832C912CE0915D06F0915E06E80D6C
:10144000F91D61E080810E949902E0915D06F091B2
:101450005E06E80DF91D60E080810E946B0281E06C
:1014600090E0A0E0B0E0032C04C0880F991FAA1FF1
:10147000BB1F0A94D2F79A8B898B3C0160947094BD
:10148000212C80915F06281618F5022D10E0E091BE
:101490005B06F0915C06E00FF11F80810E94420222
:1014A0000C5F1F4F000F111FF801E750FA4F892BF7
:1014B00051F48081918129893A89822B932B9183E0
:1014C00080832394DECF8081918186219721F7CF7D
:1014D000E0915D06F0915E06E80DF91D61E0808106
:1014E0000E946B0280915D0690915E06880E991EA7
:1014F00060E0F40180810E949902339495CF09EF56
:1015000015E0F801878D90A1892B31F4148E2FEF0F
:101510003FEF368F258F11A2369636E0E533F3077D
:1015200089F7912C80915F06981608F053C0812CA2
:10153000692C712C660C771CC3018F5F994F3C019D
:1015400020916006821608F043C0F301608171812A
:10155000082C02C0769567950A94E2F7929E900156
:101560001124280D311DE9EFF5E080E0458D568D01
:101570002417350709F433C18F5F36968A30B1F7E7
:1015800060FF24C0E9EFF5E090E080E0448D411178
:1015900018C0E0915906F0915A06E20FF31F4081FE
:1015A00056E0589FF001599FF00D1124E750FA4F73
:1015B000448F368F258F10A2178E61E00E9438036A
:1015C00005C0019636968A30910501F78394B8CF0D
:1015D0009394A8CF912CF80181A18111982E0A5FD4
:1015E0001F4FF6E005331F07B1F70E942C036093ED
:1015F0005506709356068093570690935806992087
:1016000009F467C080911A06882309F462C08091AA
:10161000180690911906019709F05BC01091150604
:1016200011115AC088EA95E00E94BC04811109C0DA
:1016300082E795E00E94BC04882309F486CE512CF1
:10164000412C69E573E08EED95E00E942208882325
:1016500009F48BC031E04316510409F01FCEE9852F
:10166000FA85808191818C159D050CF091C00E94B6
:10167000AE0682E693E00E94000660ED77E080E02F
:1016800090E00E94FA020E94AE06EF81F885808108
:1016900091810E94000681E00E94E50789E493E0C1
:1016A0000E940006E985FA85808191810E94F907F0
:1016B00082E00E94E50781E593E00E940006ED8547
:1016C000FE85808191810E94F90783E00E94E507F1
:1016D000E5CD10926506A6CF69E573E08EED95E045
:1016E0000E94220890ED910F882319F19A3070F42E
:1016F0002AE02C9DC0012D9D900D1124C12E110FAB
:10170000DD0830E3C31AD108C80ED91EC6010E94F5
:10171000F9078EE593E0F1E0AF16B10439F022E06D
:10172000A216B10409F07ECF80E693E00E94000685
:1017300079CF9A3080F4A114B10441F75AE05C9D4E
:10174000C0015D9D900D1124C12E110FDD08E0E355
:10175000CE1AD108D9CF133231F01A32B9F682E05D
:10176000A82EB12CD3CF5201D1CFF1E04F165104A6
:1017700009F094CDF1E0AF16B104B1F4E985FA8532
:10178000808191818C0D9D1D9183808341E007C0F4
:101790008C199D09E985FA859183808340E0B60123
:1017A000C7010E9452057ACDF2E0AF16B10429F4C8
:1017B000ED85FE85D182C08271CDAB2809F06ECD5A
:1017C0000E94AE0684E793E00E94000660ED77E099
:1017D00080E090E00E94FA020E94AE065FCD617048
:1017E000EDCE1F920F920FB60F9211242F933F93BD
:1017F0008F939F93AF93BF9380919C0390919D0390
:10180000A0919E03B0919F0330919B0323E0230F8F
:101810002D3758F50196A11DB11D20939B03809390
:101820009C0390939D03A0939E03B0939F0380918C
:10183000A0039091A103A091A203B091A3030196EC
:10184000A11DB11D8093A0039093A103A093A203B7
:10185000B093A303BF91AF919F918F913F912F912F
:101860000F900FBE0F901F90189526E8230F029639
:10187000A11DB11DD2CF1F920F920FB60F9211244E
:101880000BB60F922F933F934F935F936F937F937A
:101890008F939F93AF93BF93EF93FF9348E251E0F1
:1018A00064E271E090E080E00E94F703FF91EF9125
:1018B000BF91AF919F918F917F916F915F914F9168
:1018C0003F912F910F900BBE0F900FBE0F901F9066
:1018D00018951F920F920FB60F9211240BB60F920C
:1018E0002F933F934F935F936F937F938F939F9328
:1018F000AF93BF93EF93FF9348EA50E064EA70E040
:1019000083E090E00E94F703FF91EF91BF91AF91C8
:101910009F918F917F916F915F914F913F912F9107
:101920000F900BBE0F900FBE0F901F9018951F9237
:101930000F920FB60F9211240BB60F922F933F9375
:101940004F935F936F937F938F939F93AF93BF93C7
:10195000EF93FF9348E950E064E970E082E090E0A3
:101960000E94F703FF91EF91BF91AF919F918F91EB
:101970007F916F915F914F913F912F910F900BBE8F
:101980000F900FBE0F901F9018951F920F920FB6D9
:101990000F9211240BB60F922F933F934F935F93A7
:1019A0006F937F938F939F93AF93BF93EF93FF9327
:1019B00048E850E064E870E081E090E00E94F703BE
:1019C000FF91EF91BF91AF919F918F917F916F9117
:1019D0005F914F913F912F910F900BBE0F900FBED3
:1019E0000F901F901895CF93DF93CDB7DEB72D974B
:1019F0000FB6F894DEBF0FBECDBF789484B5826079
:101A000084BD84B5816084BD85B5826085BD85B5A2
:101A1000816085BD80916E00816080936E00109220
:101A2000810080918100826080938100809181009B
:101A3000816080938100809180008160809380002C
:101A40008091B10084608093B1008091B00081608A
:101A50008093B0008091910082608093910080918A
:101A600091008160809391008091900081608093CB
:101A700090008091A10082608093A1008091A100DC
:101A800081608093A1008091A00081608093A0007C
:101A900080912101826080932101809121018160E8
:101AA00080932101809120018160809320018091A9
:101AB0007A00846080937A0080917A0082608093BB
:101AC0007A0080917A00816080937A0080917A0018
:101AD000806880937A001092C10064E084E10E94E3
:101AE000450780E00E94E5070AEB15E088E2E82E52
:101AF0009EE8C92E24E6B22E3CE0D32E42E0F42E1E
:101B0000D8018C91803308F054C061E08E2D0E9482
:101B10009902F8018081282F30E0F901EE0FFF1FB4
:101B2000E20FF31FEC55FC4F9081907C2E2D2F730C
:101B3000922B9083D8011196CC9211971296BC9259
:101B40006D2D0E94EE138D9DA001112430E020E048
:101B5000BA01620F731FFB01EE0FFF1FE60FF71FA5
:101B6000EC55FC4F908196FD16C02F5F3F4F2C30F7
:101B7000310571F7813009F0E5C110928000F092D3
:101B800081001092850010928400B19A80916F00BC
:101B9000826080936F00D801EC918E2F90E0FC0161
:101BA000EE0FFF1FE80FF91FEC55FC4F808180649A
:101BB000808370E060E0C8010E9494030D5F1F4FB6
:101BC000E394B4E3EB129CCF62E083E00E949902BD
:101BD00062E086E00E94990262E087E00E9499023A
:101BE00062E084E00E94990262E085E00E9499022E
:101BF00061E085E10E94990261E085E10E946B024B
:101C000061E087E20E94990260E087E20E946B0235
:101C100063E070E08EE495E00E94390563E070E0D7
:101C200080E695E00E94390566E070E082E795E085
:101C30000E94390567E070E088EA95E00E94390566
:101C400065E070E086E995E00E94390564E070E0A7
:101C500084E895E00E94390582E390E09093550571
:101C6000809354059093670580936605909379055A
:101C7000809378059093AF058093AE0590939D0572
:101C800080939C0590938B0580938A05EEE1F5E0A7
:101C90001182108213821282349685E0EE34F807A6
:101CA000B9F786EE95E0909315058093140581E1D0
:101CB00095E09093EE058093ED0580911C05909141
:101CC0001D05892B41F48091F1059091F2059093C7
:101CD0001D0580931C0564E075E081E195E00E949C
:101CE0009F0581E195E09093FB048093FA0487EFD0
:101CF00094E09093190580931805809102059091C6
:101D00000305892B41F480911C0590911D0590934A
:101D10000305809302056AEE74E087EF94E00E9469
:101D20009F0587EF94E09093E1048093E0048DEDAC
:101D300094E09093FF048093FE048091E8049091D6
:101D4000E904892B41F48091020590910305909359
:101D5000E9048093E80460ED74E08DED94E00E9466
:101D60009F0563EC74E00E949F058AEE94E09093D7
:101D7000BA048093B90486EB94E09093F2048093C4
:101D8000F1048091C1049091C204892B41F48091A7
:101D9000F5049091F6049093C2048093C10469EA1B
:101DA00074E086EB94E00E949F056CE974E00E9469
:101DB0009F0584E095E090939304809392048FE8CC
:101DC00094E090930C0580930B0580919A04909178
:101DD0009B04892B41F480910F05909110059093FD
:101DE0009B0480939A0462E874E08FE894E00E9478
:101DF0009F058FE894E0909379048093780485E7B9
:101E000094E090939704809396048091800490913D
:101E10008104892B41F480919A0490919B049093C2
:101E200081048093800468E674E085E794E00E9472
:101E30009F056BE574E00E949F0582E894E0909313
:101E40005204809351048EE494E090938A0480932A
:101E500089048091590490915A04892B41F480910E
:101E60008D0490918E0490935A048093590461E4F8
:101E700074E08EE494E00E949F0564E374E00E94A5
:101E80009F0586EE95E00E949601DE0111967D0188
:101E90008EED282E85E0382E93E0492E512C24E03B
:101EA000622E712C35E0C32ED12C46E0A42EB12C2D
:101EB00057E0852E912C88EA95E00E94D40486E9AB
:101EC00095E00E94D40484E895E00E94D40482E75F
:101ED00095E00E94D40480E695E00E94D40488EA4C
:101EE00095E00E94BC04882309F456C09092E50551
:101EF0008092E4052091F3053091F4058DE0F9011D
:101F0000D70101900D928A95E1F78091E4059091B7
:101F1000E5058530910509F49CC00CF06EC0833056
:101F2000910509F4A5C0049709F49EC01092E50537
:101F30001092E405E0E0F0E0EF2B09F4BCCF0E9442
:101F40000000B9CF823061F410929000809391002C
:101F5000109295001092940088BB809371001BCE64
:101F6000833061F41092A000F092A1001092A500BD
:101F70001092A400F9BAF09272000DCE81110BCE2E
:101F800010922001F092210110922501109224015B
:101F9000FABAF0927300FFCD82E795E00E94BC048C
:101FA000882329F0B092E505A092E405A3CF86E945
:101FB00095E00E94BC04882329F0D092E505C092E8
:101FC000E40598CF84E895E00E94BC04882329F0BA
:101FD0007092E5056092E4058DCF80E695E00E9461
:101FE000BC04882329F05092E5054092E40582CF95
:101FF0001092E5051092E4057DCF86309105D1F071
:10200000079709F093CFE885F985309709F46BC0FD
:10201000F486E386E091F305F091F40587819085DD
:10202000009729F0DC011C96FC93EE931B970E940D
:1020300096017CCFEC81FD8186EE95E03097B9F377
:10204000F486E386E091F305F091F40583819481B1
:10205000E7CFF90185819681009749F3DC011C9651
:102060003C932E931B97E3CFF90181859285F4CFA2
:1020700069E573E08EED95E00E9422088823D1F097
:1020800045E050E066E873E08EED95E00E94370889
:1020900060E085E10E946B020AEB15E064EB70E002
:1020A000C8010E9494030D5F1F4FB5E00E3D1B0752
:1020B000A9F73CCF44E050E069E573E08EED95E090
:1020C0000E94370861E085E10E946B020AEB15E08F
:1020D00070E060E0C8010E9494030D5F1F4F20165E
:1020E0003106B1F723CFE091F705F091F80530976D
:1020F00009F41CCFC901199519CFEAEBF5E02FEFD0
:1021000048EB5BE080919603803308F0F9C291E0E0
:10211000980F90939603808390E0DC01AA0FBB1F79
:10212000A80FB91FAC55BC4F12965C934E931197F4
:10213000339685E0EE3DF80729F71092DF051092FF
:10214000DE051092E1051092E0051092E305109271
:10215000E20544E050E069E573E08EED95E00E9411
:10216000370823E332E030934F0520934E05109259
:1021700050051092510510925205109253058AE0B5
:1021800090E0909355058093540510925605109257
:1021900057053093610520936005109262051092F7
:1021A000630510926405109265059093670580930E
:1021B00066051092680510926905309373052093A7
:1021C00072051092740510927505109276051092A2
:1021D0007705909379058093780510927A0510928F
:1021E0007B053093A9052093A8051092AA051092AB
:1021F000AB051092AC051092AD059093AF0580939E
:10220000AE051092B0051092B1053093850520936C
:102210008405109286051092870510928805109209
:10222000890590938B0580938A0510928C051092F6
:102230008D0530939705209396051092980510927E
:10224000990510929A0510929B0590939D05809395
:102250009C0510929E0510929F051092FB0510920E
:10226000FF051092FE051092000689E292E090931D
:10227000FA058093F905E5E1F6E0108214821382F5
:102280001582369686E0E135F807B9F783E092E0EB
:1022900090935C0680935B0680E092E090935E06EC
:1022A00080935D0684E080935F0683E08093600600
:1022B00087E092E090935A06809359068AE090E076
:1022C000909362068093610684EF91E09093640698
:1022D0008093630610926706109266061092550668
:1022E00010925606109257061092580610926506E4
:1022F00010926B0610926A068DE192E09093690647
:10230000809368068DE080936C068EE080936D0666
:102310008CE080936E068BE080936F068AE080935A
:10232000700689E08093710688E0809372061092AF
:10233000730610927406109275061092760610922B
:10234000770661E080E10E9445078CE893E0909376
:10235000E7058093E6051092E8051092F0051092CB
:10236000EF051092EE051092ED051092EC0510921B
:10237000EB051092EA051092E90586EE95E0909340
:10238000F4058093F30586EB96E09093F605809331
:10239000F50586E798E09093F8058093F7058CE6BD
:1023A00092E09093120580931105109213051092FC
:1023B0001B0510921A05109219051092180510921B
:1023C000170510921605109215051092140587E353
:1023D00092E09093EB048093EA041092EC04109244
:1023E000F4041092F3041092F2041092F10410928B
:1023F000F0041092EF041092EE041092ED0484E5C4
:1024000092E09093B7048093B6041092B8041092AF
:10241000C0041092BF041092BE041092BD0410922A
:10242000BC041092BB041092BA041092B90488E55F
:1024300092E09093AA048093A9041092AB041092A6
:10244000B3041092B2041092B1041092B00410922E
:10245000AF041092AE041092AD041092AC048FE55C
:1024600092E090939D0480939C0410929E0410929D
:10247000A6041092A5041092A4041092A304109232
:10248000A2041092A1041092A00410929F0487E667
:1024900092E09093F8048093F7041092F90410925C
:1024A0000105109200051092FF041092FE04109294
:1024B000FD041092FC041092FB041092FA0486E8CA
:1024C00092E09093DE048093DD041092DF0410927A
:1024D000E7041092E6041092E5041092E4041092CE
:1024E000E3041092E2041092E1041092E00483E904
:1024F00092E09093D1048093D0041092D204109271
:10250000DA041092D9041092D8041092D7041092D1
:10251000D6041092D5041092D4041092D3048FE9FB
:1025200092E09093C4048093C3041092C504109267
:10253000CD041092CC041092CB041092CA041092D5
:10254000C9041092C8041092C7041092C60484EF04
:1025500092E0909305058093040510920605109271
:102560000E0510920D0510920C0510920B0510929D
:102570000A051092090510920805109207058CEAC9
:1025800092E09093830480938204109284041092CA
:102590008C0410928B0410928A0410928904109279
:1025A000880410928704109286041092850481EDAD
:1025B00092E090934F0480934E0410925004109236
:1025C0005804109257041092560410925504109219
:1025D000540410925304109252041092510488ED46
:1025E00092E090934204809341041092430410922D
:1025F0004B0410924A04109249041092480410921D
:10260000470410924604109245041092440482EE4E
:1026100092E0909335048093340410923604109223
:102620003E0410923D0410923C0410923B04109220
:102630003A041092390410923804109237048FEE45
:1026400092E09093900480938F04109291041092E2
:102650009904109298041092970410929604109284
:10266000950410929404109293041092920486E1BF
:1026700093E09093760480937504109277041092FF
:102680007F0410927E0410927D0410927C041092BC
:102690007B0410927A0410927904109278048FE1EE
:1026A00093E0909369048093680410926A041092F6
:1026B0007204109271041092700410926F041092C0
:1026C0006E0410926D0410926C0410926B048BE2F5
:1026D00093E090935C0480935B0410925D041092ED
:1026E00065041092640410926304109262041092C4
:1026F00061041092600410925F0410925E040895C9
:10270000208316CD8091DE059091DF05009711F0B2
:102710000C949E140895052E97FB1EF400940E94BD
:10272000A21357FD07D00E94BD1307FC03D04EF43F
:102730000C94A21350954095309521953F4F4F4FE3
:102740005F4F089590958095709561957F4F8F4F5D
:102750009F4F08950E94DF13A59F900DB49F900D89
:10276000A49F800D911D11240895B7FF0C94AA1306
:102770000E94AA13821B930B0895A1E21A2EAA1B92
:10278000BB1BFD010DC0AA1FBB1FEE1FFF1FA21721
:10279000B307E407F50720F0A21BB30BE40BF50B1E
:1027A000661F771F881F991F1A9469F760957095A7
:1027B000809590959B01AC01BD01CF010895A29F2A
:1027C000B001B39FC001A39F700D811D1124911D05
:1027D000B29F700D811D1124911D0895991B79E000
:1027E00004C0991F961708F0961B881F7A95C9F7A1
:1027F00080950895EE0FFF1F881F8BBF0790F691FD
:10280000E02D19940F931F93CF93DF93823091059E
:1028100010F482E090E0E0918206F091830630E0CF
:1028200020E0B0E0A0E0309799F42115310509F4DB
:102830004AC0281B390B24303105D8F58A819B8189
:102840006115710589F1FB0193838283FE0111C03B
:10285000408151810281138148175907E0F04817E0
:10286000590799F4109761F012960C9312971396EA
:102870001C933296CF01DF91CF911F910F91089554
:102880000093820610938306F4CF2115310551F091
:102890004217530738F0A901DB019A01BD01DF019E
:1028A000F801C1CFEF01F9CF9093830680938206A0
:1028B000CDCFFE01E20FF31F819391932250310996
:1028C00039832883D7CF2091800630918106232B2E
:1028D00041F4209115023091160230938106209325
:1028E000800620911302309114022115310541F424
:1028F0002DB73EB74091170250911802241B350B9B
:10290000E0918006F0918106E217F307A0F42E1BF8
:102910003F0B2817390778F0AC014E5F5F4F241743
:10292000350748F04E0F5F1F509381064093800695
:10293000819391939FCFF0E0E0E09CCFCF93DF9322
:102940000097E9F0FC01329713821282A09182066F
:10295000B0918306ED0130E020E01097A1F42081D2
:102960003181820F931F20918006309181062817B4
:10297000390709F061C0F0938106E0938006DF918A
:10298000CF910895EA01CE17DF07E8F54A815B8110
:102990009E0141155105B1F7E901FB83EA83499195
:1029A0005991C40FD51FEC17FD0761F48081918107
:1029B0000296840F951FE901998388838281938110
:1029C0009B838A83F0E0E0E012968D919C911397AF
:1029D0000097B9F52D913C911197CD010296820F88
:1029E000931F20918006309181062817390739F608
:1029F000309751F51092830610928206B0938106AB
:102A0000A0938006BCCFD383C28340815181840FC1
:102A1000951FC817D90761F44E5F5F4F8881998170
:102A2000480F591F518340838A819B8193838283FE
:102A30002115310509F0B0CFF0938306E0938206AB
:102A40009ECFFD01DC01C0CF13821282D7CF4F92FF
:102A50005F926F927F928F929F92AF92BF92CF922E
:102A6000DF92EF92FF920F931F93CF93DF938C012E
:102A7000009799F4CB01DF91CF911F910F91FF90B7
:102A8000EF90DF90CF90BF90AF909F908F907F900E
:102A90006F905F904F900C940214FC01E60FF71FAB
:102AA0009C0122503109E217F30708F4AEC0D901A6
:102AB000CD91DC911197C617D70720F1C530D1050C
:102AC00078F0CE0104978617970750F0C61BD70BF6
:102AD0002297C193D1936D937C93CF010E949E1452
:102AE000C801DF91CF911F910F91FF90EF90DF9080
:102AF000CF90BF90AF909F908F907F906F905F909E
:102B00004F9008955B01AC1ABD0A4C018C0E9D1EBE
:102B1000A0918206B0918306512C412CF12CE12C1E
:102B2000109731F58091800690918106881599055E
:102B300009F05CC04616570608F058C08091130291
:102B400090911402009741F48DB79EB740911702FF
:102B500050911802841B950BE817F90708F055C02F
:102B6000F0938106E0938006F90171836083B8CF0A
:102B70008D919C91119712966C90129713967C9060
:102B80001397A815B90559F56C0142E0C40ED11C84
:102B9000CA14DB0420F1AC014A195B09DA01129670
:102BA000159780F06282738251834083D9016D93BF
:102BB0007C93E114F10471F0D7011396FC93EE932A
:102BC00012978ECF22968C0F9D1FF90191838083DF
:102BD000F301EFCFF0938306E093820681CF48168E
:102BE000590608F42C017D01D3019ACFCB010E9434
:102BF00002147C01009749F0AE01B8010E9408164A
:102C0000C8010E949E1487016BCF10E000E068CFDE
:102C1000FB01DC0102C001900D9241505040D8F7F9
:102C20000895FB01DC018D91019080190110D9F309
:102C3000990B0895FB01DC0101900D920020E1F752
:102C4000089511E0CFE3D1E000E006C0802FFE013F
:102C50000E94FA132196011DC034D10780E00807B5
:062C6000A9F7F894FFCF74
:102C66001A1B1C16171819313233343536373839D2
:102C76002A302300008406800000000000F307AE1F
:102C8600014F054E0500000000B804B404B104006D
:102C9600000000CA04C604486F74204472696E6B53
:102CA6007300486F74204472696E6B732020202075
:102CB6002020200054656100436F66666565004EFE
:102CC60065736361666500436F6C64204472696E68
:102CD6006B7300436F6C64204472696E6B732020C3
:102CE6002020202020004F72616E6765204A75699A
:102CF6006365004170706C65204A756963650043C1
:102D06006865727279204A7569636500486F742038
:102D160053616E6477696368657300486F74205306
:102D2600616E647769636865732020202020202007
:102D360000486F74646F670048616D6275726765FD
:102D460072004368656573656275726765720043F4
:102D56006F6C642053616E647769636865730043C2
:102D66006F6C642053616E647769636865732020B5
:102D76002020202020004D6561742048616D0043AD
:102D86006869636B656E2048616D004F6C69766992
:102D9600612053616C6164004D61696E204D656E02
:102DA600752020202020202000436F756E743A2065
:102DB6000050726963653A200055736572002300FE
:102DC6002A004E6F7420656E6F756768206974659A
:102DD6006D732100496E636F727265637420436F71
:102DE6006D6D616E640041646D696E004D656E7552
:062DF600526F6F74000033
:00000001FF
