:100000000C942E010C945F010C945F010C945F0121
:100010000C945F010C945F010C945F010C945F01E0
:100020000C945F010C945F010C945F010C945F01D0
:100030000C945F010C945F010C945F010C945F01C0
:100040000C945F010C945F010C945F010C945F01B0
:100050000C945F010C945F010C945F010C941C05DF
:100060000C9466050C94E6040C94BC040C945F019B
:100070000C945F010C945F010C945F010C945F0180
:100080000C945F010C945F010C945F010C945F0170
:100090000C945F010C945F010C945F010C945F0160
:1000A0000C945F010C945F010C945F010C945F0150
:1000B0000C945F010C945F010C945F010C945F0140
:1000C0000C945F010C945F010C945F010C945F0130
:1000D0000C945F010C945F010C945F010C945F0120
:1000E0000C945F010C94DE010C942C030C948001A1
:1000F0000C94E4020C94FB020C94D0010C94360393
:100100000C9414030C9422030C941A030C941E03F5
:100110000C9407030C9410030C9478050C940303BF
:100120000C9466030C9416020C943A030C9430035E
:100130000C9428030C94FF020C9463020C94E902C3
:100140000C9465030C94B6040C940A030C94BC0143
:100150000C94AD0100000A0B02090C0D0E080703F8
:10016000040100000000000000000000000000008A
:10017000000000000000000000000000000000007F
:10018000121110000000000000000000000000003C
:100190000000000000000000000000002200250018
:1001A00028002B002E003100340002010000050160
:1001B00008010B0100002100240027002A002D0067
:1001C0003000330001010000040107010A010505A8
:1001D0000505070508080808020202020A0A0808BD
:1001E00004040404010101010101010103030303EB
:1001F00003030303040707070C0C0C0C0C0C0C0C7A
:100200000202020206060606060606060B0B0B0B8A
:100210000B0B0B0B010210202008081020401020AF
:1002200040800201020108040201010204081020BA
:1002300040808040201008040201800402018040B8
:100240002010080402010804020101020408102021
:1002500040800102040810204080780511241FBE50
:10026000CFEFD1E2DEBFCDBF00E00CBF12E0A0E0D7
:10027000B2E0EAE2FEE000E00BBF02C007900D92A0
:10028000AE31B107D9F722E0AEE1B2E001C01D9274
:10029000AE3DB207E1F711E0CEE2D1E000E006C0EA
:1002A00021970109802FFE010E940B07CD32D10753
:1002B00080E00807A9F70E94C2050C9413070C946C
:1002C000000090E0FC01EC5EFD4F249182539E4FB4
:1002D000FC018491882399F090E0880F991FFC011C
:1002E000EC54FE4FA591B491FC01E656FE4F85916A
:1002F00094918FB7F894EC91E22BEC938FBF089513
:10030000AF92BF92CF92DF92EF92FF920F931F9323
:10031000CF93DF936C017B018B01040F151FEB0161
:100320005E01AE18BF08C017D10759F06991D60118
:10033000ED91FC910190F081E02DC6011995892B7A
:1003400079F7C501DF91CF911F910F91FF90EF9049
:10035000DF90CF90BF90AF900895FC01538D448DF6
:10036000252F30E0842F90E0821B930B541710F060
:10037000CF96089501970895FC01918D828D98176D
:1003800061F0A28DAE0FBF2FB11D5D968C91928D45
:100390009F5F9F73928F90E008958FEF9FEF089576
:1003A000FC01918D828D981731F0828DE80FF11D3F
:1003B000858D90E008958FEF9FEF0895FC01918D5A
:1003C000228D892F90E0805C9F4F821B91098F7353
:1003D0009927089589E292E00E94DE0121E0892BAD
:1003E00009F420E0822F0895FC01A48DA80FB92FF5
:1003F000B11DA35ABF4F2C91848D90E001968F734D
:100400009927848FA689B7892C93A089B1898C916B
:10041000837080648C93938D848D981306C00288BA
:10042000F389E02D80818F7D80830895EF92FF9284
:100430000F931F93CF93DF93EC0181E0888F9B8D07
:100440008C8D98131AC0E889F989808185FF15C0C1
:100450009FB7F894EE89FF896083E889F9898081E4
:100460008370806480839FBF81E090E0DF91CF91B3
:100470001F910F91FF90EF900895F62E0B8D10E0D5
:100480000F5F1F4F0F731127E02E8C8D8E110CC044
:100490000FB607FCFACFE889F989808185FFF5CF8F
:1004A000CE010E94F401F1CFEB8DEC0FFD2FF11D79
:1004B000E35AFF4FF0829FB7F8940B8FEA89FB89CC
:1004C00080818062CFCFCF93DF93EC01888D88232A
:1004D000B9F0AA89BB89E889F9898C9185FD03C0A7
:1004E000808186FD0DC00FB607FCF7CF8C9185FF8C
:1004F000F2CF808185FFEDCFCE010E94F401E9CFDC
:10050000DF91CF91089580E090E0892B29F00E943F
:10051000EA0181110E94000080E090E0892B49F0FF
:1005200080E090E0892B29F00E94000081110E9458
:10053000000080E090E0892B49F080E090E0892B7A
:1005400029F00E94000081110E94000080E090E0EC
:10055000892B49F080E090E0892B29F00E9400006F
:1005600081110C9400000895282F30E0F901EC5A15
:10057000FE4F9491F901EC5EFD4F449122533E4FA2
:10058000F9012491222309F435C0992311F19150E6
:100590009231F8F4E92FF0E08827EE52FD4F8F4FAB
:1005A0000C940B0703030703E402FB02FF02E902BA
:1005B0000A03100314031A031E03220328032C0347
:1005C000E902300336033A03809180008F778093ED
:1005D0008000E22FF0E0EE0FFF1FE656FE4FA591E0
:1005E000B4918FB7F894EC91611148C040954E23B7
:1005F0004C938FBF0895809180008F7DE8CF8091CC
:100600008000877FE4CF84B58F7784BDE2CF84B547
:100610008F7DFBCF8091B0008F778093B000D9CFD2
:100620008091B0008F7DF9CF809190008F7780937B
:100630009000CFCF809190008F7DF9CF8091900076
:10064000877FF5CF8091A0008F778093A000C1CFE6
:100650008091A0008F7DF9CF8091A000877FF5CF9A
:10066000809120018F7780932001B3CF809120016A
:100670008F7DF9CF80912001877FF5CF4E2BB8CFAA
:100680003FB7F8948091230290912402A091250213
:10069000B091260226B5A89B05C02F3F19F0019600
:1006A000A11DB11D3FBFBA2FA92F982F8827BC01CC
:1006B000CD01620F711D811D911D42E0660F771FF4
:1006C000881F991F4A95D1F70895089590E080E01A
:1006D0000895CF93DF93EC0160E08E810E94B40215
:1006E00061E08E810E94B40260E08E810E94B402BB
:1006F0008BE891E00197F1F7DF91CF910895CF92C8
:10070000DF92EF92FF920F931F93CF93DF936C01D1
:100710007C0187E0E80EF11CD0E0C0E0062F10E07D
:10072000B8010C2E02C0759567950A94E2F76170C6
:10073000F70181917F010E94B4022196C430D10556
:1007400079F7C601DF91CF911F910F91FF90EF9044
:10075000DF90CF900C946903CF92DF92EF92FF92DB
:100760000F931F93CF93DF93EC01F62E642F8C81B0
:100770000E94B4028D818F3F19F060E00E94B402A4
:100780000F2D10E08F8584FF25C06E0187E0C80E15
:10079000D11CF12CE12CB8010E2C02C07595679587
:1007A0000A94E2F76170F60181916F010E94B40230
:1007B000FFEFEF1AFF0A88E0E816F10461F7CE01B7
:1007C000DF91CF911F910F91FF90EF90DF90CF902D
:1007D0000C946903B80184E0759567958A95E1F7F3
:1007E000CE010E947F036F2DCE01DF91CF911F912B
:1007F0000F91FF90EF90DF90CF900C947F03CF93F9
:10080000DF93823029F49091D50298609093D502BD
:100810008093D9021092DA0280E48093DB0280E1B7
:100820008093DC0280E58093DD028091CA020E9401
:1008300061018091CB028F3F11F00E946101809194
:10084000CC020E946101C6ECD2E09E01265C3240DF
:100850008091D50284FD0AC084E090E0219628179B
:1008600039073CF48E810E946101EFCF88E090E06F
:10087000F5CF8BE39DE00197F1F760E08091CA022C
:100880000E94B40260E08091CC020E94B402809188
:10089000CB028F3F19F060E00E94B4026091D50254
:1008A00064FD45C063E086EC92E00E947F03CBE4E8
:1008B000D6E4CE010197F1F763E086EC92E00E9466
:1008C0007F032197F1F763E086EC92E00E947F03BB
:1008D00083E592E00197F1F762E086EC92E00E94F6
:1008E0007F036091D502606240E086EC92E00E9456
:1008F000AC0384E08093D60240E06CE086EC92E0AA
:100900000E94AC0340E061E086EC92E00E94AC0300
:100910008BE39FE10197F1F782E08093D70240E0FB
:1009200066E086EC92E0DF91CF910C94AC036062BC
:1009300040E086EC92E00E94AC038BE496E40197E1
:10094000F1F76091D502606240E086EC92E00E948F
:10095000AC0383E592E00197F1F76091D502606204
:1009600040E086EC92E00E94AC03BBCF41E00E94E5
:10097000AC0381E090E008951F920F920FB60F92A2
:1009800011240BB60F922F933F934F935F936F9366
:100990007F938F939F93AF93BF93EF93FF9389E2DE
:1009A00092E00E94F401FF91EF91BF91AF919F916E
:1009B0008F917F916F915F914F913F912F910F9008
:1009C0000BBE0F900FBE0F901F9018951F920F92A5
:1009D0000FB60F9211240BB60F922F938F939F9304
:1009E000EF93FF93E0913902F0913A028081E09118
:1009F0003F02F091400282FD1DC090818091420231
:100A00008F5F8F7320914302821741F0E091420281
:100A1000F0E0E75DFD4F958F80934202FF91EF91EB
:100A20009F918F912F910F900BBE0F900FBE0F9043
:100A30001F9018958081F2CF1F920F920FB60F92E0
:100A400011242F933F938F939F93AF93BF938091E4
:100A50001F0290912002A0912102B09122023091B8
:100A60001E0223E0230F2D3758F50196A11DB11D5D
:100A700020931E0280931F0290932002A0932102D4
:100A8000B09322028091230290912402A09125022A
:100A9000B09126020196A11DB11D8093230290936F
:100AA0002402A0932502B0932602BF91AF919F919B
:100AB0008F913F912F910F900FBE0F901F9018951F
:100AC00026E8230F0296A11DB11DD2CF1F920F92CF
:100AD0000FB60F9211248F938EB58093270281E079
:100AE000809328028F910F900FBE0F901F90189542
:100AF000E9E2F2E01382128288EE93E0A0E0B0E037
:100B000084839583A683B78384E092E09183808376
:100B100085EC90E09587848784EC90E097878687C2
:100B200080EC90E0918B808B81EC90E0938B828BBA
:100B300082EC90E0958B848B86EC90E0978B868B93
:100B4000118E128E138E148EE6ECF2E01382128256
:100B500086E192E0918380838DE084838FEF8583AB
:100B60008CE0868388E0878389E080878AE08187BC
:100B70008BE082871386148615861686178681E099
:100B80000C94FF03CF93DF93CDB7DEB7A1970FB6D9
:100B9000F894DEBF0FBECDBF789484B5826084BD6B
:100BA00084B5816084BD85B5826085BD85B5816071
:100BB00085BD80916E00816080936E0010928100EF
:100BC00080918100826080938100809181008160AA
:100BD000809381008091800081608093800080916B
:100BE000B10084608093B1008091B00081608093F7
:100BF000B00080919100826080939100809191007B
:100C0000816080939100809190008160809390003A
:100C10008091A10082608093A1008091A1008160F9
:100C20008093A1008091A00081608093A0008091BA
:100C30002101826080932101809121018160809354
:100C400021018091200181608093200180917A00B0
:100C5000846080937A0080917A00826080937A0029
:100C600080917A00816080937A0080917A00806818
:100C700080937A001092C100E0913902F0913A021B
:100C800082E08083E0913502F09136021082E0919B
:100C90003702F09138028FEC808310924102E0918C
:100CA0003D02F0913E0286E08083E0913B02F091AC
:100CB0003C02808180618083E0913B02F0913C02A4
:100CC000808188608083E0913B02F0913C028081CA
:100CD00080688083E0913B02F0913C0280818F7DAF
:100CE000808382E00E94FF0382E30E94610160E052
:100CF00082E30E94B4028CB580648CBD8CB58068A0
:100D00008CBD109228028CB580688CBD9BE3292E87
:100D10009FE1392E2AE0822E912CA12CB12C8091BA
:100D20002802882379F140E061E086EC92E00E949D
:100D3000AC03C1010197F1F72091270230E050E0A8
:100D400040E019A28E010F5D1F4FCA01B901A50134
:100D500094010E94E906605DF80162938F012115FC
:100D600031054105510589F7309761F00190002068
:100D7000E9F73197AF01401B510BB80186EC92E0C7
:100D80000E9480010E9440036B017C0184E6482E92
:100D9000512C612C712C0E9440036C197D098E0925
:100DA0009F09683E734081059105A8F3F1E04F1A51
:100DB00051086108710828EEC20E23E0D21EE11C22
:100DC000F11C411451046104710429F70E9483024B
:100DD000A6CFA1E21A2EAA1BBB1BFD010DC0AA1FA4
:100DE000BB1FEE1FFF1FA217B307E407F50720F094
:100DF000A21BB30BE40BF50B661F771F881F991F0F
:100E00001A9469F760957095809590959B01AC0157
:100E1000BD01CF010895EE0FFF1F881F8BBF079004
:0A0E2000F691E02D1994F894FFCF2D
:100E2A000000000016028001AD016302DE01BC0170
:0E0E3A00D00100000000B604800166036503CD
:00000001FF
