:100000000C944D010C947E010C947E010C947E01A5
:100010000C947E010C947E010C947E010C947E0164
:100020000C947E010C947E010C947E010C947E0154
:100030000C947E010C947E010C947E010C947E0144
:100040000C947E010C94FF0C0C947E010C947E01A8
:100050000C947E010C947E010C947E010C94070B91
:100060000C947E010C947E010C947E010C947E0114
:100070000C947E010C947E010C947E010C947E0104
:100080000C94D10C0C947E010C947E010C947E0196
:100090000C947E010C947E010C947E010C94510B07
:1000A0000C947E010C947E010C94A30C0C947E01A4
:1000B0000C947E010C947E010C947E010C94750CC2
:1000C0000C947E010C947E010C947E010C947E01B4
:1000D0000C947E010C947E010C947E010C947E01A4
:1000E0000C947E010C943D060C944A020C942D0D48
:1000F0000C9438020C94B4050C94D5040C94500262
:100100000C9444070C9446020C94C5040C943402DD
:100110000C940F020C94C2010C94B8050C942102AB
:100120000C94C4010C94A6050C944F020C9442024A
:100130000C9419020C9415020C949F050C942E0239
:100140000C9454020C94E8040C9480080C942A0239
:100150000C94C6040C94BB010C94C3010C942402AF
:100160000C943C020C9415050C942D080C94A205DB
:100170000C943C060C941D02000021002400270072
:100180002A002D00300033000101000004010701A6
:100190000A0100002200250028002B002E0031005B
:1001A000340002010000050108010B0100002000DD
:1001B0002300260029002C002F003200000100003F
:1001C00003010601090105050505070508080808DA
:1001D000020202020A0A08080404040401010101DF
:1001E00001010101030303030303030304070707DA
:1001F0000C0C0C0C0C0C0C0C02020202060606067F
:10020000060606060B0B0B0B0B0B0B0B010210204B
:10021000200808102040102040800201020108043C
:1002200002010102040810204080804020100804D0
:100230000201800402018040201008040201080429
:10024000020101020408102040800102040810206D
:10025000408000000A0B02090C0D0E080703040180
:10026000000000000000000000000000000000008E
:10027000000000000000000000000000000012115B
:10028000100000000000000000000000000000005E
:1002900000000000000000002D0D11241FBECFEF54
:1002A000D1E2DEBFCDBF00E00CBF12E0A0E0B2E0C3
:1002B000E8E3FEE200E00BBF02C007900D92AC3C09
:1002C000B107D9F725E0ACECB2E001C01D92AB3923
:1002D000B207E1F711E0CDE4D1E000E006C02197DC
:1002E0000109802FFE010E94F314CC34D10780E075
:1002F0000807A9F70E94F00E0C941A170C9400003E
:1003000096E0899FD0011124A85DBA4F90967C9306
:100310006E935F9791E091969C939197E0919505EC
:10032000F091960590919405992339F0309751F00A
:10033000811108C0809144051994309719F05C969A
:100340008C91FACF0895CF93DF93009789F0EC0159
:10035000E091A004F091A104309731F060919E04E7
:1003600070919F04CE011995D0939F04C0939E0471
:10037000DF91CF9108958091D2039091D103891B91
:10038000990B089508950895AF92BF92CF92DF928E
:10039000EF92FF920F931F93CF93DF936C017B013A
:1003A0008B01040F151FEB015E01AE18BF08C017CB
:1003B000D10759F06991D601ED91FC910190F0813E
:1003C000E02DC6011995892B79F7C501DF91CF91F1
:1003D0001F910F91FF90EF90DF90CF90BF90AF9063
:1003E00008958150823108F05AC0E82FF0E0882744
:1003F000E350FE4F8F4F0C94F3141D0221020F02A5
:10040000150219024F0224022A022E023402380277
:100410003C02420246024F024A02500254028091BC
:1004200080008F77809380000895809180008F7D79
:10043000F9CF80918000877FF5CF84B58F7784BD19
:10044000089584B58F7DFBCF8091B0008F77809326
:10045000B00008958091B0008F7DF9CF8091900019
:100460008F77809390000895809190008F7DF9CFD1
:1004700080919000877FF5CF8091A0008F77809347
:10048000A00008958091A0008F7DF9CF8091A000F9
:10049000877FF5CF809120018F7780932001089589
:1004A000809120018F7DF9CF80912001877FF5CF4A
:1004B000CF93DF93282F30E0F901EE5AFD4F84915E
:1004C000F901E45FFD4FD491F901EA53FE4FC49165
:1004D000CC23A1F081110E94F101EC2FF0E0EE0F8E
:1004E000FF1FE455FE4FA591B491EC91ED2381E0FF
:1004F00090E009F480E0DF91CF91089580E090E0F2
:10050000FACF1F93CF93DF93282F30E0F901EE5AF3
:10051000FD4F8491F901E45FFD4FD491F901EA5355
:10052000FE4FC491CC23A9F0162F81110E94F10136
:10053000EC2FF0E0EE0FFF1FEE56FE4FA591B491A9
:100540008FB7F894EC91111108C0D095DE23DC939D
:100550008FBFDF91CF911F910895DE2BF8CFCF93FE
:10056000DF9390E0FC01E45FFD4F24918A539E4F9E
:10057000FC0184918823C9F090E0880F991FFC0149
:10058000E858FE4FA591B491FC01EE56FE4FC5917F
:10059000D49161110DC09FB7F8948C91209582235E
:1005A0008C938881282328839FBFDF91CF91089562
:1005B000623051F49FB7F8943C91822F8095832349
:1005C0008C93E8812E2BEFCF8FB7F894EC912E2BE4
:1005D0002C938FBFEACF3FB7F8948091A9039091F5
:1005E000AA03A091AB03B091AC0326B5A89B05C0AC
:1005F0002F3F19F00196A11DB11D3FBFBA2FA92FA2
:10060000982F8827BC01CD01620F711D811D911D9E
:1006100042E0660F771F881F991F4A95D1F708950A
:100620002FB7F8946091A5037091A6038091A7035A
:100630009091A8032FBF08950F931F93CF93DF933B
:10064000C82FD62F86E0C89FF0011124E85DFA4F2D
:1006500011A2878D90A181309105F1F058F0823080
:100660009105F1F1039709F440C0DF91CF911F91FB
:100670000F9108956623C9F361E070E08C2F0E940A
:1006800080010E9410036093800570938105809320
:10069000820590938305E9CF0E94100300918005A5
:1006A000109181052091820530918305AB01BC0139
:1006B000401B510B620B730B809192059091930537
:1006C000B0E0A0E084179507A607B70748F462E0FA
:1006D00070E08C2FDF91CF911F910F910C948001CE
:1006E00063E070E0D111C1CFF4CF70E060E0F1CFF2
:1006F00020918103260F3327331F21323105ECF47B
:1007000020910D04FC0190E080E0243069F082E04B
:100710000895A09181032191AC014F595C4FA40F22
:10072000B52FB11D2C930196861798F38091810304
:10073000680F6093810380E0089581E0089510922E
:100740000D0481E080930C041092E70361E084E1E2
:100750000E94810261E085E10E948102E9EBF0E004
:1007600080818E7F808380818D7F808388E48093E9
:10077000B80085E48093BC000895CF93DF9391E0A7
:10078000909360038823B9F0C091B800D091BA006B
:100790008091BC008A7B8093BC0060E084E10E9471
:1007A000810260E085E10E9481020E949F03D09354
:1007B000BA00C093B800DF91CF910895CF92DF9235
:1007C000EF92FF920F931F93CF93DF93D091360454
:1007D00081E0D13208F09CC0C09135040E94EB0248
:1007E0006B017C0180910D0481116CC082E08093CB
:1007F0000D0481E080930C048FEF80930B04109222
:100800000A04D0930904A5E1B4E0E9EEF3E080E046
:10081000D8138DC01092E8038091E803CC0FC82B49
:10082000C093E8038091E703813009F084C01092FF
:10083000E7030E94EB026B017C018091E803809347
:10084000BB0080910F0490911004A0911104B0910D
:100850001204892B8A2B8B2BA1F00E94EB020091B2
:100860000F041091100420911104309112046C199E
:100870007D098E099F09061717072807390708F40D
:1008800042C08091BC0083FDD8CF85EC8093BC0032
:100890000E94EB026B017C0180910D04823009F40F
:1008A0004CC080910B048F3F09F469C080910B0408
:1008B000803209F466C080910B04803309F463C070
:1008C00084E026C080910F0490911004A09111043F
:1008D000B0911204892B8A2B8B2B09F483CF0E94B1
:1008E000EB0200910F04109110042091110430913B
:1008F00012046C197D098E099F090617170728072E
:10090000390708F06FCF80910E040E94BD0385E087
:10091000109214041092360410921304DF91CF91B8
:100920001F910F91FF90EF90DF90CF9008959D91D0
:1009300091938F5F6DCF85EEA9CF80910F04909139
:100940001004A0911104B0911204892B8A2B8B2BD7
:1009500009F4A2CF0E94EB0200910F041091100441
:1009600020911104309112046C197D098E099F09A0
:10097000061717072807390708F08ECFC4CF80E085
:10098000C7CF82E0C5CF83E0C3CF0895E091D10304
:100990008091D203E81730F4F0E0EF54FC4F8081EF
:1009A00090E008958FEF9FEF08959091D10380918B
:1009B000D2032FEF3FEF981748F4E92FF0E0EF5400
:1009C000FC4F208130E09F5F9093D103C9010895CF
:1009D000CF92DF92EF92FF920F931F93CF93DF930B
:1009E0007C01CB018A0120911304222389F0EB01C1
:1009F0006B01C40ED51ECC15DD0569F06991D701D8
:100A0000ED91FC910190F081E02DC7011995F3CF94
:100A1000642F0E947803C801DF91CF911F910F913D
:100A2000FF90EF90DF90CF900895CF93DF931F92C8
:100A3000CDB7DEB76983209113042223F9F020910A
:100A40003604203258F021E030E0FC013383228369
:100A500090E080E00F90DF91CF9108958091140491
:100A6000E82FF0E0EB5EFB4F998190838F5F8093DE
:100A700014048093360481E090E0ECCF61E0CE0175
:100A800001960E947803F7CF682F87E394E00C94D7
:100A90001505CF93DF93DB01EA01FC01E45AFC4F1B
:100AA00040815CE0589F9001599F300D112447FF11
:100AB0001CC011961C921E9280818F5F8083808162
:100AC000A901480F511D87FD5A9557FF03C080812A
:100AD0008C30ACF08D919C911197049680349C4998
:100AE00038F18D919C91049625C08081A901480F11
:100AF000511D87FD5A9557FFDFCF8081DDCF8D9146
:100B00009C914081240F311D47FD3A95D901AA0FD0
:100B1000BB1FA20FB31FA453BD4F11962D913C9143
:100B2000820F931F998388838081DF91CF910895ED
:100B300080E49CE9998388838FEF8083F6CF862FAA
:100B40000C945802862F642F0C948102862F642FF8
:100B50000C94AF02FC01808580FD04C082FB8827D5
:100B600080F9089580E00895862F642F0C94AF02D9
:100B7000FC0181850E94580221E0892B09F420E0C4
:100B8000822F0895CF92DF92EF92FF920F931F93DF
:100B9000CF93DF93EC0188858B7F8887CE010E94FD
:100BA000B805182F8885869581701817B9F00E94AE
:100BB00010036A837B838C839D83888592E08927D9
:100BC0008887888582FB882780F9DF91CF911F91E4
:100BD0000F91FF90EF90DF90CF9008950E94100347
:100BE000CA80DB80EC80FD80AB01BC014C195D0943
:100BF0006E097F098E819F81B0E0A0E048175907F8
:100C00006A077B07F0F2888581701817D1F20E947D
:100C100010036A837B838C839D83888591E0892779
:100C2000846088870E9410030A851B852C853D857A
:100C3000601B710B820B930B6E877F87888B998B60
:100C40000E9410036A877B878C879D87BACFCF93DA
:100C5000DF93EC01698718860E94B805882319F094
:100C60008885836088870E9410036A837B838C83D6
:100C70009D83DF91CF910895089590E080E00895DD
:100C80008F929F92AF92BF920F931F93CF93DF9358
:100C9000CDB7DEB7A1970FB6F894DEBF0FBECDBFBC
:100CA00019A2423008F44AE08E010F5D1F4F842ED6
:100CB000912CB12CA12CA50194010E94D114E62FF6
:100CC000B901CA01EA3044F5E05DD801EE938D0127
:100CD000232B242B252B79F790E080E0109769F0E7
:100CE000FD0101900020E9F73197AF014A1B5B0B32
:100CF000BD0184EA94E00E94C401A1960FB6F89465
:100D0000DEBF0FBECDBFDF91CF911F910F91BF907E
:100D1000AF909F908F900895E95CD7CF009769F0CE
:100D2000FC0101900020E9F73197AF01481B590BF6
:100D3000BC0184EA94E00C94C40190E080E0089542
:100D4000CF93DF93EC0160E08E810E94810261E02D
:100D50008E810E94810260E08E810E9481028BE878
:100D600091E00197F1F7DF91CF910895CF92DF9253
:100D7000EF92FF920F931F93CF93DF936C017C014F
:100D800087E0E80EF11CD0E0C0E0062F10E0B801CB
:100D90000C2E02C0759567950A94E2F76170F70111
:100DA00081917F010E9481022196C430D10579F79B
:100DB000C601DF91CF911F910F91FF90EF90DF90CF
:100DC000CF900C94A006CF92DF92EF92FF920F93F8
:100DD0001F93CF93DF93EC01F62E642F8C810E943A
:100DE00081028D818F3F19F060E00E9481020F2DFA
:100DF00010E08F8584FF25C06E0187E0C80ED11CEE
:100E0000F12CE12CB8010E2C02C0759567950A945F
:100E1000E2F76170F60181916F010E948102FFEF9C
:100E2000EF1AFF0A88E0E816F10461F7CE01DF91BE
:100E3000CF911F910F91FF90EF90DF90CF900C9486
:100E4000A006B80184E0759567958A95E1F7CE0113
:100E50000E94B6066F2DCE01DF91CF911F910F91A9
:100E6000FF90EF90DF90CF900C94B60640E0682F93
:100E700084EA94E00C94E30681E00E9436078BE359
:100E80009FE10197F1F70895CF92DF92EF92FF92E1
:100E90007C010E943C07F7018081918122E0893426
:100EA000920741F489E492E0FF90EF90DF90CF90B9
:100EB0000C948E0622E08F34920719F48FE492E0AE
:100EC000F3CF22E08835920719F488E592E0ECCF61
:100ED00022E08136920719F481E692E0E5CF22E024
:100EE0008B36920719F48BE692E0DECF865792405C
:100EF00019F486E792E0D8CF8DE792E0D5CFCF9373
:100F0000DF93613029F09091B30498609093B3041B
:100F10006093B7041092B80490E49093B90480935E
:100F2000BA04805C8093BB0461E08091A8040E94B5
:100F3000AF028091A9048F3F19F061E00E94AF02D7
:100F400061E08091AA040E94AF02C4EAD4E09E014D
:100F5000245A34408091B30484FD0BC084E090E0B7
:100F600021962817390744F461E08E810E94AF0270
:100F7000EECF88E090E0F4CF8BE39DE00197F1F7AE
:100F800060E08091A8040E94810260E08091AA0440
:100F90000E9481028091A9048F3F19F060E00E94B5
:100FA00081028091B30484FD34C063E084EA94E05C
:100FB0000E94B606CBE4D6E4CE010197F1F763E0D8
:100FC00084EA94E00E94B6062197F1F763E084EA90
:100FD00094E00E94B60683E592E00197F1F762E0A3
:100FE00084EA94E00E94B6068091B30480620E9475
:100FF000360784E08093B4048CE00E9436070E9498
:101000003C0782E08093B50486E0DF91CF910C9499
:10101000360780620E9436078BE496E40197F1F769
:101020008091B30480620E94360783E592E00197C5
:10103000F1F78091B30480620E943607D5CF90917A
:10104000B704891710F08FEF890FE82FF0E0EC5507
:10105000FB4F848980680C94360741E00E94E306C8
:1010600081E090E00895FC0124813581232B39F43F
:1010700021E0FB018081882349F020E007C08081C6
:1010800091810E940A1721E0892BB9F7822F0895D8
:1010900085ED8093BC0080910F0490911004A09185
:1010A0001104B09112040796A11DB11D23E0B6955D
:1010B000A795979587952A95D1F72091BC0024FD97
:1010C00003C010920D04089540910F045091100434
:1010D0006091110470911204452B462B472B69F344
:1010E0000097A105B10541F025E32A95F1F700002D
:1010F0000197A109B109E1CF80910E040C94BD03C1
:101100002F923F924F925F926F927F928F929F9217
:10111000AF92BF92CF92DF92EF92FF920F931F9305
:10112000CF93DF9300D000D000D01F92CDB7DEB7B1
:101130009A878987FC01E080F1801A8219821C82DB
:101140001B821E821D82E114F104E9F0F701019077
:101150000020E9F731978F010E191F09B8016F5F61
:101160007F4F90E080E00E942016009709F427C28C
:101170009A8389831C830B83FC0110821E830D8359
:10118000B7010E94131768E572E0CE0101960E9434
:101190003308882319F11092E6031092E503898140
:1011A0009A81009709F41AC22A960FB6F894DEBF06
:1011B0000FBECDBFDF91CF911F910F91FF90EF90A8
:1011C000DF90CF90BF90AF909F908F907F906F9067
:1011D0005F904F903F902F900C94971561E672E0CE
:1011E000CE0101960E943308882339F081E090E017
:1011F0009093E6038093E503D2CF6BE672E0CE01D5
:1012000001960E943308882319F082E090E0F0CF25
:1012100066E772E0CE0101960E943308882319F038
:1012200083E090E0E5CF6FE472E0CE0101960E948A
:101230003308882309F4B3CF0E943C07F12CE12C3A
:1012400018861F82412C512C3201439480EE94E089
:101250000E94C20584E095E00E94C20582EF94E0FE
:101260000E94C20584E095E00E94AA05882321F02F
:101270000E943C07F12CE12CF1E0F09394050E94D0
:101280001003009184051091850520918605309109
:101290008705AB01BC01401B510B620B730B8091A6
:1012A000900590919105B0E0A0E084179507A607FE
:1012B000B70708F067C110E080918E05181760F439
:1012C000E0918A05F0918B05E10FF11D62E08081CC
:1012D0000E94AF021F5FF0CF312C80918F0538162E
:1012E00008F061C0C32CD12CE0918C05F0918D05E4
:1012F000EC0DFD1D61E080810E94AF02E0918C0544
:10130000F0918D05EC0DFD1D60E080810E94810251
:10131000D301C201032C04C0880F991FAA1FBB1F51
:101320000A94D2F74C015C01A094B094212C8091D6
:101330008E05281608F5022D10E0E0918A05F0913F
:101340008B05E00FF11F80810E9458020C5F1F4F38
:10135000000F111FF801E85DFA4F892B41F48081DD
:10136000918188299929918380832394E0CF80817A
:1013700091818A219B21F7CFE0918C05F0918D0519
:10138000EC0DFD1D61E080810E94810280918C0541
:1013900090918D05C80ED91E60E0F60180810E94F3
:1013A000AF0233949ACF08E215E06801F601878D09
:1013B00090A1892B31F4148E8FEF9FEF968F858F3C
:1013C00011A296E0C90ED11CE4E6CE16E5E0DE06D9
:1013D00069F7B12C80918E05B81608F053C0A12C86
:1013E0008B2C912C880C991CC401805D9A4F4C0168
:1013F00020918F05A21608F043C0F401608171812D
:101400000A2C02C0769567950A94E2F7B29E900185
:1014100011242A0D311DE8E2F5E080E0458D568D5E
:101420002417350709F4D8C08F5F36968A30B1F794
:1014300060FF24C0E8E2F5E090E080E0448D4111D7
:1014400018C0E0918805F0918905E20FF31F4081F3
:1014500056E0589FF001599FF00D1124E85DFA4FB6
:10146000448F368F258F10A2178E61E00E941C03D7
:1014700005C0019636968A30910501F7A394B8CF3E
:10148000B394A8CFB12CF80181A18111B82E0A5FC5
:101490001F4FC016D106B9F70E9410036093840550
:1014A000709385058093860590938705BB2009F48A
:1014B00069C080914905882309F464C0809147057B
:1014C00090914805019709F05DC08091440590ED29
:1014D000980F9A3008F459C080E00E941F084AE033
:1014E000B7010F2C000C880B990B0E94400680EE70
:1014F00094E00E94AA05882389F08F819885892B22
:1015000009F052C0C7010197049710F0F12CE12CAB
:101510000E943C07F886EF82F12CE12C82EF94E0E8
:101520000E94AA05882309F491CE81E080931304D8
:1015300080E580933504109214041092360490E0F4
:1015400080E00E94440590E080E00E94440585E030
:1015500090E00E9444050DED13E0F8018191919116
:101560008F010E944405F3E0053E1F07B1F70E947A
:10157000DE030E943C07E985FA85808191810E9403
:101580008E060DCE10929405A7CFFAE0FE9D900135
:10159000FF9D300D1124E82E880FFF0850E3E51A57
:1015A000F108E20EF31E98CFEF81F885EE0FFF1FD2
:1015B000E552FC4FF182E0820E943C07AFCF898167
:1015C0009A81009711F00E9497151A8219821E8243
:1015D0001D821C821B82D7CD617048CF2A960FB620
:1015E000F894DEBF0FBECDBFDF91CF911F910F9159
:1015F000FF90EF90DF90CF90BF90AF909F908F9033
:101600007F906F905F904F903F902F9008951F9222
:101610000F920FB60F9211242F933F938F939F93A6
:10162000AF93BF938091A5039091A603A091A703C8
:10163000B091A8033091A40323E0230F2D3758F570
:101640000196A11DB11D2093A4038093A50390933F
:10165000A603A093A703B093A8038091A903909138
:10166000AA03A091AB03B091AC030196A11DB11DDB
:101670008093A9039093AA03A093AB03B093AC0308
:10168000BF91AF919F918F913F912F910F900FBE7E
:101690000F901F90189526E8230F0296A11DB11DEB
:1016A000D2CF1F920F920FB60F9211240BB60F924A
:1016B0002F933F934F935F936F937F938F939F935A
:1016C000AF93BF93EF93FF938091B900887F8036EB
:1016D00009F44DC008F040C0883209F4A9C028F5CB
:1016E000803109F49DC0C8F4882309F4FBC0883018
:1016F00009F496C0FF91EF91BF91AF919F918F91A7
:101700007F916F915F914F913F912F910F900BBE01
:101710000F900FBE0F901F901895883109F488C064
:10172000803241F780930B0414C0803409F49DC0CB
:1017300040F48033B9F38833E9F680930B0485ECE9
:10174000B0C0803509F485C0883509F496C0883466
:1017500089F60E944808CECF883909F48CC038F544
:10176000883729F050F4883611F0803719F683E075
:1017700080930D041092A30357C0883809F47BC0EE
:10178000803919F0803809F0B5CF8091A3038032F9
:1017900008F071C0E091A30381E08E0F8093A30352
:1017A0008091BB00F0E0ED57FC4F80833DC0803B53
:1017B00039F0E0F4803A09F479C0883A09F09ACF18
:1017C00084E080930D041092820310928103E091D3
:1017D000AF03F091B00319958091810381110FC07F
:1017E00081E0809381031092610309C0803C09F479
:1017F000A6CF883C09F4A3CF883B09F07BCFE091CA
:10180000820381E08E0F80938203F0E0EF59FC4F5A
:1018100080818093BB00909182038091810329C0D5
:101820008091E8038093BB0085EC8093BC0062CF7D
:1018300090910A0480910904981758F5E0910A04E0
:1018400081E08E0F80930A04F0E0E751FC4F808125
:10185000E9CFE0910A0481E08E0F80930A04809121
:10186000BB00F0E0E751FC4F808390910A04809127
:1018700009049817C8F285E8D8CFE0910A0481E0FE
:101880008E0F80930A048091BB00F0E0E751FC4F7B
:10189000808380910C0481115CCF81E08093E70309
:1018A00084EA8093BC0010920D0424CF85EC8093D1
:1018B000BC0010920D048091A303803230F4E091BB
:1018C000A303F0E0ED57FC4F10826091A30370E09A
:1018D000E091AD03F091AE0383E893E01995109287
:1018E000A30308CF10920B0434CF1F920F920FB6B0
:1018F0000F9211240BB60F922F933F934F935F9348
:101900006F937F938F939F93AF93BF93EF93FF93C7
:1019100048E251E064E271E090E080E00E94490515
:10192000FF91EF91BF91AF919F918F917F916F91B7
:101930005F914F913F912F910F900BBE0F900FBE73
:101940000F901F9018951F920F920FB60F921124AF
:101950000BB60F922F933F934F935F936F937F93A9
:101960008F939F93AF93BF93EF93FF9348EA50E019
:1019700064EA70E083E090E00E944905FF91EF91F6
:10198000BF91AF919F918F917F916F915F914F9197
:101990003F912F910F900BBE0F900FBE0F901F9095
:1019A00018951F920F920FB60F9211240BB60F923B
:1019B0002F933F934F935F936F937F938F939F9357
:1019C000AF93BF93EF93FF9348E950E064E970E071
:1019D00082E090E00E944905FF91EF91BF91AF91A5
:1019E0009F918F917F916F915F914F913F912F9137
:1019F0000F900BBE0F900FBE0F901F9018951F9267
:101A00000F920FB60F9211240BB60F922F933F93A4
:101A10004F935F936F937F938F939F93AF93BF93F6
:101A2000EF93FF9348E850E064E870E081E090E0D5
:101A30000E944905FF91EF91BF91AF919F918F91C6
:101A40007F916F915F914F913F912F910F900BBEBE
:101A50000F900FBE0F901F90189510923A0410929D
:101A6000390488EE93E0A0E0B0E080933B049093CB
:101A70003C04A0933D04B0933E048DE192E090932A
:101A800038048093370410922A0510922E05109284
:101A90002D0510922F0583E492E090932905809301
:101AA0002805E4E4F5E0108214821382158236964C
:101AB00085E0E038F807B9F783E092E090938B0572
:101AC00080938A0580E092E090938D0580938C0549
:101AD00084E080938E0583E080938F0587E092E019
:101AE00090938905809388058AE090E09093910512
:101AF0008093900524EF31E0309393052093920575
:101B00001092960510929505109284051092850505
:101B10001092860510928705109294052BE332E00F
:101B20003093170520931605109218051092190589
:101B300010921A0510921B0590931D0580931C05A9
:101B400010921E0510921F05309305052093040581
:101B500010920605109207051092080510920905CB
:101B600090930B0580930A0510920C0510920D05B9
:101B70003093F3042093F2041092F4041092F504CD
:101B80001092F6041092F7049093F9048093F804ED
:101B90001092FA041092FB043093E1042093E004C5
:101BA0001092E2041092E3041092E4041092E5040F
:101BB0009093E7048093E6041092E8041092E904FD
:101BC0003093CF042093CE041092D0041092D1040D
:101BD0001092D2041092D3049093D5048093D4042D
:101BE0001092D6041092D7043093BD042093BC0405
:101BF0001092BE041092BF041092C0041092C1044F
:101C00009093C3048093C2041092C4041092C5043C
:101C10001092A7041092A6048FE292E09093A5047C
:101C20008093A4048DE08093A8048EE08093A9049F
:101C30008CE08093AA048BE08093AB048AE08093CD
:101C4000AC0489E08093AD0488E08093AE041092E8
:101C5000AF041092B0041092B1041092B20410922A
:101C6000B30461E080E10E947F0787E892E09093EF
:101C70009204809391041092930410929B0410920A
:101C80009A0410929904109298041092970410925A
:101C90009604109295041092940481E994E0909334
:101CA0009F0480939E0484E497E09093A104809322
:101CB000A00480E898E09093A3048093A20489E4B0
:101CC00092E090938504809384041092860410928D
:101CD0008E0410928D0410928C0410928B0410923A
:101CE0008A041092890410928804109287048FE469
:101CF00092E0909378048093770410927904109284
:101D000081041092800410927F0410927E0410923D
:101D10007D0410927C0410927B0410927A0488E572
:101D200092E090936B0480936A0410926C0410927A
:101D30007404109273041092720410927104109241
:101D4000700410926F0410926E0410926D0481E67C
:101D500092E090935E0480935D0410925F04109271
:101D60006704109266041092650410926404109245
:101D700063041092620410926104109260048BE676
:101D800092E0909351048093500410925204109268
:101D90005A04109259041092580410925704109249
:101DA000560410925504109254041092530486E77E
:101DB00092E090934404809343041092450410925F
:101DC0004D0410924C0410924B0410924A0410924D
:101DD0004904109248041092470410924604089552
:101DE000CF93DF93CDB7DEB761970FB6F894DEBF20
:101DF0000FBECDBF789484B5826084BD84B5816008
:101E000084BD85B5826085BD85B5816085BD8091C5
:101E10006E00816080936E0010928100809181003D
:101E20008260809381008091810081608093810035
:101E3000809180008160809380008091B1008460F7
:101E40008093B1008091B00081608093B000809158
:101E500091008260809391008091910081608093D5
:101E60009100809190008160809390008091A1000A
:101E700082608093A1008091A10081608093A10085
:101E80008091A00081608093A000809121018260F8
:101E900080932101809121018160809321018091B3
:101EA000200181608093200180917A00846080937A
:101EB0007A0080917A00826080937A0080917A0023
:101EC000816080937A0080917A00806880937A00A4
:101ED0001092C1008FEF9FEF9093E6038093E5038C
:101EE00084E190E09093DE038093DD039093E00320
:101EF0008093DF039093E2038093E1039093E403E4
:101F00008093E3031092D1031092D2031092140431
:101F1000109236040E949F0382EC91E09093B003EC
:101F20008093AF0383EC91E09093AE038093AD0375
:101F300081E08093130480E58093350490E080E095
:101F40000E94440590E080E00E9444050E94DE0368
:101F50000E94EB026B017C0180910D04811165C030
:101F600081E080930D0480930C049FEF90930B0409
:101F700010920A0494E0909309048093E8038091FE
:101F8000E803806A8093E8038091E703813009F0D9
:101F900006C21092E7030E94EB026B017C01809164
:101FA000E8038093BB0080910F0490911004A091EE
:101FB0001104B0911204892B8A2B8B2BA1F00E9463
:101FC000EB0200910F041091100420911104309144
:101FD00012046C197D098E099F0906171707280737
:101FE000390708F443C08091BC0083FDD8CF85EC4D
:101FF0008093BC000E94EB026B017C0180910D0478
:10200000813009F4CEC180910A04853008F0EBC11B
:1020100080910A04E9EEF3E0A1EBB3E090E09817B9
:1020200051F121912D939F5FFACF80910F049091F0
:102030001004A0911104B0911204892B8A2B8B2BD0
:1020400009F48ACF0E94EB0200910F041091100452
:1020500020911104309112046C197D098E099F0999
:10206000061717072807390708F076CF80910E0466
:102070000E94BD0380E01092D1038093D203882395
:10208000C9F087E394E00E94D5048430910590F470
:102090009093E6038093E5030DED13E087E394E06E
:1020A0000E94D504D8018D939D938D01B3E0053E28
:1020B0001B07A1F764E084E10E947F0780E00E9493
:1020C0001F0862E083E00E94AF0262E082E00E94AB
:1020D000AF0262E086E00E94AF0262E087E00E9409
:1020E000AF0262E084E00E94AF0262E085E00E94FD
:1020F000AF0260E089E20E94AF0260E08AE20E94E3
:10210000AF0260E08BE20E94AF0260E08CE20E94CE
:10211000AF0260E089E20E94810260E08AE20E94F0
:10212000810260E08BE20E94810260E08CE20E940A
:10213000810263E070E086E195E00E94270662E09C
:1021400070E084E095E00E94270666E070E082EF90
:1021500094E00E94270667E070E080EE94E00E9421
:10216000270665E070E08CEB94E00E94270664E0AF
:1021700070E08EEC94E00E94270682E390E090935A
:102180001D0580931C0590930B0580930A05909381
:10219000F9048093F8049093E7048093E604909305
:1021A000C3048093C2049093D5048093D40481E93E
:1021B00094E0909388048093870484E894E090935B
:1021C00099048093980480918F0490919004892BB6
:1021D00041F480919C0490919D049093900480938D
:1021E0008F0484E894E0909381048093800487E7CF
:1021F00094E090938A048093890480918204909162
:102200008304892B41F480918F04909190049093E2
:1022100083048093820484E894E090936E04809316
:102220006D048AE694E090938C0480938B048091F3
:10223000750490917604892B41F480918F049091DC
:10224000900490937604809375048AE694E09093CA
:102250006704809366048DE594E090937004809306
:102260006F048091680490916904892B41F48091F6
:1022700075049091760490936904809368048DE5C9
:1022800094E090935A048093590480E594E09093ED
:1022900063048093620480915B0490915C04892BB9
:1022A00041F4809168049091690490935C04809358
:1022B0005B0480E594E090934D0480934C0483E4A8
:1022C00094E0909356048093550480914E0490912D
:1022D0004F04892B41F480915B0490915C049093AE
:1022E0004F0480934E0481E994E00E94A301FE0113
:1022F00031964F01CC24CA94DC2CE090E503F09099
:10230000E603FFEFEF16FF0609F034C186E195E022
:102310000E94C20580EE94E00E94C2058CEB94E01E
:102320000E94C2058EEC94E00E94C20582EF94E008
:102330000E94C20580EE94E00E94AA05882309F459
:1023400054C007E010E01093D4030093D30320910E
:102350009E0430919F048DE0F901D40101900D920B
:102360008A95E1F78091D3039091D403853091054C
:1023700009F49CC00CF06EC08330910509F4A5C02F
:10238000049709F49EC01092D4031092D30380E006
:1023900090E0892B09F4B1CF0E940000AECF85EE0A
:1023A00027CE80910F0490911004A0911104B09158
:1023B0001204892B8A2B8B2B09F420CE0E94EB026E
:1023C00000910F0410911004209111043091120417
:1023D0006C197D098E099F09061717072807390709
:1023E00008F00CCE43CE85E015CE82EF94E00E943B
:1023F000AA05882339F026E030E03093D4032093F7
:10240000D303A5CF8CEB94E00E94AA05882339F072
:1024100085E090E09093D4038093D30398CF8EEC23
:1024200094E00E94AA05882319F084E090E0F2CF9E
:1024300086E195E00E94AA05882339F0A3E0B0E088
:10244000B093D403A093D30382CF1092D4031092FD
:10245000D3037DCF86309105D1F0079709F093CF54
:10246000E885F985309709F492C294868386E091D5
:102470009E04F0919F0487819085009729F0DC01EC
:102480001C96FC93EE931B970E94A3017CCFEC81DA
:10249000FD8181E994E03097B9F394868386E091D9
:1024A0009E04F0919F0483819481E7CFF901858197
:1024B0009681009749F3DC011C963C932E931B9761
:1024C000E3CFF90181859285F4CF0E943C0781E931
:1024D00094E00E94A301D092E603C092E503B1E02C
:1024E000B0931304E0E5E0933504109214041092C5
:1024F000360490E080E00E94440590E080E00E9475
:10250000440585E090E00E94440584E190E00E944B
:10251000440584E190E00E94440584E190E00E943B
:10252000440584E190E00E9444050E94DE0384E1BA
:1025300090E09093DE038093DD039093E00380931B
:10254000DF039093E2038093E1039093E40380938D
:10255000E30360E089E20E94810260E08AE20E9477
:10256000810260E08BE20E94810260E08CE20E94C6
:10257000810209CF0E943C0780E00E941F08E114FD
:10258000F10409F054C180E992E00E948E0661E0F6
:1025900089E20E94810260E08AE20E94810260E09A
:1025A0008BE20E94810260E08CE20E94810221E0C5
:1025B0002093130430E530933504109214041092E4
:1025C000360490E080E00E94440590E080E00E94A4
:1025D0004405A090E503B090E603C5010E944405C0
:1025E0009DED292E93E0392E7101D7018D919D919A
:1025F0007D010E944405E5EEF3E0EE15FF05A9F725
:102600000E94DE030E9410036093D9037093DA03E3
:102610008093DB039093DC03F501EE0FFF1FE35281
:10262000FC4F80819181092E000CAA0BBB0B80937B
:10263000D5039093D603A093D703B093D803B12CBE
:10264000A12C4090D5035090D6036090D703709092
:10265000D803411451046104710409F452C080EE9E
:1026600094E00E94C20582EF94E00E94C20580EED1
:1026700094E00E94AA05882311F0F1E0AF2682EFD2
:1026800094E00E94AA05882309F408C1D092E603C9
:10269000C092E5030E943C0781E994E00E94A301F7
:1026A00001E00093130410E5109335041092140414
:1026B0001092360490E080E00E94440590E080E0B3
:1026C0000E94440585E090E00E944405D1018D916F
:1026D0009D911D010E9444052E143F04B9F70E94EC
:1026E000DE0360E089E20E94810260E08AE20E94EB
:1026F000810260E08BE20E94810260E08CE20E9435
:1027000081028091D5039091D603A091D703B09117
:10271000D803892B8A2B8B2B09F039CE8091E503C6
:102720009091E6038330910509F02BC10E943C078C
:1027300080EC92E00E948E0661E089E20E948102B4
:1027400061E08AE20E94810261E08BE20E948102E4
:1027500061E08CE20E94810282EF94E00E94C20557
:1027600080EE94E00E94C2058CEB94E00E94C205CA
:102770008EEC94E00E94C20582EF94E00E94AA05CC
:10278000811112C080EE94E00E94AA0581110CC054
:102790008CEB94E00E94AA05811106C08EEC94E0B7
:1027A0000E94AA058823C1F20E943C0781E994E0B7
:1027B0000E94A301D092E603C092E50321E020939A
:1027C000130430E53093350410921404109236044B
:1027D00090E080E00E94440590E080E00E94440583
:1027E00085E090E00E94440584E190E00E94440569
:1027F00084E190E00E94440584E190E00E94440559
:1028000084E190E00E9444050E94DE0360E089E2DA
:102810000E94810260E08AE20E94810260E08BE215
:102820000E94810260E08CE20E948102B0CDF1E062
:10283000EF16F10451F48FE992E00E948E0660E0F9
:1028400089E20E94810261E0A7CE02E0E016F10475
:1028500071F48FEA92E00E948E0660E089E20E94A5
:10286000810260E08AE20E94810261E099CE13E079
:10287000E116F10409F09BCE86E792E00E948E06F5
:1028800060E089E20E94810260E08AE20E948102A7
:1028900060E08BE20E94810261E086CE0E9410031C
:1028A000AB01BC010091D9031091DA032091DB0345
:1028B0003091DC0388E19CEFAFEFBFEF801B910B01
:1028C000A20BB30B8E879F87A88BB98B840F951FA4
:1028D000A61FB71F883E9340A105B10598F5F1E00A
:1028E0004F1A5108610871084092D5035092D603DF
:1028F0006092D7037092D8030E9410036093D903AB
:102900007093DA038093DB039093DC0301E0009380
:10291000130410E510933504109214041092360439
:1029200090E080E00E9444058091E5039091E603E9
:1029300001960E944405642D87E394E00E941505EA
:102940000E94DE03A114B10489F44090D503509095
:10295000D6036090D7037090D80381E00E941F08CF
:102960004AE0C301B2010E9440066BCE0E941003F0
:102970006093D9037093DA038093DB039093DC03B5
:1029800060CE01969093E6038093E50300CDE0913D
:10299000A204F091A304309709F4F5CCC90119956C
:1029A000F2CCA1E21A2EAA1BBB1BFD010DC0AA1F6F
:1029B000BB1FEE1FFF1FA217B307E407F50720F0A8
:1029C000A21BB30BE40BF50B661F771F881F991F23
:1029D0001A9469F760957095809590959B01AC016C
:1029E000BD01CF010895EE0FFF1F881F8BBF079019
:1029F000F691E02D19940F931F93CF93DF938230BC
:102A0000910510F482E090E0E0919905F0919A052B
:102A100030E020E0B0E0A0E0309799F421153105D6
:102A200009F44AC0281B390B24303105D8F58A81B6
:102A30009B816115710589F1FB0193838283FE01FE
:102A400011C0408151810281138148175907E0F07C
:102A50004817590799F4109761F012960C93129742
:102A600013961C933296CF01DF91CF911F910F9156
:102A700008950093990510939A05F4CF2115310517
:102A800051F04217530738F0A901DB019A01BD014B
:102A9000DF01F801C1CFEF01F9CF90939A05809340
:102AA0009905CDCFFE01E20FF31F81939193225040
:102AB000310939832883D7CF209197053091980524
:102AC000232B41F420911502309116023093980582
:102AD000209397052091130230911402211531059E
:102AE00041F42DB73EB74091170250911802241BB4
:102AF000350BE0919705F0919805E217F307A0F4E4
:102B00002E1B3F0B2817390778F0AC014E5F5F4F43
:102B10002417350748F04E0F5F1F509398054093D8
:102B20009705819391939FCFF0E0E0E09CCFCF9306
:102B3000DF930097E9F0FC01329713821282A09193
:102B40009905B0919A05ED0130E020E01097A1F4CD
:102B500020813181820F931F209197053091980534
:102B60002817390709F061C0F0939805E09397059D
:102B7000DF91CF910895EA01CE17DF07E8F54A818A
:102B80005B819E0141155105B1F7E901FB83EA83A1
:102B900049915991C40FD51FEC17FD0761F480814D
:102BA00091810296840F951FE90199838883828120
:102BB00093819B838A83F0E0E0E012968D919C9153
:102BC00013970097B9F52D913C911197CD0102967D
:102BD000820F931F20919705309198052817390788
:102BE00039F6309751F510929A0510929905B093E5
:102BF0009805A0939705BCCFD383C28340815181B0
:102C0000840F951FC817D90761F44E5F5F4F888105
:102C10009981480F591F518340838A819B819383F7
:102C200082832115310509F0B0CFF0939A05E09326
:102C300099059ECFFD01DC01C0CF13821282D7CF50
:102C40004F925F926F927F928F929F92AF92BF92BC
:102C5000CF92DF92EF92FF920F931F93CF93DF9368
:102C60008C01009799F4CB01DF91CF911F910F91C7
:102C7000FF90EF90DF90CF90BF90AF909F908F909C
:102C80007F906F905F904F900C94FB14FC01E60FC7
:102C9000F71F9C0122503109E217F30708F4AEC078
:102CA000D901CD91DC911197C617D70720F1C53016
:102CB000D10578F0CE0104978617970750F0C61B10
:102CC000D70B2297C193D1936D937C93CF010E9430
:102CD0009715C801DF91CF911F910F91FF90EF9051
:102CE000DF90CF90BF90AF909F908F907F906F902C
:102CF0005F904F9008955B01AC1ABD0A4C018C0E99
:102D00009D1EA0919905B0919A05512C412CF12C52
:102D1000E12C109731F580919705909198058815D1
:102D2000990509F05CC04616570608F058C0809116
:102D3000130290911402009741F48DB79EB7409111
:102D4000170250911802841B950BE817F90708F039
:102D500055C0F0939805E0939705F901718360835E
:102D6000B8CF8D919C91119712966C9012971396F3
:102D70007C901397A815B90559F56C0142E0C40E73
:102D8000D11CCA14DB0420F1AC014A195B09DA0139
:102D90001296159780F06282738251834083D90125
:102DA0006D937C93E114F10471F0D7011396FC93B9
:102DB000EE9312978ECF22968C0F9D1FF90191836F
:102DC0008083F301EFCFF0939A05E093990581CFCB
:102DD0004816590608F42C017D01D3019ACFCB0186
:102DE0000E94FB147C01009749F0AE01B8010E94DB
:102DF0000117C8010E94971587016BCF10E000E012
:102E000068CFFB01DC0102C001900D92415050409F
:102E1000D8F70895FB01DC018D9101908019011014
:102E2000D9F3990B0895FB01DC0101900D9200206C
:082E3000E1F70895F894FFCFCB
:102E38001A1B1C16171819313233343536373839FE
:102E48002A302300009B058000000000001505E8DB
:102E5800043D06C504BB01D504C604000000002DCE
:102E680008C4013D063C0600000000B805B4050092
:102E7800000000A605A2059F0553746172740053F3
:102E880065742054696D65005072652057617368D8
:102E980000546964652057617368005761746572EE
:102EA800205761736800447279696E67004D6169E3
:102EB8006E204D656E75004D656E75526F6F7400AE
:102EC8005072652057617368696E672E2E2E005404
:102ED8006964652057617368696E672E2E2E0057E6
:102EE800617465722057617368696E672E2E2E00B3
:0C2EF8002D2D2D444F4E452D2D2D00009A
:00000001FF
