:100000000C942F010C9460010C9460010C9460011D
:100010000C9460010C9460010C9460010C946001DC
:100020000C9460010C9460010C9460010C946001CC
:100030000C9460010C9460010C9460010C946001BC
:100040000C9460010C9460010C9460010C946001AC
:100050000C9460010C9460010C9460010C940E04EB
:100060000C9460010C9460010C9460010C9460018C
:100070000C9460010C9460010C9460010C9460017C
:100080000C9460010C9460010C9460010C9460016C
:100090000C9460010C9460010C9460010C9460015C
:1000A0000C9460010C9460010C9460010C9460014C
:1000B0000C9460010C9460010C9460010C9460013C
:1000C0000C9460010C9460010C9460010C9460012C
:1000D0000C9460010C9460010C9460010C9460011C
:1000E0000C9460010C94F1010C9403020C94DA015D
:1000F0000C94D2010C94C7020C94C6020C94110209
:100100000C940C020C94E1010C94DE010C940D0291
:100110000C94FF010C9407020C94F5010C94E70178
:100120000C9458050C94D6010C94EB010C948101AD
:100130000C94F9010C9408040C94CC0100002000EC
:100140002300260029002C002F00320000010000AF
:1001500003010601090100000A0B02090C0D0E083B
:100160000703040100000000000000000000000080
:10017000000000000000000000000000000000007F
:10018000000012111000000000000000000000003C
:10019000000000000000000000000000000022003D
:1001A000250028002B002E00310034000201000041
:1001B000050108010B0100002100240027002A008E
:1001C0002D003000330001010000040107010A0185
:1001D00005050505070508080808020202020A0AC3
:1001E00008080404040401010101010101010303E1
:1001F000030303030303040707070C0C0C0C0C0C8C
:100200000C0C0202020206060606060606060B0B88
:100210000B0B0B0B0B0B01021020200808102040C9
:1002200010204080020102010804020101020408BA
:100230001020408080402010080402018004020148
:100240008040201008040201080402010102040891
:10025000102040800102040810204080580511241D
:100260001FBECFEFD1E2DEBFCDBF00E00CBF12E07A
:10027000A0E0B2E0E4E4FBE000E00BBF02C00790C6
:100280000D92A231B107D9F722E0A2E1B2E001C09C
:100290001D92A333B207E1F711E0CFE2D1E000E015
:1002A00006C021970109802FFE010E949805CE32D9
:1002B000D10780E00807A9F70E9458040C94A00514
:1002C0000C94000090E0FC01EA5EFD4F2491805305
:1002D0009E4FFC018491882399F090E0880F991F2C
:1002E000FC01EA54FE4FA591B491FC01E456FE4F87
:1002F000859194918FB7F894EC91E22BEC938FBF9A
:100300000895AF92BF92CF92DF92EF92FF920F9338
:100310001F93CF93DF936C017B018B01040F151F9B
:10032000EB015E01AE18BF08C017D10759F0699103
:10033000D601ED91FC910190F081E02DC601199557
:10034000892B79F7C501DF91CF911F910F91FF9014
:10035000EF90DF90CF90BF90AF90089581508231A1
:1003600008F05AC0E82FF0E08827E654FE4F8F4F80
:100370000C949805DA01DE01CC01D201D6010C0201
:10038000E101E701EB01F101F501F901FF010302D0
:100390000C0207020D021102809180008F7780937A
:1003A00080000895809180008F7DF9CF809180003A
:1003B000877FF5CF84B58F7784BD089584B58F7D11
:1003C000FBCF8091B0008F778093B000089580912B
:1003D000B0008F7DF9CF809190008F77809390004F
:1003E0000895809190008F7DF9CF80919000877F54
:1003F000F5CF8091A0008F778093A0000895809121
:10040000A0008F7DF9CF8091A000877FF5CF8091EC
:1004100020018F77809320010895809120018F7DA6
:10042000F9CF80912001877FF5CFCF93DF93282FDD
:1004300030E0F901EA5AFE4F8491F901EA5EFD4F7E
:10044000D491F901E053FE4FC491CC23A1F0811166
:100450000E94AE01EC2FF0E0EE0FFF1FE45CFE4FB8
:10046000A591B491EC91ED2381E090E009F480E056
:10047000DF91CF91089580E090E0FACF1F93CF9362
:10048000DF93282F30E0F901EA5AFE4F8491F901F9
:10049000EA5EFD4FD491F901E053FE4FC491CC23A5
:1004A000A9F0162F81110E94AE01EC2FF0E0EE0FA3
:1004B000FF1FE456FE4FA591B4918FB7F894EC91CD
:1004C000111108C0D095DE23DC938FBFDF91CF914F
:1004D0001F910895DE2BF8CF3FB7F8948091130257
:1004E00090911402A0911502B091160226B5A89B16
:1004F00005C02F3F19F00196A11DB11D3FBFBA2FB6
:10050000A92F982F8827BC01CD01620F711D811D75
:10051000911D42E0660F771F881F991F4A95D1F7FA
:1005200008958F929F92AF92BF92CF92DF92EF92F7
:10053000FF920E946C024B015C0188ECC82ED12C0A
:10054000E12CF12C0E946C02681979098A099B0937
:10055000683E734081059105A8F321E0C21AD108D5
:10056000E108F10888EE880E83E0981EA11CB11CFA
:10057000C114D104E104F10429F7FF90EF90DF905A
:10058000CF90BF90AF909F908F900895089590E086
:1005900080E00895CF93DF93EC0160E08E810E94AC
:1005A0003E0261E08E810E943E0260E08E810E94E8
:1005B0003E028BE891E00197F1F7DF91CF9108952A
:1005C000CF92DF92EF92FF920F931F93CF93DF931F
:1005D0006C017C0187E0E80EF11CD0E0C0E0062F42
:1005E00010E0B8010C2E02C0759567950A94E2F7E9
:1005F0006170F70181917F010E943E022196C43013
:10060000D10579F7C601DF91CF911F910F91FF902E
:10061000EF90DF90CF900C94CA02CF92DF92EF92CE
:10062000FF920F931F93CF93DF93EC01F62E642F6D
:100630008C810E943E028D818F3F19F060E00E9404
:100640003E020F2D10E08F8584FF25C06E0187E0EC
:10065000C80ED11CF12CE12CB8010E2C02C07595EE
:1006600067950A94E2F76170F60181916F010E942B
:100670003E02FFEFEF1AFF0A88E0E816F10461F787
:10068000CE01DF91CF911F910F91FF90EF90DF90FE
:10069000CF900C94CA02B80184E0759567958A954D
:1006A000E1F7CE010E94E0026F2DCE01DF91CF91E4
:1006B0001F910F91FF90EF90DF90CF900C94E0028C
:1006C00040E0682F8BE192E00C940D03CF93DF9311
:1006D000823029F490912A02986090932A028093A4
:1006E0002E0210922F0280E48093300280E18093EA
:1006F000310280E58093320280911F020E946201E4
:10070000809120028F3F11F00E94620180912102AE
:100710000E946201CBE1D2E09E012B5132408091D8
:100720002A0284FD0AC084E090E021962817390748
:100730003CF48E810E946201EFCF88E090E0F5CF1B
:100740008BE39DE00197F1F760E080911F020E942A
:100750003E0260E0809121020E943E0280912002D0
:100760008F3F19F060E00E943E0280912A0284FDD2
:1007700039C063E08BE192E00E94E002CBE4D6E472
:10078000CE010197F1F763E08BE192E00E94E00275
:100790002197F1F763E08BE192E00E94E00283E5AC
:1007A00092E00197F1F762E08BE192E00E94E002B3
:1007B00080912A0280620E94600384E080932B0271
:1007C0008CE00E94600381E00E9460038BE39FE164
:1007D0000197F1F782E080932C0286E0DF91CF91C0
:1007E0000C94600380620E9460038BE496E401979E
:1007F000F1F780912A0280620E94600383E592E013
:100800000197F1F780912A0280620E946003D0CFA5
:1008100041E00E940D0381E090E008951F920F9245
:100820000FB60F9211242F933F938F939F93AF9303
:10083000BF938091170290911802A0911902B09174
:100840001A023091120223E0230F2D3758F501963A
:10085000A11DB11D209312028093170290931802DC
:10086000A0931902B0931A0280911302909114027E
:10087000A0911502B09116020196A11DB11D8093A1
:10088000130290931402A0931502B0931602BF9125
:10089000AF919F918F913F912F910F900FBE0F902D
:1008A0001F90189526E8230F0296A11DB11DD2CFE7
:1008B000CF93DF93CDB7DEB7A1970FB6F894DEBF25
:1008C0000FBECDBF789484B5826084BD84B581604D
:1008D00084BD85B5826085BD85B5816085BD80910B
:1008E0006E00816080936E00109281008091810083
:1008F000826080938100809181008160809381007B
:10090000809180008160809380008091B10084603C
:100910008093B1008091B00081608093B00080919D
:10092000910082608093910080919100816080931A
:100930009100809190008160809390008091A1004F
:1009400082608093A1008091A10081608093A100CA
:100950008091A00081608093A0008091210182603D
:1009600080932101809121018160809321018091F8
:10097000200181608093200180917A0084608093BF
:100980007A0080917A00826080937A0080917A0068
:10099000816080937A0080917A00806880937A00E9
:1009A0001092C10082E00E94660345E050E06CE0D6
:1009B00072E08BE192E00E9481018BE3282E8FE1AF
:1009C000382E98EE492E93E0592E612C712C2AE096
:1009D000822E912CA12CB12C88E00E9415026C0172
:1009E00089E00E9415027C018AE00E9415028C01B8
:1009F000CA94CD2829F488E10E9460030E949102E4
:100A0000EA94EF2829F48CE10E9460030E9491028D
:100A10000130110531F481E00E946003C1010197AA
:100A2000F1F7E0912E02E23008F040C0E150F0E032
:100A3000E55EFD4F848980680E9460032FB7F894BB
:100A400060911702709118028091190290911A0218
:100A50002FBFA30192010E94760519A28E010F5D9E
:100A60001F4FCA01B901A50194010E947605605D7E
:100A7000F80162938F01211531054105510589F770
:100A8000309761F001900020E9F73197AF01401BEA
:100A9000510BB8018BE192E00E94810180E090E06F
:100AA000892B09F499CF0E94000096CFE1E0BFCFD7
:100AB000EBE1F2E01382128284E092E09183808382
:100AC0008CE084838FEF85838BE0868385E087834A
:100AD00084E0808783E0818782E0828713861486A2
:100AE00015861686178681E00C946603A1E21A2EFD
:100AF000AA1BBB1BFD010DC0AA1FBB1FEE1FFF1FC2
:100B0000A217B307E407F50720F0A21BB30BE40B11
:100B1000F50B661F771F881F991F1A9469F7609558
:100B20007095809590959B01AC01BD01CF01089512
:100B3000EE0FFF1F881F8BBF0790F691E02D1994D1
:040B4000F894FFCF57
:100B44000000000008048101C702C602726F6861D8
:020B54006D0032
:00000001FF
