:100000000C9417010C9438010C9438010C943801AD
:100010000C9438010C9438010C9438010C9438017C
:100020000C9438010C9438010C9438010C9438016C
:100030000C9438010C9438010C9438010C9438015C
:100040000C9438010C9438010C9438010C9438014C
:100050000C9438010C9438010C9438010C9456021D
:100060000C9438010C9438010C9438010C9438012C
:100070000C9438010C9438010C9438010C9438011C
:100080000C9438010C9438010C9438010C9438010C
:100090000C9438010C9438010C9438010C943801FC
:1000A0000C9438010C9438010C9438010C943801EC
:1000B0000C9438010C9438010C9438010C943801DC
:1000C0000C9438010C9438010C9438010C943801CC
:1000D0000C9438010C9438010C9438010C943801BC
:1000E0000C9438010C94C7010C94A8010C9489015C
:1000F0000C94BF010C94B5010C94CD010C94AC018F
:100100000C94B9010C94A0010C94D5010C948E01AF
:100110000C94DB010C94DF010C94C3010C94D1010D
:100120000C94A4010C94AF0100000A0B02090C0D01
:100130000E0807030401000000000000000000009A
:1001400000000000000000000000000000000000AF
:10015000000000001211100000000000000000006C
:10016000000000000000000000000000000000008F
:100170002200250028002B002E003100340002014F
:100180000000050108010B010000210024002700E8
:100190002A002D0030003300010100000401070196
:1001A0000A010505050507050808080802020202FC
:1001B0000A0A080804040404010101010101010103
:1001C0000303030303030303040707070C0C0C0CCE
:1001D0000C0C0C0C020202020606060606060606B7
:1001E0000B0B0B0B0B0B0B0B010210202008081044
:1001F0002040102040800201020108040201010297
:10020000040810204080804020100804020180046F
:1002100002018040201008040201080402010102CA
:10022000040810204080010204081020408011249E
:100230001FBECFEFD1E2DEBFCDBF00E00CBF12E0AA
:10024000A0E0B2E0E6E7FBE000E00BBF02C00790F1
:100250000D92A030B107D9F722E0A0E0B2E001C0D2
:100260001D92AA30B207E1F70E94A0020C94B905D2
:100270000C94000090E0FC01E851FE4F24918E5553
:100280009E4FFC018491882399F090E0880F991F7C
:10029000FC01E857FE4FA591B491FC01E259FE4FD5
:1002A000859194918FB7F894EC91E22BEC938FBFEA
:1002B0000895282F30E0F901E85DFE4F9491F9018F
:1002C000E851FE4F44912E553E4FF90124912223CF
:1002D00009F435C0992311F191509231F8F4E92FC6
:1002E000F0E08827E958FE4F8F4F0C94AA05A8012B
:1002F000AC018901A001A4018E01AF01B501B901D2
:10030000BF01C301C701CD01D1018E01D501DB01C0
:10031000DF01809180008F7780938000E22FF0E0F2
:10032000EE0FFF1FE259FE4FA591B4918FB7F894DD
:10033000EC91611148C040954E234C938FBF0895B6
:10034000809180008F7DE8CF80918000877FE4CF0F
:1003500084B58F7784BDE2CF84B58F7DFBCF80914C
:10036000B0008F778093B000D9CF8091B0008F7D9F
:10037000F9CF809190008F7780939000CFCF8091BC
:1003800090008F7DF9CF80919000877FF5CF80918D
:10039000A0008F778093A000C1CF8091A0008F7DB7
:1003A000F9CF8091A000877FF5CF809120018F77D2
:1003B00080932001B3CF809120018F7DF9CF809170
:1003C0002001877FF5CF4E2BB8CF90917B00977F90
:1003D00090937B008653806480937C0080917A00A8
:1003E000806480937A0080917A0086FDFCCF8091B2
:1003F00078009091790008953FB7F89480910502B4
:1004000090910602A0910702B091080226B5A89B20
:1004100005C02F3F19F00196A11DB11D3FBFBA2F96
:10042000A92F982F8827BC01CD01620F711D811D56
:10043000911D42E0660F771F881F991F4A95D1F7DB
:1004400008958F929F92AF92BF92CF92DF92EF92D8
:10045000FF920E94FC014B015C0182E3C82ED12C6B
:10046000E12CF12C0E94FC01681979098A099B0989
:10047000683E734081059105A8F321E0C21AD108B6
:10048000E108F10888EE880E83E0981EA11CB11CDB
:10049000C114D104E104F10429F7FF90EF90DF903B
:1004A000CF90BF90AF909F908F9008951F920F9222
:1004B0000FB60F9211242F933F938F939F93AF9377
:1004C000BF938091010290910202A0910302B0912A
:1004D00004023091000223E0230F2D3758F50196D6
:1004E000A11DB11D2093000280930102909302028E
:1004F000A0930302B093040280910502909106023A
:10050000A0910702B09108020196A11DB11D809330
:10051000050290930602A0930702B0930802BF91D0
:10052000AF919F918F913F912F910F900FBE0F90A0
:100530001F90189526E8230F0296A11DB11DD2CF5A
:10054000789484B5826084BD84B5816084BD85B5AE
:10055000826085BD85B5816085BD80916E008160BA
:1005600080936E0010928100809181008260809360
:100570008100809181008160809381008091800062
:100580008160809380008091B10084608093B1008D
:100590008091B00081608093B00080919100826072
:1005A000809391008091910081608093910080916F
:1005B00090008160809390008091A1008260809380
:1005C000A1008091A10081608093A1008091A00092
:1005D00081608093A000809121018260809321013D
:1005E00080912101816080932101809120018160AF
:1005F0008093200180917A00846080937A008091BA
:100600007A00826080937A0080917A008160809382
:100610007A0080917A00806880937A001092C100FD
:1006200085E00E943A018AE00E943A0161E085E09B
:100630000E94590161E08AE00E945901CFB7F89405
:1006400080910902811124C0E7EDF1E08491EDE190
:10065000F2E09491E82FF0E0EE0FFF1FE857FE4F15
:10066000A591B491EC91E92321F461E085E30E9426
:10067000590185E30E943A018CB580618CBD8CB52F
:1006800080648CBD84E30E943A0183E30E943A01B6
:10069000809109028F5F80930902CFBF8CB58C7F58
:1006A00081608CBD8DB581608DBDCC24CA9483E002
:1006B000D82EE12CF12CC0E0D0E086E30E94E501C9
:1006C0005C0187E30E94E50124EF31E0DC010E9438
:1006D000B205A70196010E94B703122F60E085E0E2
:1006E0000E9459010E94210225E030E0D5010E94BC
:1006F000B205A70196010E94B703B901330F880B19
:10070000990B0E941E059B01AC0160E070E48CE92E
:1007100095E40E94740420E030E04AE754E40E942B
:1007200007040E94E6046EBD00000DB407FEFDCF75
:100730008EB561E085E00E9459010E94210260E0CF
:100740008AE00E9459010E9421021EBD00000DB4E2
:1007500007FEFDCF8EB561E08AE00E9459010E943C
:100760002102209709F4A9CF0E940000A6CF052EF0
:1007700097FB1EF400940E94CE0357FD07D00E9401
:10078000D60307FC03D04EF40C94CE03509540954D
:10079000309521953F4F4F4F5F4F0895909580952D
:1007A000709561957F4F8F4F9F4F0895A1E21A2E4C
:1007B000AA1BBB1BFD010DC0AA1FBB1FEE1FFF1F05
:1007C000A217B307E407F50720F0A21BB30BE40B55
:1007D000F50B661F771F881F991F1A9469F760959C
:1007E0007095809590959B01AC01BD01CF01089556
:1007F000A29FB001B39FC001A39F700D811D112462
:10080000911DB29F700D811D1124911D08955058A6
:10081000BB27AA270E941F040C9470050E94620542
:1008200038F00E94690520F039F49F3F19F426F44E
:100830000C945F050EF4E095E7FB0C945905E92F45
:100840000E94810558F3BA1762077307840795075A
:1008500020F079F4A6F50C94A3050EF4E0950B2E88
:10086000BA2FA02D0B01B90190010C01CA01A00102
:100870001124FF27591B99F0593F50F4503E68F15D
:100880001A16F040A22F232F342F4427585FF3CF9E
:10089000469537952795A795F0405395C9F77EF46F
:1008A0001F16BA0B620B730B840BBAF09150A1F0B8
:1008B000FF0FBB1F661F771F881FC2F70EC0BA0F3E
:1008C000621F731F841F48F4879577956795B795C6
:1008D000F7959E3F08F0B0CF9395880F08F09927C1
:1008E000EE0F9795879508950E9488040C947005E3
:1008F0000E94690558F00E94620540F029F45F3FAC
:1009000029F00C94590551110C94A4050C945F0521
:100910000E94810568F39923B1F3552391F3951B48
:10092000550BBB27AA2762177307840738F09F5F10
:100930005F4F220F331F441FAA1FA9F335D00E2E7D
:100940003AF0E0E832D091505040E695001CCAF7EA
:100950002BD0FE2F29D0660F771F881FBB1F2617AD
:1009600037074807AB07B0E809F0BB0B802DBF0184
:10097000FF2793585F4F3AF09E3F510578F00C9453
:1009800059050C94A4055F3FE4F3983ED4F3869593
:1009900077956795B795F7959F5FC9F7880F911D74
:1009A0009695879597F90895E1E0660F771F881F60
:1009B000BB1F621773078407BA0720F0621B730B13
:1009C000840BBA0BEE1F88F7E09508950E94ED04A2
:1009D0006894B1110C94A40508950E94890588F0CB
:1009E0009F5798F0B92F9927B751B0F0E1F0660FF3
:1009F000771F881F991F1AF0BA95C9F714C0B13034
:100A000091F00E94A305B1E008950C94A305672F0F
:100A1000782F8827B85F39F0B93FCCF38695779562
:100A20006795B395D9F73EF490958095709561954B
:100A30007F4F8F4F9F4F0895E89409C097FB3EF476
:100A400090958095709561957F4F8F4F9F4F99231B
:100A5000A9F0F92F96E9BB279395F6958795779599
:100A60006795B795F111F8CFFAF4BB0F11F460FF59
:100A70001BC06F5F7F4F8F4F9F4F16C0882311F0B1
:100A800096E911C0772321F09EE8872F762F05C0C5
:100A9000662371F096E8862F70E060E02AF09A9560
:100AA000660F771F881FDAF7880F9695879597F955
:100AB000089597F99F6780E870E060E008959FEFE0
:100AC00080EC089500240A941616170618060906E5
:100AD000089500240A9412161306140605060895B4
:100AE000092E0394000C11F4882352F0BB0F40F43C
:100AF000BF2B11F460FF04C06F5F7F4F8F4F9F4F7C
:100B0000089557FD9058440F551F59F05F3F71F0FD
:100B10004795880F97FB991F61F09F3F79F0879564
:100B20000895121613061406551FF2CF4695F1DFED
:100B300008C0161617061806991FF1CF869571057D
:100B4000610508940895E894BB2766277727CB01B1
:100B500097F90895EE0FFF1F881F8BBF0790F6913E
:100B6000E02D19940E94F803B7FF0895821B930BA0
:060B70000895F894FFCF88
:00000001FF
