:020000040000FA
:100000000C9441010C9472010C9472010C947201D5
:100010000C9472010C9472010C9472010C94720194
:100020000C9472010C9472010C9472010C94720184
:100030000C9472010C9472010C9472010C94720174
:100040000C9472010C94C2080C9472010C9472010D
:100050000C9472010C9472010C9472010C94EE07D2
:100060000C9472010C94B8070C948E070C947201D6
:100070000C9472010C9472010C9472010C94720134
:100080000C9494080C9472010C9472010C947201FB
:100090000C9472010C9472010C9472010C94720114
:1000A0000C9472010C9472010C9466080C94720109
:1000B0000C9472010C9472010C9472010C94380827
:1000C0000C9472010C9472010C9472010C947201E4
:1000D0000C9472010C9472010C9472010C947201D4
:1000E0000C9472010C94FE030C94F0030C94B8046D
:1000F0000C9408040C9415040C949C050C9447046F
:100100000C9478040C94F0080C94A6020C94FA0356
:100110000C941A040C9416040C949B050C948A03FA
:100120000C94DB030C94E3030C94EA030C94F403A7
:100130000C94B4020C94E2020C942F030C94E1068C
:100140000C9492020C9483020C940C040C94DF0324
:100150000C94D5030C9410040C9402040C94E70343
:1001600000002100240027002A002D003000330069
:1001700001010000040107010A010000220025001E
:1001800028002B002E003100340002010000050180
:1001900008010B01000020002300260029002C008C
:1001A0002F003200000100000301060109010505CE
:1001B0000505070508080808020202020A0A0808DD
:1001C000040404040101010101010101030303030B
:1001D00003030303040707070C0C0C0C0C0C0C0C9A
:1001E0000202020206060606060606060B0B0B0BAB
:1001F0000B0B0B0B010210202008081020401020D0
:1002000040800201020108040201010204081020DA
:1002100040808040201008040201800402018040D8
:100220002010080402010804020101020408102041
:100230004080010204081020408000000A0B0209DF
:100240000C0D0E0807030401000000000000000070
:10025000000000000000000000000000000000009E
:10026000000000000000121110000000000000005B
:10027000000000000000000000000000000000007E
:10028000F00811241FBECFEFD1E2DEBFCDBF00E0EA
:100290000CBF12E0A0E0B2E0EAECFCE100E00BBF32
:1002A00002C007900D92A639B107D9F724E0A6E95C
:1002B000B2E001C01D92AA36B207E1F711E0C1E435
:1002C000D1E000E006C021970109802FFE010E94C5
:1002D0005B0EC034D10780E00807A9F70E94C4096B
:1002E0000C94630E0C940000CF92DF92EF92FF9279
:1002F000DC01A03282E0B807D4F5A53BB10514F0CB
:10030000A4EBB0E04091E10328E830E0241B310980
:1003100047FD3395220F331F220F331F6901330F1F
:10032000EE08FF084091E20328E532E0241B310982
:1003300047FD3395220F331F220F331F032E000C6E
:10034000440B550B2C193D094E095F09B7FF02C03C
:10035000B0E0A0E00E94060E24EB30E040E050E068
:100360000E94DC0DC20ED31EE41EF51ED601E091E4
:10037000E003E03380F52091E10388E890E0821B00
:10038000910927FD9395880F991F880F991FA8172A
:10039000B90784F02091E20388E592E0821B91097D
:1003A00027FD9395880F991F880F991FA817B907E4
:1003B0000CF4CD010297880F991F4FB7F8942E2F98
:1003C00030E0F901EE0FFF1FE20FF31FE15BFC4F7E
:1003D000928381834FBFFF90EF90DF90CF9008957D
:1003E00096E0899FD0011124A550BC4F90967C9334
:1003F0006E935F9791E091969C939197E09168043A
:10040000F091690490916704992339F0309751F085
:10041000811108C0809117041994309719F05C96E7
:100420008C91FACF0895CF92DF92EF92FF920F93C3
:100430001F9396E0899FF0011124E550FC4F11A213
:10044000278D30A12130310551F178F0223031056E
:1004500009F451C02330310509F452C01F910F91A6
:10046000FF90EF90DF90CF9008956623B9F361E09D
:1004700070E00E94F0012FB7F8948091AE02909145
:10048000AF02A091B002B091B1022FBF809353048C
:1004900090935404A0935504B0935604DFCF9FB7B4
:1004A000F894C090AE02D090AF02E090B002F0900D
:1004B000B1029FBF00915304109154042091550440
:1004C00030915604C01AD10AE20AF30A0091650479
:1004D0001091660430E020E00C151D052E053F0547
:1004E00050F462E070E01F910F91FF90EF90DF9069
:1004F000CF900C94F0016111B1CF63E070E0F3CFC5
:1005000070E060E0F0CFFC01538D448D252F30E08A
:10051000842F90E0821B930B541710F0CF96089510
:1005200001970895FC01918D828D981761F0A28D3D
:10053000AE0FBF2FB11D5D968C91928D9F5F9F7303
:10054000928F90E008958FEF9FEF0895FC01918DB9
:10055000828D981731F0828DE80FF11D858D90E026
:1005600008958FEF9FEF0895FC01918D228D892FC3
:1005700090E0805C9F4F821B91098F7399270895AB
:10058000FC01A48DA80FB92FB11DA35ABF4F2C9108
:10059000848D90E001968F739927848FA689B789FF
:1005A0002C93A089B1898C91837080648C93938DF6
:1005B000848D981306C00288F389E02D80818F7D99
:1005C00080830895EF92FF920F931F93CF93DF9351
:1005D000EC0181E0888F9B8D8C8D98131AC0E8897F
:1005E000F989808185FF15C09FB7F894EE89FF894E
:1005F0006083E889F98980818370806480839FBFEC
:1006000081E090E0DF91CF911F910F91FF90EF90EB
:100610000895F62E0B8D10E00F5F1F4F0F731127FB
:10062000E02E8C8D8E110CC00FB607FCFACFE88936
:10063000F989808185FFF5CFCE010E94C002F1CFFC
:10064000EB8DEC0FFD2FF11DE35AFF4FF0829FB7AA
:10065000F8940B8FEA89FB8980818062CFCFCF939A
:10066000DF93EC01888D8823B9F0AA89BB89E889DA
:10067000F9898C9185FD03C0808186FD0DC00FB680
:1006800007FCF7CF8C9185FFF2CF808185FFEDCFFE
:10069000CE010E94C002E9CFDF91CF91089582EB95
:1006A00092E00E94B40221E0892B09F420E0822F1D
:1006B000089580E090E0892B29F00E944F0381117A
:1006C0000E94000080E090E0892B49F080E090E0FB
:1006D000892B29F00E94000081110E94000080E017
:1006E00090E0892B49F080E090E0892B29F00E946E
:1006F000000081110E94000080E090E0892B49F009
:1007000080E090E0892B29F00E94000081110C9478
:1007100000000895AF92BF92CF92DF92EF92FF92C6
:100720000F931F93CF93DF936C017B018B01040F19
:10073000151FEB015E01AE18BF08C017D10759F0B5
:100740006991D601ED91FC910190F081E02DC601F7
:100750001995892B79F7C501DF91CF911F910F91E1
:10076000FF90EF90DF90CF90BF90AF9008958150B1
:10077000823108F05AC0E82FF0E08827ED53FC4F93
:100780008F4F0C945B0EE303E703D503DB03DF031A
:100790001504EA03F003F403FA03FE030204080459
:1007A0000C041504100416041A04809180008F773D
:1007B000809380000895809180008F7DF9CF809193
:1007C0008000877FF5CF84B58F7784BD089584B589
:1007D0008F7DFBCF8091B0008F778093B00008951C
:1007E0008091B0008F7DF9CF809190008F778093BA
:1007F00090000895809190008F7DF9CF80919000B6
:10080000877FF5CF8091A0008F778093A000089517
:100810008091A0008F7DF9CF8091A000877FF5CFD8
:10082000809120018F77809320010895809120018D
:100830008F7DF9CF80912001877FF5CFCF93DF9314
:10084000282F30E0F901E65CFD4F8491F901EC506E
:10085000FE4FD491F901E255FE4FC491CC23A1F093
:1008600081110E94B703EC2FF0E0EE0FFF1FEC5652
:10087000FE4FA591B491EC91ED2381E090E009F455
:1008800080E0DF91CF91089580E090E0FACF862F4D
:100890000C941E041F93CF93DF93282F30E0F901AF
:1008A000E65CFD4F8491F901EC50FE4FD491F901C3
:1008B000E255FE4FC491CC23A9F0162F81110E945E
:1008C000B703EC2FF0E0EE0FFF1FE658FE4FA591A7
:1008D000B4918FB7F894EC91111108C0D095DE2334
:1008E000DC938FBFDF91CF911F910895DE2BF8CF5E
:1008F000862F642F0C944A04CF93DF9390E0FC0181
:10090000EC50FE4F249182559E4FFC018491882328
:10091000C9F090E0880F991FFC01E05AFE4FA591A5
:10092000B491FC01E658FE4FC591D49161110DC000
:100930009FB7F8948C91209582238C9388812823EB
:1009400028839FBFDF91CF910895623051F49FB704
:10095000F8943C91822F809583238C93E8812E2BF1
:10096000EFCF8FB7F894EC912E2B2C938FBFEACF5B
:10097000862F642F0C947C043FB7F89480919B02DF
:1009800090919C02A0919D02B0919E0226B5A89BD9
:1009900005C02F3F19F00196A11DB11D3FBFBA2F11
:1009A000A92F982F8827BC01CD01620F711D811DD1
:1009B000911D42E0660F771F881F991F4A95D1F756
:1009C0000895AF92BF92CF92DF92EF92FF920F9372
:1009D0001F93CF93DF936B017A01EC01CA56DD4F71
:1009E00028813CE0389F8001399F100D1124A09090
:1009F000DF03B12C27FF1FC0FB0111821082888109
:100A00008F5F888388819801280F311D87FD3A9573
:100A1000F6012A153B051CF488818C30C4F18081D5
:100A20009181049680349C4908F473C0F60180815A
:100A30009181049670C088819801280F311D87FD2F
:100A40003A952A153B05DCF68881A801480F511D0F
:100A500087FD5A95FA01EE0FFF1FE40FF51FE15BCA
:100A6000FC4F808186FFCBCF8881F801E80FF11D14
:100A700087FDFA95CF01EE0FFF1FE80FF91FE15B2D
:100A8000FC4F808160E08F730E944A04B8CF808160
:100A900091812881A801420F511D27FD5A959A0185
:100AA000FA01EE0FFF1FE20FF31FE15BFC4F218104
:100AB0003281820F931FF70191838083888198018F
:100AC000280F311D87FD3A95F901EE0FFF1FE20F48
:100AD000F31FE15BFC4F808186FF22C08881080FF5
:100AE000111D87FD1A95F801EE0FFF1FE00FF11F92
:100AF000E15BFC4F808161E08F73DF91CF911F91AB
:100B00000F91FF90EF90DF90CF90BF90AF900C943B
:100B10004A0480E49CE9F701918380838FEF888306
:100B2000DF91CF911F910F91FF90EF90DF90CF90C9
:100B3000BF90AF900895089590E080E00895CF931E
:100B4000DF93EC0160E08E810E944A0461E08E81B7
:100B50000E944A0460E08E810E944A048BE891E082
:100B60000197F1F7DF91CF910895CF92DF92EF9245
:100B7000FF920F931F93CF93DF936C017C0187E06B
:100B8000E80EF11CD0E0C0E0062F10E0B8010C2EFA
:100B900002C0759567950A94E2F76170F70181913B
:100BA0007F010E944A042196C430D10579F7C6011D
:100BB000DF91CF911F910F91FF90EF90DF90CF9039
:100BC0000C949F05CF92DF92EF92FF920F931F93A9
:100BD000CF93DF93EC01F62E642F8C810E944A04A0
:100BE0008D818F3F19F060E00E944A040F2D10E0C4
:100BF0008F8584FF25C06E0187E0C80ED11CF12CC3
:100C0000E12CB8010E2C02C0759567950A94E2F7A5
:100C10006170F60181916F010E944A04FFEFEF1AA3
:100C2000FF0A88E0E816F10461F7CE01DF91CF9169
:100C30001F910F91FF90EF90DF90CF900C949F0544
:100C4000B80184E0759567958A95E1F7CE010E9419
:100C5000B5056F2DCE01DF91CF911F910F91FF90C0
:100C6000EF90DF90CF900C94B50540E0682F83EEB5
:100C700093E00C94E205CF93DF93823029F49091B6
:100C8000F20398609093F2038093F6031092F703B7
:100C900080E48093F80380E18093F90380E58093FA
:100CA000FA0361E08091E7030E947C048091E803ED
:100CB0008F3F19F061E00E947C0461E08091E903BC
:100CC0000E947C04C3EED3E09E01235E33408091FA
:100CD000F20384FD0BC084E090E0219628173907C9
:100CE00044F461E08E810E947C04EECF88E090E0C5
:100CF000F4CF8BE39DE00197F1F760E08091E7038B
:100D00000E944A0460E08091E9030E944A048091B5
:100D1000E8038F3F19F060E00E944A048091F203DB
:100D200084FD39C063E083EE93E00E94B505CBE417
:100D3000D6E4CE010197F1F763E083EE93E00E94E1
:100D4000B5052197F1F763E083EE93E00E94B505C6
:100D500083E592E00197F1F762E083EE93E00E9471
:100D6000B5058091F20380620E94350684E080938D
:100D7000F3038CE00E94350681E00E9435068BE388
:100D80009FE10197F1F782E08093F40386E0DF9121
:100D9000CF910C94350680620E9435068BE496E470
:100DA0000197F1F78091F20380620E94350683E596
:100DB00092E00197F1F78091F20380620E9435067C
:100DC000D0CF41E00E94E20581E090E00895FB0170
:100DD00001900020E9F73197AF01461B570BDC016A
:100DE000ED91FC910280F381E02D1994CF93DF9374
:100DF000BC0182EB92E00E94E706EC0160E472E045
:100E000082EB92E00E94E7068C0F9D1FDF91CF914D
:100E100008954F925F926F927F92AF92BF92CF925E
:100E2000DF92EF92FF920F931F93CF93DF93CDB793
:100E3000DEB7A1970FB6F894DEBF0FBECDBF5C0141
:100E40006A017B01F7FE47C0DC01ED91FC91019046
:100E5000F081E02D6DE219958C0122273327A9013D
:100E60002C193D094E095F0919A2FE01B1967F01B7
:100E70009AE0492E512C612C712CCA01B901A301B1
:100E800092010E940E0E605DD7016E937D012115C7
:100E900031054105510589F790E080E0109721F078
:100EA000BD01C5010E94E706800F911FA1960FB6F4
:100EB000F894DEBF0FBECDBFDF91CF911F910F9190
:100EC000FF90EF90DF90CF90BF90AF907F906F90AA
:100ED0005F904F900895AB01960119A28E010F5DAE
:100EE0001F4F8AE0C82ED12CE12CF12CCA01B90188
:100EF000A70196010E940E0E605DF80162938F01BA
:100F0000211531054105510589F790E080E03097C2
:100F100069F2BF01C5010E94E706C8CF1F920F9278
:100F20000FB60F9211240BB60F922F933F934F934E
:100F30005F936F937F938F939F93AF93BF93EF9341
:100F4000FF9382EB92E00E94C002FF91EF91BF916C
:100F5000AF919F918F917F916F915F914F913F9151
:100F60002F910F900BBE0F900FBE0F901F901895F2
:100F70001F920F920FB60F9211240BB60F922F9360
:100F80008F939F93EF93FF93E091C202F091C3027E
:100F90008081E091C802F091C90282FD1DC090815C
:100FA0008091CB028F5F8F732091CC02821741F02A
:100FB000E091CB02F0E0EE54FD4F958F8093CB0291
:100FC000FF91EF919F918F912F910F900BBE0F90FA
:100FD0000FBE0F901F9018958081F2CF1F920F9235
:100FE0000FB60F9211242F933F938F939F93AF933C
:100FF000BF938091AE029091AF02A091B002B091E8
:10100000B10230919A0223E0230F2D3758F5019653
:10101000A11DB11D20939A028093AE029093AF025E
:10102000A093B002B093B10280919B0290919C0278
:10103000A0919D02B0919E020196A11DB11D8093C9
:101040009B0290939C02A0939D02B0939E02BF913D
:10105000AF919F918F913F912F910F900FBE0F9065
:101060001F90189526E8230F0296A11DB11DD2CF1F
:101070001F920F920FB60F9211240BB60F922F935F
:101080003F934F935F936F937F938F939F93AF9310
:10109000BF93EF93FF9348E251E064E271E090E088
:1010A00080E00E94E104FF91EF91BF91AF919F9189
:1010B0008F917F916F915F914F913F912F910F9001
:1010C0000BBE0F900FBE0F901F9018951F920F929E
:1010D0000FB60F9211240BB60F922F933F934F939D
:1010E0005F936F937F938F939F93AF93BF93EF9390
:1010F000FF9348EA50E064EA70E083E090E00E94E9
:10110000E104FF91EF91BF91AF919F918F917F91FA
:101110006F915F914F913F912F910F900BBE0F9068
:101120000FBE0F901F9018951F920F920FB60F923F
:1011300011240BB60F922F933F934F935F936F93AE
:101140007F938F939F93AF93BF93EF93FF9348E960
:1011500050E064E970E082E090E00E94E104FF91D9
:10116000EF91BF91AF919F918F917F916F915F911F
:101170004F913F912F910F900BBE0F900FBE0F908C
:101180001F9018951F920F920FB60F9211240BB655
:101190000F922F933F934F935F936F937F938F9310
:1011A0009F93AF93BF93EF93FF9348E850E064E8B9
:1011B00070E081E090E00E94E104FF91EF91BF9127
:1011C000AF919F918F917F916F915F914F913F91DF
:1011D0002F910F900BBE0F900FBE0F901F90189580
:1011E000CF931092B5021092B40288EE93E0A0E083
:1011F000B0E08093B6029093B702A093B802B09388
:10120000B9028CE192E09093B3028093B20285EC34
:1012100090E09093BF028093BE0284EC90E09093A4
:10122000C1028093C00280EC90E09093C30280934F
:10123000C20281EC90E09093C5028093C40282ECDC
:1012400090E09093C7028093C60286EC90E0909362
:10125000C9028093C8021092CB021092CC02109265
:10126000CD021092CE021092FD0310920104109252
:101270000004109202048AE392E09093FC038093AE
:10128000FB03E7E1F4E010821482138215823696A4
:1012900084E0E335F807B9F784E092E090935E04C8
:1012A00080935D0480E092E09093600480935F04FB
:1012B00084E0809361048093620488E092E09093DC
:1012C0005C0480935B048AE090E0909364048093D4
:1012D000630484EF91E09093660480936504109218
:1012E00069041092680410925704109258041092E6
:1012F000590410925A04109267041092E603109257
:10130000E5038EE292E09093E4038093E3038DE0A3
:101310008093E703CFEFC093E8038CE08093E90369
:101320008BE08093EA038AE08093EB0389E080936B
:10133000EC0388E08093ED031092EE031092EF032C
:101340001092F0031092F1031092F20381E00E94D8
:101350003B068091DF038033A0F491E0980F9093D7
:10136000DF038093E00390E0FC01EE0FFF1FE80F26
:10137000F91FE15BFC4F88EB9BE092838183CF9167
:101380000895C093E003FBCF789484B5826084BD58
:1013900084B5816084BD85B5826085BD85B5816079
:1013A00085BD80916E00816080936E0010928100F7
:1013B00080918100826080938100809181008160B2
:1013C0008093810080918000816080938000809173
:1013D000B10084608093B1008091B00081608093FF
:1013E000B000809191008260809391008091910083
:1013F0008160809391008091900081608093900043
:101400008091A10082608093A1008091A100816001
:101410008093A1008091A00081608093A0008091C2
:10142000210182608093210180912101816080935C
:1014300021018091200181608093200180917A00B8
:10144000846080937A0080917A00826080937A0031
:1014500080917A00816080937A0080917A00806820
:1014600080937A001092C10082E00E943B06E091D6
:10147000F603E23008F0A0C0E150F0E0ED51FC4F7F
:10148000848980680E9435068091E003803308F0EB
:1014900054C061E087E00E947C048091E003282F23
:1014A00030E0F901EE0FFF1FE20FF31FE15BFC4F8D
:1014B0009081907C976090839EE89093E10394E6FE
:1014C0009093E2032CE0622F0E944F0E829FB001A6
:1014D000112430E020E0AB01420F531FFA01EE0F60
:1014E000FF1FE40FF51FE15BFC4F908196FD17C0D5
:1014F0002F5F3F4F2C30310571F7813009F05EC00E
:101500001092800082E080938100109285001092FA
:101510008400B19A80916F00826080936F00E091A7
:10152000E0038E2F90E0FC01EE0FFF1FE80FF91F84
:10153000E15BFC4F808180648083412C512C32011F
:10154000439457E3252E54E0352E21E02093670481
:101550008FB7F8944091AE025091AF026091B00203
:101560007091B1028FBF8091570490915804A0915F
:101570005904B0915A04481B590B6A0B7B0B80919C
:10158000630490916404B0E0A0E084179507A60777
:10159000B70708F0C9C1C0E080916104C817D0F551
:1015A000E0915D04F0915E04EC0FF11D62E080813A
:1015B0000E947C04CF5FF0CFE1E05FCF823061F426
:1015C00010929000809391001092950010929400D8
:1015D00088BB80937100A3CF833069F41092A00080
:1015E00082E08093A1001092A5001092A40089BB14
:1015F0008093720094CF811192CF1092200182E0EB
:101600008093210110922501109224018ABB8093BE
:10161000730085CF10E080916204181708F05FC056
:10162000E12EF12CE0915F04F0916004EE0DFF1DBE
:1016300061E080810E947C04E0915F04F09160048D
:10164000EE0DFF1D60E080810E944A04D301C201BB
:10165000012E04C0880F991FAA1FBB1F0A94D2F73E
:101660005C016C01C094D09400E080916104081783
:10167000F8F4C02FD0E0E0915D04F0915E04EC0F2F
:10168000FD1F80810E941E042496CC0FDD1FC550D3
:10169000DC4F892B41F4888199818A299B29998380
:1016A00088830F5FE2CF888199818C219D21F7CFBC
:1016B000E0915F04F0916004EE0DFF1D61E0808118
:1016C0000E944A0480915F0490916004E80EF91E24
:1016D00060E0F70180810E947C041F5F9CCFCBEF0C
:1016E000D3E08E01F801878D90A1892B31F4148EFF
:1016F0002FEF3FEF368F258F11A20A5F1F4F201665
:10170000310681F7F12C80916104F81608F053C07E
:10171000E12C8F2D90E0880F991FFC01ED5FFB4FAE
:101720006F0120916204E21608F043C0F601608167
:1017300071810E2C02C0769567950A94E2F7F29EAD
:10174000900111242E0D311DEBEFF3E080E0458D6B
:10175000568D2417350709F42DC28F5F36968A30CF
:10176000B1F760FF24C0EBEFF3E090E080E0448D40
:10177000411118C0E0915B04F0915C04E20FF31F8B
:10178000408156E0589FF001599FF00D1124E5501B
:10179000FC4F448F368F258F10A2178E61E00E9478
:1017A000130205C0019636968A30910501F7E3943D
:1017B000B8CFF394A8CF80E099A19111892F2696F4
:1017C0000C171D07C9F79FB7F8944091AE025091CE
:1017D000AF026091B0027091B1029FBF4093570475
:1017E000509358046093590470935A04882309F461
:1017F0009BC080911C04882309F496C080911A0430
:1018000090911B04019709F08FC0C0911704C093F9
:10181000AD02C1118EC08091AC02882339F1609174
:10182000A8027091A9028091AA029091AB02209126
:10183000A7022B3209F082C10091A3021091A402E9
:101840002091A5023091A602060F171F281F391FED
:1018500000939F021093A0022093A1023093A20252
:1018600080919F029091A0020E947401E1E080911A
:10187000F6038111E0E0E195F0E0ED51FC4F848941
:1018800080680E9435064091A8025091A90260919B
:10189000AA027091AB0283EE93E00E94090741E037
:1018A0006091A70283EE93E00E94E2054091A302BB
:1018B0005091A4026091A5027091A60283EE93E07C
:1018C0000E9409078091AC02882391F063E972E0DD
:1018D00083EE93E00E94E70640919F025091A002A0
:1018E0006091A1027091A20283EE93E00E94090729
:1018F000E091F603E23008F05BC1E150F0E0ED5119
:10190000FC4F848980680E94350640919F02509167
:10191000A0026091A1027091A20283EE93E00E9466
:1019200009070E94590311CE109267041092AD026C
:1019300072CF81E00E9435068BE39FE10197F1F7BA
:10194000C053CA3008F03FC063E472E082EB92E01B
:101950000E94E7064091AD02042E000C550B405347
:101960005109052E000C660B770B82EB92E00E946A
:10197000090760E472E082EB92E00E94E7062091A2
:101980009F023091A0024091A1025091A202AAE0D0
:10199000B0E00E94FB0DAB01BC018091AD02082EAE
:1019A000000C990BC097092E000CAA0BBB0B840FDF
:1019B000951FA61FB71F80939F029093A002A0932C
:1019C000A102B093A2028091AD028A3221F58BE48C
:1019D00092E00E94F6061092A3021092A4021092C6
:1019E000A5021092A6021092A8021092A9021092CB
:1019F000AA021092AB0210929F021092A0021092C3
:101A0000A1021092A20290E080E00E947401109264
:101A1000A7021092AC028091AD028332B9F489E53D
:101A200092E00E94F60680919F029091A002A09100
:101A3000A102B091A2028093A3029093A402A0936A
:101A4000A502B093A60281E08093AC028091AD0222
:101A50009FEB980F943008F0DECE40919F0250919A
:101A6000A0026091A1027091A2024093A80250933B
:101A7000A9026093AA027093AB021092A302109283
:101A8000A4021092A5021092A60210929F02109238
:101A9000A0021092A1021092A2021092AC02813414
:101AA00039F486E692E00E94F6068BE28093A70264
:101AB0008091AD02823439F48FE692E00E94F606FE
:101AC0009DE29093A7028091AD02833439F48BE7B5
:101AD00092E00E94F606EAE2E093A7028091AD024E
:101AE000843439F48AE892E00E94F606FFE2F0932B
:101AF000A7020E94BC044B015C0184E6C82ED12CD5
:101B0000E12CF12C0E94BC04681979098A099B090F
:101B1000683E734081059105A8F321E0C21AD108FF
:101B2000E108F10838EE830E33E0931EA11CB11CCE
:101B3000C114D104E104F10429F76DCE2D32A9F4CA
:101B40000091A3021091A4022091A5023091A60257
:101B5000601B710B820B930B60939F027093A0022A
:101B60008093A1029093A2027BCE2A3259F4209155
:101B7000A3023091A4024091A5025091A6020E94B6
:101B80003F0EEACF2F3209F06BCE2091A3023091A5
:101B9000A4024091A5025091A6020E94DC0D209360
:101BA0009F023093A0024093A1025093A20258CE0C
:101BB000E1E0A4CE6170F3CD052E97FB1EF40094F6
:101BC0000E94F30D57FD07D00E940E0E07FC03D0B4
:101BD0004EF40C94F30D50954095309521953F4F60
:101BE0004F4F5F4F089590958095709561957F4F09
:101BF0008F4F9F4F08950E94300EA59F900DB49F68
:101C0000900DA49F800D911D11240895B7FF0C9491
:101C1000FB0D0E94FB0D821B930B0895A1E21A2E6F
:101C2000AA1BBB1BFD010DC0AA1FBB1FEE1FFF1F80
:101C3000A217B307E407F50720F0A21BB30BE40BD0
:101C4000F50B661F771F881F991F1A9469F7609517
:101C50007095809590959B01AC01BD01CF010895D1
:101C6000A29FB001B39FC001A39F700D811D1124DD
:101C7000911DB29F700D811D1124911D0895DB01EE
:101C80008F939F930E94FB0DBF91AF91A29F800DF8
:101C9000911DA39F900DB29F900D11240895991B43
:101CA00079E004C0991F961708F0961B881F7A9553
:101CB000C9F780950895EE0FFF1F881F8BBF07900F
:101CC000F691E02D1994F894FFCF1A1B1C1D1617DE
:101CD00018193738394434353643313233422A30D3
:101CE000234100000000E2028A0383022F03B402B2
:101CF0009202A60200000000E1068A039C059B05F3
:101D000000000000B804780447040D0A004275740E
:101D1000746F6E2000427574746F6E2043616E6341
:101D2000656C00427574746F6E20457175616C004E
:101D30004164646974696F6E0053756274726163A3
:101D400074696F6E004D756C7469706C6963617451
:101D5000696F6E004465766573696F6E00203D00A3
:10E000000D9489F10D94B2F10D94B2F10D94B2F129
:10E010000D94B2F10D94B2F10D94B2F10D94B2F1F0
:10E020000D94B2F10D94B2F10D94B2F10D94B2F1E0
:10E030000D94B2F10D94B2F10D94B2F10D94B2F1D0
:10E040000D94B2F10D94B2F10D94B2F10D94B2F1C0
:10E050000D94B2F10D94B2F10D94B2F10D94B2F1B0
:10E060000D94B2F10D94B2F10D94B2F10D94B2F1A0
:10E070000D94B2F10D94B2F10D94B2F10D94B2F190
:10E080000D94B2F10D94B2F10D94B2F10D94B2F180
:10E090000D94B2F10D94B2F10D94B2F10D94B2F170
:10E0A0000D94B2F10D94B2F10D94B2F10D94B2F160
:10E0B0000D94B2F10D94B2F10D94B2F10D94B2F150
:10E0C0000D94B2F10D94B2F10D94B2F10D94B2F140
:10E0D0000D94B2F10D94B2F10D94B2F10D94B2F130
:10E0E0000D94B2F141546D656761323536300041AF
:10E0F000726475696E6F206578706C6F72657220DE
:10E1000073746B3530305632206279204D4C530099
:10E11000426F6F746C6F616465723E004875683F52
:10E1200000436F6D70696C6564206F6E203D200048
:10E130004350552054797065202020203D20005FF9
:10E140005F4156525F415243485F5F3D2000415658
:10E1500052204C696243205665723D20004743437C
:10E160002056657273696F6E203D20004350552024
:10E1700049442020202020203D20004C6F7720663D
:10E18000757365202020203D20004869676820665F
:10E190007573652020203D200045787420667573D6
:10E1A00065202020203D20004C6F636B2066757336
:10E1B000652020203D20004D617220203720323024
:10E1C000313300312E362E3800342E332E350056A2
:10E1D00023202020414444522020206F7020636F70
:10E1E00064652020202020696E73747275637469E1
:10E1F0006F6E2061646472202020496E74657272B3
:10E20000757074006E6F20766563746F7200726A49
:10E210006D702020006A6D70200057686174207056
:10E220006F72743A00506F7274206E6F7420737541
:10E2300070706F72746564004D7573742062652030
:10E2400061206C6574746572002000577269747483
:10E25000696E672045450052656164696E672045B7
:10E26000450045452065727220636E743D00504F35
:10E27000525400303D5A65726F2061646472003FF1
:10E280003D43505520737461747300403D454550C3
:10E29000524F4D207465737400423D426C696E6B41
:10E2A000204C454400453D44756D70204545505215
:10E2B0004F4D00463D44756D7020464C415348001B
:10E2C000483D48656C70004C3D4C69737420492F83
:10E2D0004F20506F72747300513D51756974005234
:10E2E0003D44756D702052414D00563D73686F7707
:10E2F00020696E7465727275707420566563746FF0
:10E30000727300593D506F727420626C696E6B00BD
:10E310002A0011241FBECFEFD1E2DEBFCDBF01E046
:10E320000CBF12E0A0E0B2E0EEE1FDEF03E00BBFB6
:10E3300002C007900D92A030B107D9F712E0A0E01B
:10E34000B2E001C01D92AE30B107E1F70F9460F367
:10E350000D948DFE01E20EBF0FEF0DBF11241FBE05
:10E360000D9460F30D9400F020E030E040ED57E0B4
:10E3700005C0FA013197F1F72F5F3F4F2817390792
:10E38000C0F308959C01260F311DC901A0E0B0E043
:10E390002F5F3F4FABBFFC018791882361F08093D3
:10E3A000C6008091C00086FFFCCF8091C0008064D1
:10E3B0008093C000EACF08958DE08093C6008091DD
:10E3C000C00086FFFCCF8091C00080648093C000B5
:10E3D0008AE08093C6008091C00086FFFCCF8091C8
:10E3E000C00080648093C00008950F94C2F10F9420
:10E3F000DCF10895FC019081992359F09093C600B7
:10E400008091C00086FFFCCF8091C0008064809323
:10E41000C0003196992379F70895282F982F929567
:10E420009F70892F805D8A3308F0895F8093C600D2
:10E430008091C00086FFFCCF8091C00080648093F3
:10E44000C000822F8F70982F905D9A3308F0995FEB
:10E450009093C6008091C00086FFFCCF8091C000E1
:10E4600080648093C00008959C01FB01853691056E
:10E470001CF46330710594F0C90164E670E00F94F8
:10E480002EFE605D7F4F6093C6008091C00086FFC6
:10E49000FCCF8091C00080648093C0002B30310598
:10E4A00014F43297B4F0C90164E670E00F942EFEC4
:10E4B0006AE070E00F942EFE605D7F4F6093C600AF
:10E4C0008091C00086FFFCCF8091C0008064809363
:10E4D000C000C9016AE070E00F942EFEC0968093E0
:10E4E000C6008091C00086FFFCCF8091C000806490
:10E4F0008093C00008951F93182F8EE692EE60E07F
:10E500000F94C2F11093C6008091C00086FFFCCF2B
:10E510008091C00080648093C0000F94DCF11F9153
:10E5200008952F923F924F925F926F927F928F92B7
:10E530009F92AF92BF92CF92DF92EF92FF920F9392
:10E540001F93DF93CF93CDB7DEB762970FB6F894E2
:10E55000DEBF0FBECDBF382E622ECA01DB015C01CB
:10E560006D01772420E2222E2E010894411C511CBB
:10E570008BC081E0A81680E0B80681E0C80680E084
:10E58000D80628F0C601AA27BB270F940DF2BB2797
:10E59000AD2D9C2D8B2D0F940DF28A2D0F940DF225
:10E5A0002092C6008091C00086FFFCCF8091C00001
:10E5B00080648093C0009DE29093C6008091C0006B
:10E5C00086FFFCCF8091C00080648093C0002092C1
:10E5D000C6008091C00086FFFCCF8091C00080649F
:10E5E0008093C00019828601750188249924A1E0D6
:10E5F0003A1651F03A1620F0B2E03B1661F409C029
:10E600000BBFF701779007C0C7010F9477FE782EF4
:10E6100002C0F7017080872D0F940DF22092C60082
:10E620008091C00086FFFCCF8091C0008064809301
:10E63000C000872D8052F401EF70F0708F3520F408
:10E64000E40DF51D708204C0E40DF51D8EE280839B
:10E650000894E11CF11C011D111D0894811C911CE2
:10E6600090E18916910409F0C2CF80E190E0A0E02A
:10E67000B0E0A80EB91ECA1EDB1E198AC2010F9493
:10E68000FAF10F94DCF16A94662009F072CF629679
:10E690000FB6F894DEBF0FBECDBFCF91DF911F91B3
:10E6A0000F91FF90EF90DF90CF90BF90AF909F9031
:10E6B0008F907F906F905F904F903F902F90089534
:10E6C0002F923F924F925F926F927F928F929F9282
:10E6D000AF92BF92CF92DF92EF92FF920F931F9370
:10E6E000DF93CF93CDB7DEB7CD53D1400FB6F894BB
:10E6F000DEBF0FBECDBF01E20EBF0FEF0DBF94B75F
:10E70000F894A89514BE80916000886180936000A1
:10E7100010926000789493FF05C0E0910002F091A0
:10E7200001021995279A2F9A8091C00082608093E8
:10E73000C00080E18093C40088E18093C1000000A4
:10E74000EE24FF24870144E0A42EB12CCC24DD2448
:10E7500024C0C5010197F1F70894E11CF11C011DCB
:10E76000111D21E2E2162EE4F20620E0020720E06D
:10E77000120718F031E0C32ED12CC801B70127ECE5
:10E780003BE140E050E00F9441FE611571058105C9
:10E79000910519F485B1805885B98091C00087FD35
:10E7A00003C0C114D104A9F2A6014F5F5F4FC25E3E
:10E7B000DE4F59834883CE51D140C25EDE4F8881FF
:10E7C0009981CE51D140019711F00D9410FEC05D9A
:10E7D000DE4F19821882C053D14060E0C15DDE4F28
:10E7E0001882CF52D14088249924C35DDE4F19820C
:10E7F0001882CD52D140C05EDE4F188219821A8233
:10E800001B82C052D140CE5CDE4F188219821A8220
:10E810001B82C253D140EE24FF2487010BBFF701B6
:10E8200007911691C45CDE4F19830883CC53D14005
:10E830000D940BFEC25EDE4F28813981CE51D1404E
:10E840002130310509F52091C600C25EDE4F1982E4
:10E850001882CE51D14022C02F5F3F4F4F4F5F4FA4
:10E86000213082E138078AE7480780E0580780F0C6
:10E87000C45CDE4FE881F981CC53D140EF5FFF4F9C
:10E8800019F0EE27FF27099420E030E040E050E047
:10E890008091C00087FFE0CF2091C600C35DDE4FAE
:10E8A00048815981CD52D1404F5F5F4FC35DDE4FEC
:10E8B00059834883CD52D140213209F063C64A3092
:10E8C000510508F05FC60894811C911C53E0851621
:10E8D000910409F059C600E010E018C081E280936D
:10E8E000C6008091C00086FFFCCF8091C00080648C
:10E8F0008093C0002F5F3F4F2931310579F70F9486
:10E90000DCF10F5F1F4F0530110519F020E030E0FA
:10E91000E5CF10920A0210920B0210920C02109294
:10E920000D02109206021092070210920802109235
:10E930000902109202021092030210920402109235
:10E9400005028FEE90EE60E00F94F5F180E191EE1C
:10E9500060E00F94C2F18091C00087FFFCCF9091DE
:10E96000C600903608F09F759032B8F09093C600BC
:10E970008091C00086FFFCCF8091C00080648093AE
:10E98000C000A0E2A093C6008091C00086FFFCCF2B
:10E990008091C00080648093C000983409F4D7C18E
:10E9A0009934B8F4923409F459C1933458F490333B
:10E9B00019F1903308F4E3C59F33A1F1903409F0C5
:10E9C000DEC5BDC0953409F470C1963409F0D7C5D1
:10E9D00098C1923509F42BC2933538F49C3409F46C
:10E9E000F5C1913509F0CBC518C2963509F445C279
:10E9F000993509F0C4C567C483E792EE62E00F94CD
:10EA0000F5F110920602109207021092080210927D
:10EA1000090210920A0210920B0210920C0210923C
:10EA20000D0213C18FE792EE62E00F94F5F18FEEC5
:10EA300090EE60E00F94F5F181E291EE60E00F94CA
:10EA4000C2F187EB91EE60E00F94F5F180E391EE77
:10EA500060E00F94C2F184EE90EE60E00F94F5F167
:10EA60008FE391EE60E00F94C2F186E090E061E008
:10EA700070E00F9434F20F94DCF18DE591EE60E0DC
:10EA80000F94C2F189EC91EE60E00F94F5F18EE401
:10EA900091EE60E00F94C2F183EC91EE60E00F9490
:10EAA000F5F18CE691EE60E00F94C2F18EE10F94E7
:10EAB0000DF288E90F940DF281E00F940DF20F949E
:10EAC000DCF18BE791EE60E00F94C2F119E0E0E039
:10EAD000F0E010935700E4918E2F0F940DF20F94F5
:10EAE000DCF18AE891EE60E00F94C2F1E3E0F0E03F
:10EAF00010935700E4918E2F0F940DF20F94DCF1D8
:10EB000089E991EE60E00F94C2F1E2E0F0E0109349
:10EB10005700E4918E2F0F940DF20F94DCF188EAE8
:10EB200091EE60E00F94C2F1E1E0F0E01093570045
:10EB30001491812F0F940DF20F94DCF107CF8BE825
:10EB400092EE62E00F94F5F18BE492EE60E00F94A8
:10EB5000F5F10F94DCF100E010E019C0C8016F2D51
:10EB60000F947FFEFF2031F489E492EE60E00F9471
:10EB7000C2F10BC0F092C6008091C00086FFFCCFAE
:10EB80008091C00080648093C0000F5F1F4FC80158
:10EB900081519F41A0E0B0E0ABBFFC01F790BAE229
:10EBA000FB1621F0E2E000301E07C1F60F94DCF105
:10EBB0000F94DCF187E592EE60E00F94F5F10F948D
:10EBC000DCF1CC24DD2400E010E01EC0C8010F946D
:10EBD00077FEF82E882331F489E492EE60E00F94FA
:10EBE000C2F10BC08093C6008091C00086FFFCCFAD
:10EBF0008091C00080648093C000FE1419F00894D6
:10EC0000C11CD11C0F5F1F4FC80181519F41A0E063
:10EC1000B0E0ABBFFC01E790FAE2EF1621F022E092
:10EC20000030120799F60F94DCF10F94DCF182E6C4
:10EC300092EE60E00F94C2F1C60161E070E00F94C3
:10EC400034F20F94DCF10F94DCF110920202109276
:10EC50000302109204021092050278CE89E992EE26
:10EC600062E00F94F5F1279A2F9A16C02F9880E052
:10EC700090E0E0EDF7E03197F1F7019684369105E9
:10EC8000C1F72F9A80E090E0E0EDF7E03197F1F7DF
:10EC9000019684369105C1F78091C00087FFE6CFC9
:10ECA0008091C00087FFFCCF64C485EA92EE62E0E9
:10ECB0000F94F5F140910202509103026091040219
:10ECC0007091050281E020E10F9491F2809102029F
:10ECD00090910302A0910402B091050280509F4FD1
:10ECE000AF4FBF4F8093020290930302A0930402A0
:10ECF000B093050280509041A040B04008F426CE69
:10ED0000A4CF83EB92EE62E00F94F5F140910602FE
:10ED100050910702609108027091090280E020E1A1
:10ED20000F9491F28091060290910702A09108023F
:10ED3000B091090280509F4FAF4FBF4F80930602A2
:10ED400090930702A0930802B0930902FFCD80ECD4
:10ED500092EE62E00F94F5F183E792EE60E00F949B
:10ED6000F5F18FE792EE60E00F94F5F18BE892EE0B
:10ED700060E00F94F5F189E992EE60E00F94F5F10F
:10ED800085EA92EE60E00F94F5F183EB92EE60E09D
:10ED90000F94F5F180EC92EE60E00F94F5F187ECC2
:10EDA00092EE60E00F94F5F188ED92EE60E00F9442
:10EDB000F5F18FED92EE60E00F94F5F18AEE92EEB0
:10EDC00060E00F94F5F183E093EEBDCD87EC92EE19
:10EDD00062E00F94F5F181E40F947BF282E40F94EA
:10EDE0007BF283E40F947BF284E40F947BF285E45E
:10EDF0000F947BF286E40F947BF287E40F947BF20E
:10EE000088E40F947BF28AE40F947BF28BE40F94F6
:10EE10007BF28CE40F947BF299CD88ED92EE62E068
:10EE20000F94F5F1772473948824992409C48FED05
:10EE300092EE62E00F94F5F140910A0250910B02BC
:10EE400060910C0270910D0282E020E10F9491F22A
:10EE500080910A0290910B02A0910C02B0910D02D8
:10EE600080509F4FAF4FBF4F80930A0290930B0289
:10EE7000A0930C02B0930D0269CD8AEE92EE62E08F
:10EE80000F94F5F184EE90EE60E00F94F5F18FECC5
:10EE900091EE60E00F94F5F1662477244301CC5D98
:10EEA000DE4F19821882C452D140D401C301B695F5
:10EEB000A79597958795CA5DDE4F88839983AA8326
:10EEC000BB83C652D140CC5DDE4FA881B981C4520C
:10EED000D1401196CC5DDE4FB983A883C452D14096
:10EEE000CD0162E070E00F9434F2B0E2B093C6005E
:10EEF0008091C00086FFFCCF8091C0008064809329
:10EF0000C000EDE2E093C6008091C00086FFFCCF18
:10EF10008091C00080648093C000F0E2F093C6004E
:10EF20008091C00086FFFCCF8091C00080648093F8
:10EF3000C000CA5DDE4FE880F9800A811B81C6529D
:10EF4000D140BB27A12F902F8F2D0F940DF2CA5DBA
:10EF5000DE4F8881C652D1400F940DF2B0E2FB2EF5
:10EF6000F092C6008091C00086FFFCCF8091C00067
:10EF700080648093C0000DE30093C6008091C000C0
:10EF800086FFFCCF8091C00080648093C00010E2B7
:10EF90001093C6008091C00086FFFCCF8091C00016
:10EFA00080648093C0008BBEF3012791C65DDE4F65
:10EFB0002883CA52D140A22EBB24CC24DD2408943D
:10EFC000611C711C811C911C8BBEF3018791282E42
:10EFD0003324442455240894611C711C811C911C09
:10EFE0008BBEF3013791C55DDE4F3883CB52D140E4
:10EFF0000894611C711C811C911C8BBEF30147910C
:10F00000C45DDE4F4883CC52D140ADEFEA2EAFEF66
:10F01000FA2EAFEF0A2FAFEF1A2F6E0C7F1C801E57
:10F02000911E142D032DF22CEE24EA0CFB1C0C1D5A
:10F030001D1D0F940DF220E22093C6008091C000A8
:10F0400086FFFCCF8091C00080648093C000C65DC5
:10F05000DE4F8881CA52D1400F940DF230E23093D6
:10F06000C6008091C00086FFFCCF8091C000806404
:10F070008093C000C45DDE4F8881CC52D1400F9494
:10F080000DF240E24093C6008091C00086FFFCCFA5
:10F090008091C00080648093C000C55DDE4F888190
:10F0A000CB52D1400F940DF250E25093C6008091A4
:10F0B000C00086FFFCCF8091C00080648093C000B8
:10F0C0008FEFE8168FEFF80680E0080780E018075A
:10F0D00031F484E092EE60E00F94C2F1DFC0D80119
:10F0E000C7018070907CA070B0708050904CA040A0
:10F0F000B040D1F52FEF3FE340E050E0E222F322B1
:10F1000004231523CA5DDE4FA880B980CA80DB8046
:10F11000C652D140AE0CBF1CC01ED11EAA0CBB1CD7
:10F12000CC1CDD1C8EE092EE60E00F94C2F1BB2798
:10F13000A12F902F8F2D0F940DF28E2D0F940DF285
:10F1400030E23093C6008091C00086FFFCCF8091F2
:10F15000C00080648093C0004EE34093C60080915D
:10F16000C00086FFFCCF87C08EE09EEFA0E0B0E03D
:10F17000E822F9220A231B239CE0E91694E9F90608
:10F1800090E0090790E0190709F088C0C45DDE4FE0
:10F19000A881CC52D140EA2EFF2400E010E0102FCD
:10F1A0000F2DFE2CEE24C55DDE4FB881CB52D14031
:10F1B000EB0EF11C011D111DD601C501817090706F
:10F1C000A070B070DC0199278827E80EF91E0A1F8D
:10F1D0001B1F20EF30E040E050E0A222B322C42207
:10F1E000D52241E1AA0CBB1CCC1CDD1C4A95D1F7F1
:10F1F000EA0CFB1C0C1D1D1D81E090E0A0E0B0E0BE
:10F20000282239224A225B2235E1220C331C441C7D
:10F21000551C3A95D1F7E20CF31C041D151D57013E
:10F220006801AA0CBB1CCC1CDD1C85E192EE60E0E1
:10F230000F94C2F1C801AA27BB270F940DF2BB2778
:10F24000A12F902F8F2D0F940DF28E2D0F940DF274
:10F2500090E29093C6008091C00086FFFCCF809121
:10F26000C00080648093C000AEE3A093C60080918C
:10F27000C00086FFFCCF8091C00080648093C000F6
:10F28000C601AA27BB270F940DF2BB27AD2D9C2DDD
:10F290008B2D0F940DF28A2D0F940DF20F94DCF14B
:10F2A000CC5DDE4FE881F981C452D140F99709F471
:10F2B0004DCBF4E0EF2EF12C012D112D6E0C7F1CA7
:10F2C000801E911EF2CD83E093EE62E00F94F5F183
:10F2D0008AE192EE60E00F94C2F18091C00087FF56
:10F2E000FCCF1091C6001F751093C6008091C0001E
:10F2F00086FFFCCF8091C00080648093C0000F9493
:10F30000DCF1812F81548A3108F036C1163409F4BA
:10F3100095C0173490F4133409F44EC0143430F40B
:10F320001134F1F0123409F01DC130C0143409F465
:10F3300059C0153409F016C16BC01A3409F4C4C0A1
:10F340001B3438F4173409F48FC0183409F00AC19B
:10F35000A1C01B3409F4D2C01C3409F003C1E8C0B9
:10F360008FEF81B90DC082B1809582B980E090E0C5
:10F37000E0EDF7E03197F1F70196883C9105C1F790
:10F380008091C00087FFEFCF12B8EFC08FEF84B934
:10F390000DC085B1809585B980E090E0E0EDF7E0A3
:10F3A0003197F1F70196883C9105C1F78091C00033
:10F3B00087FFEFCF15B8D9C08FEF87B90DC088B1DF
:10F3C000809588B980E090E0E0EDF7E03197F1F7C3
:10F3D0000196883C9105C1F78091C00087FFEFCF6F
:10F3E00018B8C3C08FEF8AB90DC08BB180958BB9A7
:10F3F00080E090E0E0EDF7E03197F1F70196883C8E
:10F400009105C1F78091C00087FFEFCF1BB8ADC059
:10F410008FEF8DB90DC08EB180958EB980E090E0F0
:10F42000E0EDF7E03197F1F70196883C9105C1F7DF
:10F430008091C00087FFEFCF1EB897C08FEF80BBD1
:10F440000DC081B3809581BB80E090E0E0EDF7E0F6
:10F450003197F1F70196883C9105C1F78091C00082
:10F4600087FFEFCF11BA81C08FEF83BB0DC084B38C
:10F47000809584BB80E090E0E0EDF7E03197F1F714
:10F480000196883C9105C1F78091C00087FFEFCFBE
:10F4900014BA6BC08FEF809301010FC080910201FD
:10F4A00080958093020180E090E0E0EDF7E03197F5
:10F4B000F1F70196883C9105C1F78091C00087FF64
:10F4C000EDCF1092020151C08FEF809304010FC065
:10F4D0008091050180958093050180E090E0E0ED4A
:10F4E000F7E03197F1F70196883C9105C1F78091DB
:10F4F000C00087FFEDCF1092050137C08FEF8093DA
:10F5000007010FC08091080180958093080180E079
:10F5100090E0E0EDF7E03197F1F70196883C910536
:10F52000C1F78091C00087FFEDCF109208011DC088
:10F530008FEF80930A010FC080910B01809580931B
:10F540000B0180E090E0E0EDF7E03197F1F70196F4
:10F55000883C9105C1F78091C00087FFEDCF1092E4
:10F560000B0103C085E292EEEEC98091C00087FFD7
:10F57000FCCF8091C600EAC988E392EEE4C98CE131
:10F5800091EEE1C988249924933011F1943028F444
:10F59000913089F09230B8F408C0953061F195301F
:10F5A000F0F0963009F048C043C02B3109F042C951
:10F5B00091E06BE13FC96227C15DDE4F2883CF52E6
:10F5C000D14092E037C9B22FA0E0622793E032C960
:10F5D000822F90E0A82BB92B622794E02BC92E3004
:10F5E00009F039C3622795E0C05DDE4F19821882A9
:10F5F000C053D1401FC9E1E0F0E0EC0FFD1FC05D3A
:10F60000DE4F08811981C053D140E00FF11F2083E4
:10F610000F5F1F4FC05DDE4F19830883C053D14079
:10F6200062270A171B0709F005C9D80196E002C92D
:10F63000261709F010C303C0973009F0FBC87724E0
:10F640009981933109F412C19431C8F4963009F4C8
:10F65000D8C0973050F4923009F406C1933009F4C1
:10F660006DC0913009F059C253C0913109F477C08F
:10F67000923108F0BBC0903109F04FC2F5C098310B
:10F6800009F487C0993150F4953109F4EFC09531F0
:10F6900008F4C6C1963109F040C2C2C19A3109F4DA
:10F6A0006CC09A3108F491C09B3109F45BC09D3164
:10F6B00009F033C29D81903359F48F81882311F46E
:10F6C0009EE11CC0813011F091E018C098E916C08D
:10F6D000892F807591F0903539F4E0E0F0E089E011
:10F6E0008093570094910AC0983539F4E3E0F0E034
:10F6F00089E080935700949101C090E01A821B82A8
:10F700008D818C831D829E831F8227E030E009C299
:10F710001A8288E08B8381E48C8386E58D8382E581
:10F720008E8389E48F8383E5888780E589878FE5E9
:10F730008A8782E38B872BE030E0F3C18A818139AD
:10F7400041F0823941F0803911F48FE005C080E04A
:10F7500003C082E001C08AE01A828B8344C0772410
:10F76000739482C08D81882311F48EE12CC0813086
:10F7700011F081E028C088E926C01A82E1E0F0E0BB
:10F7800089E08093570084918B831C8224E030E0D1
:10F79000C8C18B81803589F48C81883039F4E2E0EE
:10F7A000F0E089E08093570084910DC0E0E0F0E044
:10F7B00089E080935700849106C0E3E0F0E089E09F
:10F7C0008093570084911A82DFCF8D81836C99E0FA
:10F7D000E1E0F0E0082E90935700E89507B600FCB2
:10F7E000FDCF1A821B8223E030E09BC180EC8A832C
:10F7F000CE5CDE4F188219821A821B82C253D1401E
:10F800008EC18A8190E0A0E0B0E0582F44273327D2
:10F8100022278B8190E0A0E0B0E0DC0199278827C7
:10F82000282B392B4A2B5B2B8D8190E0A0E0B0E098
:10F83000282B392B4A2B5B2B8C8190E0A0E0B0E089
:10F84000BA2FA92F982F8827282B392B4A2B5B2BCF
:10F85000220F331F441F551FC05EDE4F288339839C
:10F860004A835B83C052D1401A8259C13A81C95C34
:10F87000DE4F3883C753D140CA5CDE4F1882C6536F
:10F88000D1408B81C82EDD24CA5CDE4F488159816E
:10F89000C653D140C42AD52A933109F082C0CE5C28
:10F8A000DE4F88819981AA81BB81C253D1408050AB
:10F8B000904CA340B04030F583E0CE5CDE4FE88052
:10F8C000F9800A811B81C253D140F70100935B008C
:10F8D00080935700E89507B600FCFDCFCE5CDE4F65
:10F8E000088119812A813B81C253D14000501F4FAA
:10F8F0002F4F3F4FCE5CDE4F088319832A833B8313
:10F90000C253D140C05EDE4F488159816A817B81FC
:10F91000C052D140DE011B9631E08C9111962C91A2
:10F9200011971296C75CDE4F2883C953D140C85C3B
:10F93000DE4F1882C853D14090E0C85CDE4FE881AA
:10F94000F981C853D1408E2B9F2B0C01FA01609393
:10F950005B0030935700E89511244E5F5F4F6F4F67
:10F960007F4F0EEFE02E0FEFF02ECE0CDF1CC114F8
:10F97000D10499F685E0C05EDE4F088119812A81A5
:10F980003B81C052D140F80120935B008093570027
:10F99000E89507B600FCFDCF81E180935700E8951C
:10F9A00035C0C05EDE4F88819981AA81BB81C0527B
:10F9B000D140B695A795979587957C018601ABE0D8
:10F9C000AA2EB12CAC0EBD1E0BC0D5016D915D01F0
:10F9D000C7010F947FFE0894E11CF11C01501040F8
:10F9E0000115110591F7A60160E070E0440F551F65
:10F9F000661F771FC05EDE4FE880F9800A811B8199
:10FA0000C052D1404E0D5F1D601F711F1A82C05E33
:10FA1000DE4F488359836A837B83C052D1407FC0C5
:10FA2000FA80C55CDE4FF882CB53D140C65CDE4F16
:10FA30001882CA53D1408B81C82EDD24C65CDE4FAC
:10FA400008811981CA53D140C02AD12A1A828981DA
:10FA5000BE016D5F7F4F843121F59601C05EDE4FA0
:10FA6000E880F9800A811B81C052D1400BBFF701A9
:10FA700087919691DB018C9311969C936E5F7F4FDB
:10FA8000D801C7010296A11DB11DC05EDE4F88835B
:10FA90009983AA83BB83C052D14022503040F1F6F3
:10FAA00036C0C05EDE4F288139814A815B81C052F9
:10FAB000D1400894C108D108760100E010E0089414
:10FAC000C11CD11C0894E11CF11C011D111DE20E8A
:10FAD000F31E041F151F21BDBB27A52F942F832FB5
:10FAE00082BD2F5F3F4F4F4F5F4FF89A80B5DB01CC
:10FAF0008D93BD012E153F054007510761F7C05E8C
:10FB0000DE4F288339834A835B83C052D1409601FC
:10FB10002D5F3F4FFB01108204C080EC8A8322E0FE
:10FB200030E08BE18093C6008091C00086FFFCCF5F
:10FB30008091C00080648093C000C15DDE4FF88179
:10FB4000CF52D140F093C6008091C00086FFFCCF19
:10FB50008091C00080648093C000432F3093C60022
:10FB60008091C00086FFFCCF8091C00080648093AC
:10FB7000C000922F2093C6008091C00086FFFCCF6A
:10FB80008091C00080648093C0008EE08093C600A6
:10FB90008091C00086FFFCCF8091C000806480937C
:10FBA000C00065E1C15DDE4FE880CF52D1406E25D7
:10FBB00069276427FE01319610C090819093C6009A
:10FBC0008091C00086FFFCCF31968091C000806498
:10FBD0008093C0006927215030402115310569F715
:10FBE0006093C6008091C00086FFFCCF8091C0006A
:10FBF00080648093C00085B1805885B9772081F4F6
:10FC0000C15DDE4F0881CF52D1400F5FC15DDE4F35
:10FC10000883CF52D14090E0A0E0B0E00D941AF4F8
:10FC200027982F9880E090E020ED37E0F901319798
:10FC3000F1F7019684369105C9F700008091C00064
:10FC40008D7F8093C00081E180935700E895EE2777
:10FC5000FF270994FFCF90E00D941AF497FB092E2B
:10FC600007260AD077FD04D02ED006D000201AF443
:10FC7000709561957F4F0895F6F7909581959F4F08
:10FC80000895A1E21A2EAA1BBB1BFD010DC0AA1FDD
:10FC9000BB1FEE1FFF1FA217B307E407F50720F0F5
:10FCA000A21BB30BE40BF50B661F771F881F991F70
:10FCB0001A9469F760957095809590959B01AC01B9
:10FCC000BD01CF010895AA1BBB1B51E107C0AA1FAC
:10FCD000BB1FA617B70710F0A61BB70B881F991FED
:10FCE0005A95A9F780959095BC01CD010895F99991
:10FCF000FECF92BD81BDF89A992780B50895262F31
:10FD0000F999FECF1FBA92BD81BD20BD0FB6F89400
:0EFD1000FA9AF99A0FBE01960895F894FFCF63
:00000001FF
