:100000000C9441010C9472010C9472010C947201D5
:100010000C9472010C9472010C9472010C94720194
:100020000C9472010C9472010C9472010C94720184
:100030000C9472010C9472010C9472010C94720174
:100040000C9472010C94C2080C9472010C9472010D
:100050000C9472010C9472010C9472010C94EE07D2
:100060000C9472010C94B8070C948E070C947201D6
:100070000C9472010C9472010C9472010C94720134
:100080000C9494080C9472010C9472010C947201FB
:100090000C9472010C9472010C9472010C94720114
:1000A0000C9472010C9472010C9466080C94720109
:1000B0000C9472010C9472010C9472010C94380827
:1000C0000C9472010C9472010C9472010C947201E4
:1000D0000C9472010C9472010C9472010C947201D4
:1000E0000C9472010C94FE030C94F0030C94B8046D
:1000F0000C9408040C9415040C949C050C9447046F
:100100000C9478040C94F0080C94A6020C94FA0356
:100110000C941A040C9416040C949B050C948A03FA
:100120000C94DB030C94E3030C94EA030C94F403A7
:100130000C94B4020C94E2020C942F030C94E1068C
:100140000C9492020C9483020C940C040C94DF0324
:100150000C94D5030C9410040C9402040C94E70343
:1001600000002100240027002A002D003000330069
:1001700001010000040107010A010000220025001E
:1001800028002B002E003100340002010000050180
:1001900008010B01000020002300260029002C008C
:1001A0002F003200000100000301060109010505CE
:1001B0000505070508080808020202020A0A0808DD
:1001C000040404040101010101010101030303030B
:1001D00003030303040707070C0C0C0C0C0C0C0C9A
:1001E0000202020206060606060606060B0B0B0BAB
:1001F0000B0B0B0B010210202008081020401020D0
:1002000040800201020108040201010204081020DA
:1002100040808040201008040201800402018040D8
:100220002010080402010804020101020408102041
:100230004080010204081020408000000A0B0209DF
:100240000C0D0E0807030401000000000000000070
:10025000000000000000000000000000000000009E
:10026000000000000000121110000000000000005B
:10027000000000000000000000000000000000007E
:10028000F00811241FBECFEFD1E2DEBFCDBF00E0EA
:100290000CBF12E0A0E0B2E0EAECFCE100E00BBF32
:1002A00002C007900D92A639B107D9F724E0A6E95C
:1002B000B2E001C01D92AA36B207E1F711E0C1E435
:1002C000D1E000E006C021970109802FFE010E94C5
:1002D0005B0EC034D10780E00807A9F70E94C4096B
:1002E0000C94630E0C940000CF92DF92EF92FF9279
:1002F000DC01A03282E0B807D4F5A53BB10514F0CB
:10030000A4EBB0E04091E10328E830E0241B310980
:1003100047FD3395220F331F220F331F6901330F1F
:10032000EE08FF084091E20328E532E0241B310982
:1003300047FD3395220F331F220F331F032E000C6E
:10034000440B550B2C193D094E095F09B7FF02C03C
:10035000B0E0A0E00E94060E24EB30E040E050E068
:100360000E94DC0DC20ED31EE41EF51ED601E091E4
:10037000E003E03380F52091E10388E890E0821B00
:10038000910927FD9395880F991F880F991FA8172A
:10039000B90784F02091E20388E592E0821B91097D
:1003A00027FD9395880F991F880F991FA817B907E4
:1003B0000CF4CD010297880F991F4FB7F8942E2F98
:1003C00030E0F901EE0FFF1FE20FF31FE15BFC4F7E
:1003D000928381834FBFFF90EF90DF90CF9008957D
:1003E00096E0899FD0011124A550BC4F90967C9334
:1003F0006E935F9791E091969C939197E09168043A
:10040000F091690490916704992339F0309751F085
:10041000811108C0809117041994309719F05C96E7
:100420008C91FACF0895CF92DF92EF92FF920F93C3
:100430001F9396E0899FF0011124E550FC4F11A213
:10044000278D30A12130310551F178F0223031056E
:1004500009F451C02330310509F452C01F910F91A6
:10046000FF90EF90DF90CF9008956623B9F361E09D
:1004700070E00E94F0012FB7F8948091AE02909145
:10048000AF02A091B002B091B1022FBF809353048C
:1004900090935404A0935504B0935604DFCF9FB7B4
:1004A000F894C090AE02D090AF02E090B002F0900D
:1004B000B1029FBF00915304109154042091550440
:1004C00030915604C01AD10AE20AF30A0091650479
:1004D0001091660430E020E00C151D052E053F0547
:1004E00050F462E070E01F910F91FF90EF90DF9069
:1004F000CF900C94F0016111B1CF63E070E0F3CFC5
:1005000070E060E0F0CFFC01538D448D252F30E08A
:10051000842F90E0821B930B541710F0CF96089510
:1005200001970895FC01918D828D981761F0A28D3D
:10053000AE0FBF2FB11D5D968C91928D9F5F9F7303
:10054000928F90E008958FEF9FEF0895FC01918DB9
:10055000828D981731F0828DE80FF11D858D90E026
:1005600008958FEF9FEF0895FC01918D228D892FC3
:1005700090E0805C9F4F821B91098F7399270895AB
:10058000FC01A48DA80FB92FB11DA35ABF4F2C9108
:10059000848D90E001968F739927848FA689B789FF
:1005A0002C93A089B1898C91837080648C93938DF6
:1005B000848D981306C00288F389E02D80818F7D99
:1005C00080830895EF92FF920F931F93CF93DF9351
:1005D000EC0181E0888F9B8D8C8D98131AC0E8897F
:1005E000F989808185FF15C09FB7F894EE89FF894E
:1005F0006083E889F98980818370806480839FBFEC
:1006000081E090E0DF91CF911F910F91FF90EF90EB
:100610000895F62E0B8D10E00F5F1F4F0F731127FB
:10062000E02E8C8D8E110CC00FB607FCFACFE88936
:10063000F989808185FFF5CFCE010E94C002F1CFFC
:10064000EB8DEC0FFD2FF11DE35AFF4FF0829FB7AA
:10065000F8940B8FEA89FB8980818062CFCFCF939A
:10066000DF93EC01888D8823B9F0AA89BB89E889DA
:10067000F9898C9185FD03C0808186FD0DC00FB680
:1006800007FCF7CF8C9185FFF2CF808185FFEDCFFE
:10069000CE010E94C002E9CFDF91CF91089582EB95
:1006A00092E00E94B40221E0892B09F420E0822F1D
:1006B000089580E090E0892B29F00E944F0381117A
:1006C0000E94000080E090E0892B49F080E090E0FB
:1006D000892B29F00E94000081110E94000080E017
:1006E00090E0892B49F080E090E0892B29F00E946E
:1006F000000081110E94000080E090E0892B49F009
:1007000080E090E0892B29F00E94000081110C9478
:1007100000000895AF92BF92CF92DF92EF92FF92C6
:100720000F931F93CF93DF936C017B018B01040F19
:10073000151FEB015E01AE18BF08C017D10759F0B5
:100740006991D601ED91FC910190F081E02DC601F7
:100750001995892B79F7C501DF91CF911F910F91E1
:10076000FF90EF90DF90CF90BF90AF9008958150B1
:10077000823108F05AC0E82FF0E08827ED53FC4F93
:100780008F4F0C945B0EE303E703D503DB03DF031A
:100790001504EA03F003F403FA03FE030204080459
:1007A0000C041504100416041A04809180008F773D
:1007B000809380000895809180008F7DF9CF809193
:1007C0008000877FF5CF84B58F7784BD089584B589
:1007D0008F7DFBCF8091B0008F778093B00008951C
:1007E0008091B0008F7DF9CF809190008F778093BA
:1007F00090000895809190008F7DF9CF80919000B6
:10080000877FF5CF8091A0008F778093A000089517
:100810008091A0008F7DF9CF8091A000877FF5CFD8
:10082000809120018F77809320010895809120018D
:100830008F7DF9CF80912001877FF5CFCF93DF9314
:10084000282F30E0F901E65CFD4F8491F901EC506E
:10085000FE4FD491F901E255FE4FC491CC23A1F093
:1008600081110E94B703EC2FF0E0EE0FFF1FEC5652
:10087000FE4FA591B491EC91ED2381E090E009F455
:1008800080E0DF91CF91089580E090E0FACF862F4D
:100890000C941E041F93CF93DF93282F30E0F901AF
:1008A000E65CFD4F8491F901EC50FE4FD491F901C3
:1008B000E255FE4FC491CC23A9F0162F81110E945E
:1008C000B703EC2FF0E0EE0FFF1FE658FE4FA591A7
:1008D000B4918FB7F894EC91111108C0D095DE2334
:1008E000DC938FBFDF91CF911F910895DE2BF8CF5E
:1008F000862F642F0C944A04CF93DF9390E0FC0181
:10090000EC50FE4F249182559E4FFC018491882328
:10091000C9F090E0880F991FFC01E05AFE4FA591A5
:10092000B491FC01E658FE4FC591D49161110DC000
:100930009FB7F8948C91209582238C9388812823EB
:1009400028839FBFDF91CF910895623051F49FB704
:10095000F8943C91822F809583238C93E8812E2BF1
:10096000EFCF8FB7F894EC912E2B2C938FBFEACF5B
:10097000862F642F0C947C043FB7F89480919B02DF
:1009800090919C02A0919D02B0919E0226B5A89BD9
:1009900005C02F3F19F00196A11DB11D3FBFBA2F11
:1009A000A92F982F8827BC01CD01620F711D811DD1
:1009B000911D42E0660F771F881F991F4A95D1F756
:1009C0000895AF92BF92CF92DF92EF92FF920F9372
:1009D0001F93CF93DF936B017A01EC01CA56DD4F71
:1009E00028813CE0389F8001399F100D1124A09090
:1009F000DF03B12C27FF1FC0FB0111821082888109
:100A00008F5F888388819801280F311D87FD3A9573
:100A1000F6012A153B051CF488818C30C4F18081D5
:100A20009181049680349C4908F473C0F60180815A
:100A30009181049670C088819801280F311D87FD2F
:100A40003A952A153B05DCF68881A801480F511D0F
:100A500087FD5A95FA01EE0FFF1FE40FF51FE15BCA
:100A6000FC4F808186FFCBCF8881F801E80FF11D14
:100A700087FDFA95CF01EE0FFF1FE80FF91FE15B2D
:100A8000FC4F808160E08F730E944A04B8CF808160
:100A900091812881A801420F511D27FD5A959A0185
:100AA000FA01EE0FFF1FE20FF31FE15BFC4F218104
:100AB0003281820F931FF70191838083888198018F
:100AC000280F311D87FD3A95F901EE0FFF1FE20F48
:100AD000F31FE15BFC4F808186FF22C08881080FF5
:100AE000111D87FD1A95F801EE0FFF1FE00FF11F92
:100AF000E15BFC4F808161E08F73DF91CF911F91AB
:100B00000F91FF90EF90DF90CF90BF90AF900C943B
:100B10004A0480E49CE9F701918380838FEF888306
:100B2000DF91CF911F910F91FF90EF90DF90CF90C9
:100B3000BF90AF900895089590E080E00895CF931E
:100B4000DF93EC0160E08E810E944A0461E08E81B7
:100B50000E944A0460E08E810E944A048BE891E082
:100B60000197F1F7DF91CF910895CF92DF92EF9245
:100B7000FF920F931F93CF93DF936C017C0187E06B
:100B8000E80EF11CD0E0C0E0062F10E0B8010C2EFA
:100B900002C0759567950A94E2F76170F70181913B
:100BA0007F010E944A042196C430D10579F7C6011D
:100BB000DF91CF911F910F91FF90EF90DF90CF9039
:100BC0000C949F05CF92DF92EF92FF920F931F93A9
:100BD000CF93DF93EC01F62E642F8C810E944A04A0
:100BE0008D818F3F19F060E00E944A040F2D10E0C4
:100BF0008F8584FF25C06E0187E0C80ED11CF12CC3
:100C0000E12CB8010E2C02C0759567950A94E2F7A5
:100C10006170F60181916F010E944A04FFEFEF1AA3
:100C2000FF0A88E0E816F10461F7CE01DF91CF9169
:100C30001F910F91FF90EF90DF90CF900C949F0544
:100C4000B80184E0759567958A95E1F7CE010E9419
:100C5000B5056F2DCE01DF91CF911F910F91FF90C0
:100C6000EF90DF90CF900C94B50540E0682F83EEB5
:100C700093E00C94E205CF93DF93823029F49091B6
:100C8000F20398609093F2038093F6031092F703B7
:100C900080E48093F80380E18093F90380E58093FA
:100CA000FA0361E08091E7030E947C048091E803ED
:100CB0008F3F19F061E00E947C0461E08091E903BC
:100CC0000E947C04C3EED3E09E01235E33408091FA
:100CD000F20384FD0BC084E090E0219628173907C9
:100CE00044F461E08E810E947C04EECF88E090E0C5
:100CF000F4CF8BE39DE00197F1F760E08091E7038B
:100D00000E944A0460E08091E9030E944A048091B5
:100D1000E8038F3F19F060E00E944A048091F203DB
:100D200084FD39C063E083EE93E00E94B505CBE417
:100D3000D6E4CE010197F1F763E083EE93E00E94E1
:100D4000B5052197F1F763E083EE93E00E94B505C6
:100D500083E592E00197F1F762E083EE93E00E9471
:100D6000B5058091F20380620E94350684E080938D
:100D7000F3038CE00E94350681E00E9435068BE388
:100D80009FE10197F1F782E08093F40386E0DF9121
:100D9000CF910C94350680620E9435068BE496E470
:100DA0000197F1F78091F20380620E94350683E596
:100DB00092E00197F1F78091F20380620E9435067C
:100DC000D0CF41E00E94E20581E090E00895FB0170
:100DD00001900020E9F73197AF01461B570BDC016A
:100DE000ED91FC910280F381E02D1994CF93DF9374
:100DF000BC0182EB92E00E94E706EC0160E472E045
:100E000082EB92E00E94E7068C0F9D1FDF91CF914D
:100E100008954F925F926F927F92AF92BF92CF925E
:100E2000DF92EF92FF920F931F93CF93DF93CDB793
:100E3000DEB7A1970FB6F894DEBF0FBECDBF5C0141
:100E40006A017B01F7FE47C0DC01ED91FC91019046
:100E5000F081E02D6DE219958C0122273327A9013D
:100E60002C193D094E095F0919A2FE01B1967F01B7
:100E70009AE0492E512C612C712CCA01B901A301B1
:100E800092010E940E0E605DD7016E937D012115C7
:100E900031054105510589F790E080E0109721F078
:100EA000BD01C5010E94E706800F911FA1960FB6F4
:100EB000F894DEBF0FBECDBFDF91CF911F910F9190
:100EC000FF90EF90DF90CF90BF90AF907F906F90AA
:100ED0005F904F900895AB01960119A28E010F5DAE
:100EE0001F4F8AE0C82ED12CE12CF12CCA01B90188
:100EF000A70196010E940E0E605DF80162938F01BA
:100F0000211531054105510589F790E080E03097C2
:100F100069F2BF01C5010E94E706C8CF1F920F9278
:100F20000FB60F9211240BB60F922F933F934F934E
:100F30005F936F937F938F939F93AF93BF93EF9341
:100F4000FF9382EB92E00E94C002FF91EF91BF916C
:100F5000AF919F918F917F916F915F914F913F9151
:100F60002F910F900BBE0F900FBE0F901F901895F2
:100F70001F920F920FB60F9211240BB60F922F9360
:100F80008F939F93EF93FF93E091C202F091C3027E
:100F90008081E091C802F091C90282FD1DC090815C
:100FA0008091CB028F5F8F732091CC02821741F02A
:100FB000E091CB02F0E0EE54FD4F958F8093CB0291
:100FC000FF91EF919F918F912F910F900BBE0F90FA
:100FD0000FBE0F901F9018958081F2CF1F920F9235
:100FE0000FB60F9211242F933F938F939F93AF933C
:100FF000BF938091AE029091AF02A091B002B091E8
:10100000B10230919A0223E0230F2D3758F5019653
:10101000A11DB11D20939A028093AE029093AF025E
:10102000A093B002B093B10280919B0290919C0278
:10103000A0919D02B0919E020196A11DB11D8093C9
:101040009B0290939C02A0939D02B0939E02BF913D
:10105000AF919F918F913F912F910F900FBE0F9065
:101060001F90189526E8230F0296A11DB11DD2CF1F
:101070001F920F920FB60F9211240BB60F922F935F
:101080003F934F935F936F937F938F939F93AF9310
:10109000BF93EF93FF9348E251E064E271E090E088
:1010A00080E00E94E104FF91EF91BF91AF919F9189
:1010B0008F917F916F915F914F913F912F910F9001
:1010C0000BBE0F900FBE0F901F9018951F920F929E
:1010D0000FB60F9211240BB60F922F933F934F939D
:1010E0005F936F937F938F939F93AF93BF93EF9390
:1010F000FF9348EA50E064EA70E083E090E00E94E9
:10110000E104FF91EF91BF91AF919F918F917F91FA
:101110006F915F914F913F912F910F900BBE0F9068
:101120000FBE0F901F9018951F920F920FB60F923F
:1011300011240BB60F922F933F934F935F936F93AE
:101140007F938F939F93AF93BF93EF93FF9348E960
:1011500050E064E970E082E090E00E94E104FF91D9
:10116000EF91BF91AF919F918F917F916F915F911F
:101170004F913F912F910F900BBE0F900FBE0F908C
:101180001F9018951F920F920FB60F9211240BB655
:101190000F922F933F934F935F936F937F938F9310
:1011A0009F93AF93BF93EF93FF9348E850E064E8B9
:1011B00070E081E090E00E94E104FF91EF91BF9127
:1011C000AF919F918F917F916F915F914F913F91DF
:1011D0002F910F900BBE0F900FBE0F901F90189580
:1011E000CF931092B5021092B40288EE93E0A0E083
:1011F000B0E08093B6029093B702A093B802B09388
:10120000B9028CE192E09093B3028093B20285EC34
:1012100090E09093BF028093BE0284EC90E09093A4
:10122000C1028093C00280EC90E09093C30280934F
:10123000C20281EC90E09093C5028093C40282ECDC
:1012400090E09093C7028093C60286EC90E0909362
:10125000C9028093C8021092CB021092CC02109265
:10126000CD021092CE021092FD0310920104109252
:101270000004109202048AE392E09093FC038093AE
:10128000FB03E7E1F4E010821482138215823696A4
:1012900084E0E335F807B9F784E092E090935E04C8
:1012A00080935D0480E092E09093600480935F04FB
:1012B00084E0809361048093620488E092E09093DC
:1012C0005C0480935B048AE090E0909364048093D4
:1012D000630484EF91E09093660480936504109218
:1012E00069041092680410925704109258041092E6
:1012F000590410925A04109267041092E603109257
:10130000E5038EE292E09093E4038093E3038DE0A3
:101310008093E703CFEFC093E8038CE08093E90369
:101320008BE08093EA038AE08093EB0389E080936B
:10133000EC0388E08093ED031092EE031092EF032C
:101340001092F0031092F1031092F20381E00E94D8
:101350003B068091DF038033A0F491E0980F9093D7
:10136000DF038093E00390E0FC01EE0FFF1FE80F26
:10137000F91FE15BFC4F88EB9BE092838183CF9167
:101380000895C093E003FBCF789484B5826084BD58
:1013900084B5816084BD85B5826085BD85B5816079
:1013A00085BD80916E00816080936E0010928100F7
:1013B00080918100826080938100809181008160B2
:1013C0008093810080918000816080938000809173
:1013D000B10084608093B1008091B00081608093FF
:1013E000B000809191008260809391008091910083
:1013F0008160809391008091900081608093900043
:101400008091A10082608093A1008091A100816001
:101410008093A1008091A00081608093A0008091C2
:10142000210182608093210180912101816080935C
:1014300021018091200181608093200180917A00B8
:10144000846080937A0080917A00826080937A0031
:1014500080917A00816080937A0080917A00806820
:1014600080937A001092C10082E00E943B06E091D6
:10147000F603E23008F0A0C0E150F0E0ED51FC4F7F
:10148000848980680E9435068091E003803308F0EB
:1014900054C061E087E00E947C048091E003282F23
:1014A00030E0F901EE0FFF1FE20FF31FE15BFC4F8D
:1014B0009081907C976090839EE89093E10394E6FE
:1014C0009093E2032CE0622F0E944F0E829FB001A6
:1014D000112430E020E0AB01420F531FFA01EE0F60
:1014E000FF1FE40FF51FE15BFC4F908196FD17C0D5
:1014F0002F5F3F4F2C30310571F7813009F05EC00E
:101500001092800082E080938100109285001092FA
:101510008400B19A80916F00826080936F00E091A7
:10152000E0038E2F90E0FC01EE0FFF1FE80FF91F84
:10153000E15BFC4F808180648083412C512C32011F
:10154000439457E3252E54E0352E21E02093670481
:101550008FB7F8944091AE025091AF026091B00203
:101560007091B1028FBF8091570490915804A0915F
:101570005904B0915A04481B590B6A0B7B0B80919C
:10158000630490916404B0E0A0E084179507A60777
:10159000B70708F0C9C1C0E080916104C817D0F551
:1015A000E0915D04F0915E04EC0FF11D62E080813A
:1015B0000E947C04CF5FF0CFE1E05FCF823061F426
:1015C00010929000809391001092950010929400D8
:1015D00088BB80937100A3CF833069F41092A00080
:1015E00082E08093A1001092A5001092A40089BB14
:1015F0008093720094CF811192CF1092200182E0EB
:101600008093210110922501109224018ABB8093BE
:10161000730085CF10E080916204181708F05FC056
:10162000E12EF12CE0915F04F0916004EE0DFF1DBE
:1016300061E080810E947C04E0915F04F09160048D
:10164000EE0DFF1D60E080810E944A04D301C201BB
:10165000012E04C0880F991FAA1FBB1F0A94D2F73E
:101660005C016C01C094D09400E080916104081783
:10167000F8F4C02FD0E0E0915D04F0915E04EC0F2F
:10168000FD1F80810E941E042496CC0FDD1FC550D3
:10169000DC4F892B41F4888199818A299B29998380
:1016A00088830F5FE2CF888199818C219D21F7CFBC
:1016B000E0915F04F0916004EE0DFF1D61E0808118
:1016C0000E944A0480915F0490916004E80EF91E24
:1016D00060E0F70180810E947C041F5F9CCFCBEF0C
:1016E000D3E08E01F801878D90A1892B31F4148EFF
:1016F0002FEF3FEF368F258F11A20A5F1F4F201665
:10170000310681F7F12C80916104F81608F053C07E
:10171000E12C8F2D90E0880F991FFC01ED5FFB4FAE
:101720006F0120916204E21608F043C0F601608167
:1017300071810E2C02C0769567950A94E2F7F29EAD
:10174000900111242E0D311DEBEFF3E080E0458D6B
:10175000568D2417350709F42DC28F5F36968A30CF
:10176000B1F760FF24C0EBEFF3E090E080E0448D40
:10177000411118C0E0915B04F0915C04E20FF31F8B
:10178000408156E0589FF001599FF00D1124E5501B
:10179000FC4F448F368F258F10A2178E61E00E9478
:1017A000130205C0019636968A30910501F7E3943D
:1017B000B8CFF394A8CF80E099A19111892F2696F4
:1017C0000C171D07C9F79FB7F8944091AE025091CE
:1017D000AF026091B0027091B1029FBF4093570475
:1017E000509358046093590470935A04882309F461
:1017F0009BC080911C04882309F496C080911A0430
:1018000090911B04019709F08FC0C0911704C093F9
:10181000AD02C1118EC08091AC02882339F1609174
:10182000A8027091A9028091AA029091AB02209126
:10183000A7022B3209F082C10091A3021091A402E9
:101840002091A5023091A602060F171F281F391FED
:1018500000939F021093A0022093A1023093A20252
:1018600080919F029091A0020E947401E1E080911A
:10187000F6038111E0E0E195F0E0ED51FC4F848941
:1018800080680E9435064091A8025091A90260919B
:10189000AA027091AB0283EE93E00E94090741E037
:1018A0006091A70283EE93E00E94E2054091A302BB
:1018B0005091A4026091A5027091A60283EE93E07C
:1018C0000E9409078091AC02882391F063E972E0DD
:1018D00083EE93E00E94E70640919F025091A002A0
:1018E0006091A1027091A20283EE93E00E94090729
:1018F000E091F603E23008F05BC1E150F0E0ED5119
:10190000FC4F848980680E94350640919F02509167
:10191000A0026091A1027091A20283EE93E00E9466
:1019200009070E94590311CE109267041092AD026C
:1019300072CF81E00E9435068BE39FE10197F1F7BA
:10194000C053CA3008F03FC063E472E082EB92E01B
:101950000E94E7064091AD02042E000C550B405347
:101960005109052E000C660B770B82EB92E00E946A
:10197000090760E472E082EB92E00E94E7062091A2
:101980009F023091A0024091A1025091A202AAE0D0
:10199000B0E00E94FB0DAB01BC018091AD02082EAE
:1019A000000C990BC097092E000CAA0BBB0B840FDF
:1019B000951FA61FB71F80939F029093A002A0932C
:1019C000A102B093A2028091AD028A3221F58BE48C
:1019D00092E00E94F6061092A3021092A4021092C6
:1019E000A5021092A6021092A8021092A9021092CB
:1019F000AA021092AB0210929F021092A0021092C3
:101A0000A1021092A20290E080E00E947401109264
:101A1000A7021092AC028091AD028332B9F489E53D
:101A200092E00E94F60680919F029091A002A09100
:101A3000A102B091A2028093A3029093A402A0936A
:101A4000A502B093A60281E08093AC028091AD0222
:101A50009FEB980F943008F0DECE40919F0250919A
:101A6000A0026091A1027091A2024093A80250933B
:101A7000A9026093AA027093AB021092A302109283
:101A8000A4021092A5021092A60210929F02109238
:101A9000A0021092A1021092A2021092AC02813414
:101AA00039F486E692E00E94F6068BE28093A70264
:101AB0008091AD02823439F48FE692E00E94F606FE
:101AC0009DE29093A7028091AD02833439F48BE7B5
:101AD00092E00E94F606EAE2E093A7028091AD024E
:101AE000843439F48AE892E00E94F606FFE2F0932B
:101AF000A7020E94BC044B015C0184E6C82ED12CD5
:101B0000E12CF12C0E94BC04681979098A099B090F
:101B1000683E734081059105A8F321E0C21AD108FF
:101B2000E108F10838EE830E33E0931EA11CB11CCE
:101B3000C114D104E104F10429F76DCE2D32A9F4CA
:101B40000091A3021091A4022091A5023091A60257
:101B5000601B710B820B930B60939F027093A0022A
:101B60008093A1029093A2027BCE2A3259F4209155
:101B7000A3023091A4024091A5025091A6020E94B6
:101B80003F0EEACF2F3209F06BCE2091A3023091A5
:101B9000A4024091A5025091A6020E94DC0D209360
:101BA0009F023093A0024093A1025093A20258CE0C
:101BB000E1E0A4CE6170F3CD052E97FB1EF40094F6
:101BC0000E94F30D57FD07D00E940E0E07FC03D0B4
:101BD0004EF40C94F30D50954095309521953F4F60
:101BE0004F4F5F4F089590958095709561957F4F09
:101BF0008F4F9F4F08950E94300EA59F900DB49F68
:101C0000900DA49F800D911D11240895B7FF0C9491
:101C1000FB0D0E94FB0D821B930B0895A1E21A2E6F
:101C2000AA1BBB1BFD010DC0AA1FBB1FEE1FFF1F80
:101C3000A217B307E407F50720F0A21BB30BE40BD0
:101C4000F50B661F771F881F991F1A9469F7609517
:101C50007095809590959B01AC01BD01CF010895D1
:101C6000A29FB001B39FC001A39F700D811D1124DD
:101C7000911DB29F700D811D1124911D0895DB01EE
:101C80008F939F930E94FB0DBF91AF91A29F800DF8
:101C9000911DA39F900DB29F900D11240895991B43
:101CA00079E004C0991F961708F0961B881F7A9553
:101CB000C9F780950895EE0FFF1F881F8BBF07900F
:0A1CC000F691E02D1994F894FFCF7F
:101CCA001A1B1C1D16171819373839443435364370
:101CDA00313233422A30234100000000E2028A03F3
:101CEA0083022F03B4029202A60200000000E1065A
:101CFA008A039C059B0500000000B8047804470489
:101D0A000D0A00427574746F6E2000427574746F08
:101D1A006E2043616E63656C00427574746F6E2049
:101D2A00457175616C004164646974696F6E005332
:101D3A0075627472616374696F6E004D756C746953
:101D4A00706C69636174696F6E0044657665736966
:061D5A006F6E00203D0049
:00000001FF
